{
  "contractName": "Bridge",
  "abi": [
    {
      "constant": false,
      "inputs": [],
      "name": "stop",
      "outputs": [],
      "payable": false,
      "stateMutability": "nonpayable",
      "type": "function"
    },
    {
      "constant": true,
      "inputs": [],
      "name": "duration",
      "outputs": [
        {
          "name": "",
          "type": "uint256"
        }
      ],
      "payable": false,
      "stateMutability": "view",
      "type": "function"
    },
    {
      "constant": true,
      "inputs": [],
      "name": "MAX_CROWDSALE_TIME",
      "outputs": [
        {
          "name": "",
          "type": "uint256"
        }
      ],
      "payable": false,
      "stateMutability": "view",
      "type": "function"
    },
    {
      "constant": false,
      "inputs": [
        {
          "name": "_contract",
          "type": "address"
        },
        {
          "name": "_amount",
          "type": "uint256"
        }
      ],
      "name": "mintETHRewards",
      "outputs": [],
      "payable": false,
      "stateMutability": "nonpayable",
      "type": "function"
    },
    {
      "constant": true,
      "inputs": [],
      "name": "started",
      "outputs": [
        {
          "name": "",
          "type": "bool"
        }
      ],
      "payable": false,
      "stateMutability": "view",
      "type": "function"
    },
    {
      "constant": true,
      "inputs": [],
      "name": "manager",
      "outputs": [
        {
          "name": "",
          "type": "address"
        }
      ],
      "payable": false,
      "stateMutability": "view",
      "type": "function"
    },
    {
      "constant": true,
      "inputs": [],
      "name": "totalCollectedETH",
      "outputs": [
        {
          "name": "",
          "type": "uint256"
        }
      ],
      "payable": false,
      "stateMutability": "view",
      "type": "function"
    },
    {
      "constant": true,
      "inputs": [],
      "name": "minimalGoal",
      "outputs": [
        {
          "name": "",
          "type": "uint256"
        }
      ],
      "payable": false,
      "stateMutability": "view",
      "type": "function"
    },
    {
      "constant": true,
      "inputs": [],
      "name": "MIN_CROWDSALE_TIME",
      "outputs": [
        {
          "name": "",
          "type": "uint256"
        }
      ],
      "payable": false,
      "stateMutability": "view",
      "type": "function"
    },
    {
      "constant": true,
      "inputs": [],
      "name": "stopped",
      "outputs": [
        {
          "name": "",
          "type": "bool"
        }
      ],
      "payable": false,
      "stateMutability": "view",
      "type": "function"
    },
    {
      "constant": true,
      "inputs": [],
      "name": "MIN_HARD_CAP",
      "outputs": [
        {
          "name": "",
          "type": "uint256"
        }
      ],
      "payable": false,
      "stateMutability": "view",
      "type": "function"
    },
    {
      "constant": true,
      "inputs": [],
      "name": "owner",
      "outputs": [
        {
          "name": "",
          "type": "address"
        }
      ],
      "payable": false,
      "stateMutability": "view",
      "type": "function"
    },
    {
      "constant": true,
      "inputs": [],
      "name": "totalSold",
      "outputs": [
        {
          "name": "",
          "type": "uint256"
        }
      ],
      "payable": false,
      "stateMutability": "view",
      "type": "function"
    },
    {
      "constant": true,
      "inputs": [],
      "name": "endTimestamp",
      "outputs": [
        {
          "name": "",
          "type": "uint256"
        }
      ],
      "payable": false,
      "stateMutability": "view",
      "type": "function"
    },
    {
      "constant": false,
      "inputs": [
        {
          "name": "_newManager",
          "type": "address"
        }
      ],
      "name": "transferManager",
      "outputs": [],
      "payable": false,
      "stateMutability": "nonpayable",
      "type": "function"
    },
    {
      "constant": false,
      "inputs": [],
      "name": "deposit",
      "outputs": [],
      "payable": true,
      "stateMutability": "payable",
      "type": "function"
    },
    {
      "constant": true,
      "inputs": [],
      "name": "fundingAddress",
      "outputs": [
        {
          "name": "",
          "type": "address"
        }
      ],
      "payable": false,
      "stateMutability": "view",
      "type": "function"
    },
    {
      "constant": true,
      "inputs": [],
      "name": "totalCollected",
      "outputs": [
        {
          "name": "",
          "type": "uint256"
        }
      ],
      "payable": false,
      "stateMutability": "view",
      "type": "function"
    },
    {
      "constant": true,
      "inputs": [],
      "name": "startTimestamp",
      "outputs": [
        {
          "name": "",
          "type": "uint256"
        }
      ],
      "payable": false,
      "stateMutability": "view",
      "type": "function"
    },
    {
      "constant": false,
      "inputs": [
        {
          "name": "newOwner",
          "type": "address"
        }
      ],
      "name": "transferOwnership",
      "outputs": [],
      "payable": false,
      "stateMutability": "nonpayable",
      "type": "function"
    },
    {
      "constant": true,
      "inputs": [],
      "name": "hardCap",
      "outputs": [
        {
          "name": "",
          "type": "uint256"
        }
      ],
      "payable": false,
      "stateMutability": "view",
      "type": "function"
    },
    {
      "inputs": [
        {
          "name": "_owner",
          "type": "address"
        },
        {
          "name": "_manager",
          "type": "address"
        }
      ],
      "payable": false,
      "stateMutability": "nonpayable",
      "type": "constructor"
    },
    {
      "payable": true,
      "stateMutability": "payable",
      "type": "fallback"
    },
    {
      "anonymous": false,
      "inputs": [
        {
          "indexed": false,
          "name": "token",
          "type": "address"
        },
        {
          "indexed": false,
          "name": "decimals",
          "type": "uint8"
        }
      ],
      "name": "CUSTOM_CROWDSALE_TOKEN_ADDED",
      "type": "event"
    },
    {
      "anonymous": false,
      "inputs": [
        {
          "indexed": false,
          "name": "minimalGoal",
          "type": "uint256"
        },
        {
          "indexed": false,
          "name": "hardCap",
          "type": "uint256"
        }
      ],
      "name": "CUSTOM_CROWDSALE_GOAL_ADDED",
      "type": "event"
    },
    {
      "anonymous": false,
      "inputs": [
        {
          "indexed": false,
          "name": "startTimestamp",
          "type": "uint256"
        },
        {
          "indexed": false,
          "name": "endTimestamp",
          "type": "uint256"
        }
      ],
      "name": "CUSTOM_CROWDSALE_PERIOD_ADDED",
      "type": "event"
    },
    {
      "anonymous": false,
      "inputs": [],
      "name": "CUSTOM_CROWDSALE_FINISH",
      "type": "event"
    },
    {
      "anonymous": false,
      "inputs": [
        {
          "indexed": false,
          "name": "startTimestamp",
          "type": "uint256"
        },
        {
          "indexed": false,
          "name": "endTimestamp",
          "type": "uint256"
        },
        {
          "indexed": false,
          "name": "fundingAddress",
          "type": "address"
        }
      ],
      "name": "CROWDSALE_START",
      "type": "event"
    },
    {
      "anonymous": false,
      "inputs": [
        {
          "indexed": true,
          "name": "previousOwner",
          "type": "address"
        },
        {
          "indexed": true,
          "name": "newOwner",
          "type": "address"
        }
      ],
      "name": "OwnershipTransferred",
      "type": "event"
    },
    {
      "constant": false,
      "inputs": [],
      "name": "getToken",
      "outputs": [
        {
          "name": "",
          "type": "address"
        }
      ],
      "payable": false,
      "stateMutability": "nonpayable",
      "type": "function"
    },
    {
      "constant": false,
      "inputs": [
        {
          "name": "_contract",
          "type": "address"
        },
        {
          "name": "_amount",
          "type": "uint256"
        }
      ],
      "name": "mintTokenRewards",
      "outputs": [],
      "payable": false,
      "stateMutability": "nonpayable",
      "type": "function"
    },
    {
      "constant": false,
      "inputs": [],
      "name": "releaseTokens",
      "outputs": [],
      "payable": false,
      "stateMutability": "nonpayable",
      "type": "function"
    },
    {
      "constant": false,
      "inputs": [
        {
          "name": "_amount",
          "type": "uint256"
        },
        {
          "name": "_ethAmount",
          "type": "uint256"
        },
        {
          "name": "_tokensAmount",
          "type": "uint256"
        }
      ],
      "name": "notifySale",
      "outputs": [],
      "payable": false,
      "stateMutability": "nonpayable",
      "type": "function"
    },
    {
      "constant": false,
      "inputs": [
        {
          "name": "_startTimestamp",
          "type": "uint256"
        },
        {
          "name": "_endTimestamp",
          "type": "uint256"
        },
        {
          "name": "_fundingAddress",
          "type": "address"
        }
      ],
      "name": "start",
      "outputs": [],
      "payable": false,
      "stateMutability": "nonpayable",
      "type": "function"
    },
    {
      "constant": false,
      "inputs": [],
      "name": "finish",
      "outputs": [],
      "payable": false,
      "stateMutability": "nonpayable",
      "type": "function"
    },
    {
      "constant": true,
      "inputs": [],
      "name": "isFailed",
      "outputs": [
        {
          "name": "",
          "type": "bool"
        }
      ],
      "payable": false,
      "stateMutability": "view",
      "type": "function"
    },
    {
      "constant": true,
      "inputs": [],
      "name": "isActive",
      "outputs": [
        {
          "name": "",
          "type": "bool"
        }
      ],
      "payable": false,
      "stateMutability": "view",
      "type": "function"
    },
    {
      "constant": true,
      "inputs": [],
      "name": "isSuccessful",
      "outputs": [
        {
          "name": "",
          "type": "bool"
        }
      ],
      "payable": false,
      "stateMutability": "view",
      "type": "function"
    },
    {
      "constant": true,
      "inputs": [],
      "name": "calculateRewards",
      "outputs": [
        {
          "name": "",
          "type": "uint256"
        },
        {
          "name": "",
          "type": "uint256"
        }
      ],
      "payable": false,
      "stateMutability": "view",
      "type": "function"
    },
    {
      "constant": false,
      "inputs": [
        {
          "name": "_newToken",
          "type": "address"
        }
      ],
      "name": "changeToken",
      "outputs": [],
      "payable": false,
      "stateMutability": "nonpayable",
      "type": "function"
    },
    {
      "constant": false,
      "inputs": [
        {
          "name": "_minimalGoal",
          "type": "uint256"
        },
        {
          "name": "_hardCap",
          "type": "uint256"
        }
      ],
      "name": "setCrowdsaleGoal",
      "outputs": [],
      "payable": false,
      "stateMutability": "nonpayable",
      "type": "function"
    },
    {
      "constant": false,
      "inputs": [
        {
          "name": "_startTimestamp",
          "type": "uint256"
        },
        {
          "name": "_endTimestamp",
          "type": "uint256"
        }
      ],
      "name": "setCrowdsalePeriod",
      "outputs": [],
      "payable": false,
      "stateMutability": "nonpayable",
      "type": "function"
    },
    {
      "constant": false,
      "inputs": [],
      "name": "withdraw",
      "outputs": [],
      "payable": false,
      "stateMutability": "nonpayable",
      "type": "function"
    }
  ],
  "bytecode": "0x608060405234801561001057600080fd5b506040516040806110af83398101604052805160209091015160008054600160a060020a03938416600160a060020a03199182163317821617909155600180549390921692169190911790556110448061006b6000396000f30060806040526004361061019d5763ffffffff60e060020a60003504166307da68f5811461019f5780630fb5a6b4146101b45780631510ca79146101db578063181956ae146101f057806318c9ef971461020b5780631f2698ab1461022f57806321df0da71461025857806322f3e2d4146102895780633ccfd60b1461029e5780633e50de30146102b3578063481c6a75146102e15780635d202249146102f65780636385cbbe1461030b57806366829b16146103205780637234ba0c1461034157806375f12b211461035657806376ddfc391461036b5780638da5cb5b146103805780639106d7ba1461039557806393f33b88146103aa578063a51fe113146103c8578063a85adeab146103ef578063a96f866814610404578063b23c1f1914610419578063ba0e930a1461043d578063c8e9d8ac1461045e578063d0e30db014610479578063d3b7bfb414610481578063d56b288914610496578063e29eb836146104ab578063e6fd48bc146104c0578063ec4cd0cf146104d5578063f2fde38b146104ea578063f41633401461050b578063fb86a40414610520575b005b3480156101ab57600080fd5b5061019d610535565b3480156101c057600080fd5b506101c96105b1565b60408051918252519081900360200190f35b3480156101e757600080fd5b506101c96105b7565b3480156101fc57600080fd5b5061019d6004356024356105be565b34801561021757600080fd5b5061019d600160a060020a0360043516602435610666565b34801561023b57600080fd5b506102446106a9565b604080519115158252519081900360200190f35b34801561026457600080fd5b5061026d6106b9565b60408051600160a060020a039092168252519081900360200190f35b34801561029557600080fd5b506102446106c8565b3480156102aa57600080fd5b5061019d6106f3565b3480156102bf57600080fd5b506102c8610857565b6040805192835260208301919091528051918290030190f35b3480156102ed57600080fd5b5061026d6109d0565b34801561030257600080fd5b506101c96109df565b34801561031757600080fd5b506101c96109e5565b34801561032c57600080fd5b5061019d600160a060020a03600435166109eb565b34801561034d57600080fd5b506101c9610b19565b34801561036257600080fd5b50610244610b20565b34801561037757600080fd5b506101c9610b30565b34801561038c57600080fd5b5061026d610b3c565b3480156103a157600080fd5b506101c9610b4b565b3480156103b657600080fd5b5061019d600435602435604435610b51565b3480156103d457600080fd5b5061019d600435602435600160a060020a0360443516610bf1565b3480156103fb57600080fd5b506101c9610c99565b34801561041057600080fd5b5061019d610c9f565b34801561042557600080fd5b5061019d600160a060020a0360043516602435610ce2565b34801561044957600080fd5b5061019d600160a060020a0360043516610d82565b34801561046a57600080fd5b5061019d600435602435610dd0565b61019d610ce0565b34801561048d57600080fd5b5061026d610e78565b3480156104a257600080fd5b5061019d610e87565b3480156104b757600080fd5b506101c9610f25565b3480156104cc57600080fd5b506101c9610f2b565b3480156104e157600080fd5b50610244610f31565b3480156104f657600080fd5b5061019d600160a060020a0360043516610f41565b34801561051757600080fd5b50610244610fc8565b34801561052c57600080fd5b506101c9610fcd565b600154600160a060020a0316331461054c57600080fd5b60015460a860020a900460ff161561056357600080fd5b60015460a060020a900460ff16156105995761057d610fc8565b1561058757600080fd5b61058f610f31565b1561059957600080fd5b6001805460a860020a60ff02191660a860020a179055565b60075481565b6241eb0081565b600054600160a060020a03163314806105e15750600154600160a060020a031633145b15156105ec57600080fd5b600b5460a060020a900460ff161561060357600080fd5b60008211801561061257508181115b151561061d57600080fd5b60058290556006819055604080518381526020810183905281517f8a107dbf550ef189cf0475e419d4fb817092ced37114d2b5efe4c816926b27ee929181900390910190a15050565b600154600160a060020a0316331461067d57600080fd5b604051600160a060020a038316908290600081818185875af19250505015156106a557600080fd5b5050565b60015460a060020a900460ff1681565b600b54600160a060020a031690565b60015460009060a060020a900460ff1680156106ee5750600b5460a060020a900460ff16155b905090565b600080548190600160a060020a0316331461070d57600080fd5b600b546040805160e060020a6370a082310281523060048201819052915191319450600160a060020a03909216916370a082319160248083019260209291908290030181600087803b15801561076257600080fd5b505af1158015610776573d6000803e3d6000fd5b505050506040513d602081101561078c57600080fd5b5051905060008211156107c057604051339083156108fc029084906000818181858888f1935050505015156107c057600080fd5b60008111156106a557600b546040805160e060020a63a9059cbb028152336004820152602481018490529051600160a060020a039092169163a9059cbb916044808201926020929091908290030181600087803b15801561082057600080fd5b505af1158015610834573d6000803e3d6000fd5b505050506040513d602081101561084a57600080fd5b505115156106a557600080fd5b6000806000806000806000600160009054906101000a9004600160a060020a0316600160a060020a031663a823cfaf6040518163ffffffff1660e060020a028152600401602060405180830381600087803b1580156108b557600080fd5b505af11580156108c9573d6000803e3d6000fd5b505050506040513d60208110156108df57600080fd5b50516001546040805160e060020a6380fa81b10281529051929750600160a060020a03909116916380fa81b1916004808201926020929091908290030181600087803b15801561092e57600080fd5b505af1158015610942573d6000803e3d6000fd5b505050506040513d602081101561095857600080fd5b50516004549094508415159250620f42409061097a908763ffffffff610fd316565b81151561098357fe5b04905081156109c357620f42406109b6856003546000146109a6576003546109aa565b6002545b9063ffffffff610fd316565b8115156109bf57fe5b0492505b9196919550909350505050565b600154600160a060020a031681565b60035481565b60055481565b60008054600160a060020a0316331480610a0f5750600154600160a060020a031633145b1515610a1a57600080fd5b600b8054600160a060020a031916600160a060020a0384811691909117918290556040805160e060020a63313ce5670281529051929091169163313ce567916004808201926020929091908290030181600087803b158015610a7b57600080fd5b505af1158015610a8f573d6000803e3d6000fd5b505050506040513d6020811015610aa557600080fd5b50519050600860ff821610801590610ac1575060128160ff1611155b1515610acc57600080fd5b600b5460408051600160a060020a03909216825260ff8316602083015280517fed6f18557b7914dbfc23d546be65de82017608e11b87429e06c0b88b55f0b6c39281900390910190a15050565b6203f48081565b60015460a860020a900460ff1681565b670de0b6b3a764000081565b600054600160a060020a031681565b60045481565b60015460a060020a900460ff161515610b6957600080fd5b60015460a860020a900460ff1615610b8057600080fd5b610b886106c8565b1515610b9357600080fd5b600054600160a060020a03163314610baa57600080fd5b600254610bbd908463ffffffff61100916565b600255600354610bd3908363ffffffff61100916565b600355600454610be9908263ffffffff61100916565b600455505050565b60015460a060020a900460ff1615610c0857600080fd5b60015460a860020a900460ff1615610c1f57600080fd5b600154600160a060020a03163314610c3657600080fd5b6001805460a060020a60ff02191660a060020a1790556040805184815260208101849052600160a060020a0383168183015290517ffccf552413932efea18979436cc8ce92942bdef118c2b5682351e1891bef80729181900360600190a1505050565b60095481565b600154600160a060020a03163314610cb657600080fd5b60015460a860020a900460ff1615610ccd57600080fd5b610cd5610f31565b1515610ce057600080fd5b565b600154600160a060020a03163314610cf957600080fd5b600b546040805160e060020a63a9059cbb028152600160a060020a038581166004830152602482018590529151919092169163a9059cbb9160448083019260209291908290030181600087803b158015610d5257600080fd5b505af1158015610d66573d6000803e3d6000fd5b505050506040513d6020811015610d7c57600080fd5b50505050565b600154600160a060020a03163314610d9957600080fd5b600160a060020a0381161515610dae57600080fd5b60018054600160a060020a031916600160a060020a0392909216919091179055565b600054600160a060020a0316331480610df35750600154600160a060020a031633145b1515610dfe57600080fd5b600b5460a060020a900460ff1615610e1557600080fd5b600082118015610e2457508181115b1515610e2f57600080fd5b60088290556009819055604080518381526020810183905281517f70b2168874684694af024b9b82966aedd9e12634e3229136b7d89247b5a2b071929181900390910190a15050565b600a54600160a060020a031681565b60015460a860020a900460ff1615610e9e57600080fd5b60015460a060020a900460ff161515610eb657600080fd5b610ebe6106c8565b1515610ec957600080fd5b600054600160a060020a03163314610ee057600080fd5b600b805460a060020a60ff02191660a060020a179055426009556040517f256531276449280f5a3022f3024cb03968cf6ab90d6d067e9bc10768bcbcb08090600090a1565b60025481565b60085481565b600b5460a060020a900460ff1690565b600054600160a060020a03163314610f5857600080fd5b600160a060020a0381161515610f6d57600080fd5b60008054604051600160a060020a03808516939216917f8be0079c531659141344cd1fd0a4f28419497f9722a3daafe3b4186f6b6457e091a360008054600160a060020a031916600160a060020a0392909216919091179055565b600090565b60065481565b600080831515610fe65760009150611002565b50828202828482811515610ff657fe5b0414610ffe57fe5b8091505b5092915050565b600082820183811015610ffe57fe00a165627a7a72305820116ab2bd7157c8ddb6cf7726a7a05b773d91ad6529a046f70d444efdfb5267830029",
  "source": "pragma solidity ^0.4.18;\n\n\nimport 'wings-integration/contracts/BasicCrowdsale.sol';\nimport 'zeppelin-solidity/contracts/math/SafeMath.sol';\nimport 'zeppelin-solidity/contracts/token/DetailedERC20.sol';\n\nimport './IWingsController.sol';\n\n\n/*\n  Standalone Bridge\n*/\ncontract Bridge is BasicCrowdsale {\n\n  using SafeMath for uint256;\n\n  event CUSTOM_CROWDSALE_TOKEN_ADDED(address token, uint8 decimals);\n  event CUSTOM_CROWDSALE_GOAL_ADDED(uint256 minimalGoal, uint256 hardCap);\n  event CUSTOM_CROWDSALE_PERIOD_ADDED(uint256 startTimestamp, uint256 endTimestamp);\n  event CUSTOM_CROWDSALE_FINISH();\n\n  modifier onlyOwnerOrManager() {\n    require(msg.sender == owner || msg.sender == manager);\n    _;\n  }\n\n  modifier uncompleted() {\n    require(!completed);\n    _;\n  }\n\n  // Crowdsale token must be ERC20-compliant\n  DetailedERC20 token;\n\n  // Crowdsale state\n  bool completed;\n\n  // Constructor\n  function Bridge(\n    address _owner,\n    address _manager\n  )\n    public\n    BasicCrowdsale(_owner, _manager) // owner, manager\n  {}\n\n  /*\n     Here goes ICrowdsaleProcessor methods implementation\n  */\n\n  // Returns address of crowdsale token\n  function getToken()\n    public\n    returns (address)\n  {\n    return address(token);\n  }\n\n  // Mints token Rewards to Forecasting contract\n  // called by IWingsController\n  function mintTokenRewards(\n    address _contract,\n    uint256 _amount    // agreed part of totalSold which is intended for rewards\n  )\n    public\n    onlyManager()\n  {\n    // in our example we are transferring tokens instead of minting them\n    token.transfer(_contract, _amount);\n  }\n\n  function releaseTokens() public onlyManager() hasntStopped() whenCrowdsaleSuccessful() {\n  }\n\n  /*\n     Crowdsale methods implementation\n  */\n\n  // Fallback payable function\n  function() public payable {\n  }\n\n  // Update information about collected ETH and sold tokens amount\n  function notifySale(uint256 _amount, uint256 _ethAmount, uint256 _tokensAmount)\n    public\n    hasBeenStarted()\n    hasntStopped()\n    whenCrowdsaleAlive()\n    onlyOwner()\n  {\n    totalCollected = totalCollected.add(_amount);\n    totalCollectedETH = totalCollectedETH.add(_ethAmount);\n    totalSold = totalSold.add(_tokensAmount);\n  }\n\n  // Validates parameters and starts crowdsale\n  // called by IWingsController\n  function start(\n    uint256 _startTimestamp,\n    uint256 _endTimestamp,\n    address _fundingAddress\n  )\n    public\n    hasntStarted()\n    hasntStopped()\n    onlyManager()\n  {\n    started = true;\n\n    CROWDSALE_START(_startTimestamp, _endTimestamp, _fundingAddress);\n  }\n\n  // Finish crowdsale\n  function finish()\n    public\n    hasntStopped()\n    hasBeenStarted()\n    whenCrowdsaleAlive()\n    onlyOwner()\n  {\n    completed = true;\n\n    endTimestamp = block.timestamp;\n\n    CUSTOM_CROWDSALE_FINISH();\n  }\n\n  function isFailed()\n    public\n    view\n    returns (bool)\n  {\n    return (false);\n  }\n\n  function isActive()\n    public\n    view\n    returns (bool)\n  {\n    return (started && !completed);\n  }\n\n  function isSuccessful()\n    public\n    view\n    returns (bool)\n  {\n    return (completed);\n  }\n\n  // Find out the amount of rewards in ETH and tokens\n  function calculateRewards() public view returns (uint256, uint256) {\n    uint256 tokenRewardPart = IWingsController(manager).tokenRewardPart();\n    uint256 ethRewardPart = IWingsController(manager).ethRewardPart();\n    uint256 ethReward;\n    bool hasEthReward = (ethRewardPart != 0);\n\n    uint256 tokenReward = totalSold.mul(tokenRewardPart) / 1000000;\n\n    if (hasEthReward) {\n      ethReward = ((totalCollectedETH == 0) ? totalCollected : totalCollectedETH).mul(ethRewardPart) / 1000000;\n    }\n\n    return (ethReward, tokenReward);\n  }\n\n  // Change token address (in case you've used the dafault token address during bridge deployment)\n  function changeToken(address _newToken) public onlyOwnerOrManager() {\n    token = DetailedERC20(_newToken);\n\n    uint8 tokenDecimals = uint8(token.decimals());\n\n    require(tokenDecimals >= 8 && tokenDecimals <= 18);\n\n    emit CUSTOM_CROWDSALE_TOKEN_ADDED(address(token), tokenDecimals);\n  }\n\n  // Set/update crowdsale goal\n  function setCrowdsaleGoal(uint256 _minimalGoal, uint256 _hardCap) public onlyOwnerOrManager() uncompleted() {\n    require(_minimalGoal > 0 && _hardCap > _minimalGoal);\n\n    minimalGoal = _minimalGoal;\n    hardCap = _hardCap;\n\n    CUSTOM_CROWDSALE_GOAL_ADDED(minimalGoal, hardCap);\n  }\n\n  // Set/update crowdsale period\n  function setCrowdsalePeriod(uint256 _startTimestamp, uint256 _endTimestamp) public onlyOwnerOrManager() uncompleted() {\n    require(_startTimestamp > 0 && _endTimestamp > _startTimestamp);\n\n    startTimestamp = _startTimestamp;\n    endTimestamp = _endTimestamp;\n\n    CUSTOM_CROWDSALE_PERIOD_ADDED(startTimestamp, endTimestamp);\n  }\n\n  // Gives owner ability to withdraw eth and wings from Bridge contract balance in case if some error during reward calculation occured\n  function withdraw() public onlyOwner() {\n    uint256 ethBalance = address(this).balance;\n    uint256 tokenBalance = token.balanceOf(address(this));\n\n    if (ethBalance > 0) {\n      require(msg.sender.send(ethBalance));\n    }\n\n    if (tokenBalance > 0) {\n      require(token.transfer(msg.sender, tokenBalance));\n    }\n  }\n}\n",
  "sourcePath": "/Users/solidity/Desktop/github/wings-light-bridge/contracts/Bridge.sol",
  "compiler": {
    "name": "solc",
    "version": "0.4.24+commit.e67f0147.Emscripten.clang"
  },
  "schemaVersion": "2.0.0",
  "updatedAt": "2018-07-19T15:52:01.901Z"
}