{
  "contractName": "Bridge",
  "abi": [
    {
      "constant": true,
      "inputs": [],
      "name": "reachedMinGoal",
      "outputs": [
        {
          "name": "",
          "type": "bool"
        }
      ],
      "payable": false,
      "stateMutability": "view",
      "type": "function"
    },
    {
      "constant": false,
      "inputs": [],
      "name": "stop",
      "outputs": [],
      "payable": false,
      "stateMutability": "nonpayable",
      "type": "function"
    },
    {
      "constant": true,
      "inputs": [],
      "name": "rewardsAreReady",
      "outputs": [
        {
          "name": "",
          "type": "bool"
        }
      ],
      "payable": false,
      "stateMutability": "view",
      "type": "function"
    },
    {
      "constant": false,
      "inputs": [
        {
          "name": "_minimalGoal",
          "type": "uint256"
        },
        {
          "name": "_hardCap",
          "type": "uint256"
        }
      ],
      "name": "setCrowdsaleGoal",
      "outputs": [],
      "payable": false,
      "stateMutability": "nonpayable",
      "type": "function"
    },
    {
      "constant": false,
      "inputs": [
        {
          "name": "_contract",
          "type": "address"
        },
        {
          "name": "_amount",
          "type": "uint256"
        }
      ],
      "name": "mintETHRewards",
      "outputs": [],
      "payable": false,
      "stateMutability": "nonpayable",
      "type": "function"
    },
    {
      "constant": true,
      "inputs": [],
      "name": "started",
      "outputs": [
        {
          "name": "",
          "type": "bool"
        }
      ],
      "payable": false,
      "stateMutability": "view",
      "type": "function"
    },
    {
      "constant": true,
      "inputs": [],
      "name": "getToken",
      "outputs": [
        {
          "name": "",
          "type": "address"
        }
      ],
      "payable": false,
      "stateMutability": "view",
      "type": "function"
    },
    {
      "constant": true,
      "inputs": [],
      "name": "isActive",
      "outputs": [
        {
          "name": "",
          "type": "bool"
        }
      ],
      "payable": false,
      "stateMutability": "view",
      "type": "function"
    },
    {
      "constant": true,
      "inputs": [],
      "name": "calculateRewards",
      "outputs": [
        {
          "name": "",
          "type": "uint256"
        },
        {
          "name": "",
          "type": "uint256"
        }
      ],
      "payable": false,
      "stateMutability": "view",
      "type": "function"
    },
    {
      "constant": false,
      "inputs": [
        {
          "name": "_ethAmount",
          "type": "uint256"
        },
        {
          "name": "_tokenAmount",
          "type": "uint256"
        }
      ],
      "name": "withdraw",
      "outputs": [],
      "payable": false,
      "stateMutability": "nonpayable",
      "type": "function"
    },
    {
      "constant": true,
      "inputs": [],
      "name": "manager",
      "outputs": [
        {
          "name": "",
          "type": "address"
        }
      ],
      "payable": false,
      "stateMutability": "view",
      "type": "function"
    },
    {
      "constant": true,
      "inputs": [],
      "name": "totalCollectedETH",
      "outputs": [
        {
          "name": "",
          "type": "uint256"
        }
      ],
      "payable": false,
      "stateMutability": "view",
      "type": "function"
    },
    {
      "constant": true,
      "inputs": [],
      "name": "minimalGoal",
      "outputs": [
        {
          "name": "",
          "type": "uint256"
        }
      ],
      "payable": false,
      "stateMutability": "view",
      "type": "function"
    },
    {
      "constant": false,
      "inputs": [
        {
          "name": "_newToken",
          "type": "address"
        }
      ],
      "name": "changeToken",
      "outputs": [],
      "payable": false,
      "stateMutability": "nonpayable",
      "type": "function"
    },
    {
      "constant": true,
      "inputs": [],
      "name": "stopped",
      "outputs": [
        {
          "name": "",
          "type": "bool"
        }
      ],
      "payable": false,
      "stateMutability": "view",
      "type": "function"
    },
    {
      "constant": true,
      "inputs": [],
      "name": "owner",
      "outputs": [
        {
          "name": "",
          "type": "address"
        }
      ],
      "payable": false,
      "stateMutability": "view",
      "type": "function"
    },
    {
      "constant": true,
      "inputs": [],
      "name": "totalSold",
      "outputs": [
        {
          "name": "",
          "type": "uint256"
        }
      ],
      "payable": false,
      "stateMutability": "view",
      "type": "function"
    },
    {
      "constant": false,
      "inputs": [
        {
          "name": "_amount",
          "type": "uint256"
        },
        {
          "name": "_ethAmount",
          "type": "uint256"
        },
        {
          "name": "_tokensAmount",
          "type": "uint256"
        }
      ],
      "name": "notifySale",
      "outputs": [],
      "payable": false,
      "stateMutability": "nonpayable",
      "type": "function"
    },
    {
      "constant": false,
      "inputs": [
        {
          "name": "_startTimestamp",
          "type": "uint256"
        },
        {
          "name": "_endTimestamp",
          "type": "uint256"
        },
        {
          "name": "",
          "type": "address"
        }
      ],
      "name": "start",
      "outputs": [],
      "payable": false,
      "stateMutability": "nonpayable",
      "type": "function"
    },
    {
      "constant": true,
      "inputs": [],
      "name": "endTimestamp",
      "outputs": [
        {
          "name": "",
          "type": "uint256"
        }
      ],
      "payable": false,
      "stateMutability": "view",
      "type": "function"
    },
    {
      "constant": true,
      "inputs": [],
      "name": "releaseTokens",
      "outputs": [],
      "payable": false,
      "stateMutability": "pure",
      "type": "function"
    },
    {
      "constant": false,
      "inputs": [
        {
          "name": "_contract",
          "type": "address"
        },
        {
          "name": "_amount",
          "type": "uint256"
        }
      ],
      "name": "mintTokenRewards",
      "outputs": [],
      "payable": false,
      "stateMutability": "nonpayable",
      "type": "function"
    },
    {
      "constant": false,
      "inputs": [
        {
          "name": "_newManager",
          "type": "address"
        }
      ],
      "name": "transferManager",
      "outputs": [],
      "payable": false,
      "stateMutability": "nonpayable",
      "type": "function"
    },
    {
      "constant": false,
      "inputs": [
        {
          "name": "_startTimestamp",
          "type": "uint256"
        },
        {
          "name": "_endTimestamp",
          "type": "uint256"
        }
      ],
      "name": "setCrowdsalePeriod",
      "outputs": [],
      "payable": false,
      "stateMutability": "nonpayable",
      "type": "function"
    },
    {
      "constant": false,
      "inputs": [],
      "name": "deposit",
      "outputs": [],
      "payable": true,
      "stateMutability": "payable",
      "type": "function"
    },
    {
      "constant": false,
      "inputs": [],
      "name": "finish",
      "outputs": [],
      "payable": false,
      "stateMutability": "nonpayable",
      "type": "function"
    },
    {
      "constant": true,
      "inputs": [],
      "name": "totalCollected",
      "outputs": [
        {
          "name": "",
          "type": "uint256"
        }
      ],
      "payable": false,
      "stateMutability": "view",
      "type": "function"
    },
    {
      "constant": true,
      "inputs": [],
      "name": "startTimestamp",
      "outputs": [
        {
          "name": "",
          "type": "uint256"
        }
      ],
      "payable": false,
      "stateMutability": "view",
      "type": "function"
    },
    {
      "constant": true,
      "inputs": [],
      "name": "isSuccessful",
      "outputs": [
        {
          "name": "",
          "type": "bool"
        }
      ],
      "payable": false,
      "stateMutability": "view",
      "type": "function"
    },
    {
      "constant": false,
      "inputs": [
        {
          "name": "newOwner",
          "type": "address"
        }
      ],
      "name": "transferOwnership",
      "outputs": [],
      "payable": false,
      "stateMutability": "nonpayable",
      "type": "function"
    },
    {
      "constant": true,
      "inputs": [],
      "name": "isFailed",
      "outputs": [
        {
          "name": "",
          "type": "bool"
        }
      ],
      "payable": false,
      "stateMutability": "view",
      "type": "function"
    },
    {
      "constant": true,
      "inputs": [],
      "name": "hardCap",
      "outputs": [
        {
          "name": "",
          "type": "uint256"
        }
      ],
      "payable": false,
      "stateMutability": "view",
      "type": "function"
    },
    {
      "inputs": [
        {
          "name": "_owner",
          "type": "address"
        },
        {
          "name": "_manager",
          "type": "address"
        }
      ],
      "payable": false,
      "stateMutability": "nonpayable",
      "type": "constructor"
    },
    {
      "payable": true,
      "stateMutability": "payable",
      "type": "fallback"
    },
    {
      "anonymous": false,
      "inputs": [
        {
          "indexed": false,
          "name": "startTimestamp",
          "type": "uint256"
        },
        {
          "indexed": false,
          "name": "endTimestamp",
          "type": "uint256"
        },
        {
          "indexed": false,
          "name": "fundingAddress",
          "type": "address"
        }
      ],
      "name": "CROWDSALE_START",
      "type": "event"
    },
    {
      "anonymous": false,
      "inputs": [
        {
          "indexed": false,
          "name": "token",
          "type": "address"
        },
        {
          "indexed": false,
          "name": "decimals",
          "type": "uint8"
        }
      ],
      "name": "CUSTOM_CROWDSALE_TOKEN_ADDED",
      "type": "event"
    },
    {
      "anonymous": false,
      "inputs": [
        {
          "indexed": false,
          "name": "minimalGoal",
          "type": "uint256"
        },
        {
          "indexed": false,
          "name": "hardCap",
          "type": "uint256"
        }
      ],
      "name": "CUSTOM_CROWDSALE_GOAL_ADDED",
      "type": "event"
    },
    {
      "anonymous": false,
      "inputs": [
        {
          "indexed": false,
          "name": "startTimestamp",
          "type": "uint256"
        },
        {
          "indexed": false,
          "name": "endTimestamp",
          "type": "uint256"
        }
      ],
      "name": "CUSTOM_CROWDSALE_PERIOD_ADDED",
      "type": "event"
    },
    {
      "anonymous": false,
      "inputs": [
        {
          "indexed": false,
          "name": "totalCollected",
          "type": "uint256"
        },
        {
          "indexed": false,
          "name": "totalCollectedETH",
          "type": "uint256"
        },
        {
          "indexed": false,
          "name": "totalSold",
          "type": "uint256"
        }
      ],
      "name": "CUSTOM_CROWDSALE_RESULT",
      "type": "event"
    },
    {
      "anonymous": false,
      "inputs": [],
      "name": "CUSTOM_CROWDSALE_FINISH",
      "type": "event"
    },
    {
      "anonymous": false,
      "inputs": [
        {
          "indexed": true,
          "name": "previousOwner",
          "type": "address"
        },
        {
          "indexed": true,
          "name": "newOwner",
          "type": "address"
        }
      ],
      "name": "OwnershipTransferred",
      "type": "event"
    }
  ],
  "bytecode": "0x6060604052341561000f57600080fd5b604051604080611252833981016040528080519190602001805160008054600160a060020a03958616338716600160a060020a031992831617821617909155600180549590921694169390931790925550506111e2806100706000396000f30060606040526004361061017c5763ffffffff60e060020a600035041663058bf214811461017e57806307da68f5146101a5578063101b8a41146101b8578063181956ae146101cb57806318c9ef97146101e45780631f2698ab1461020657806321df0da71461021957806322f3e2d4146102485780633e50de301461025b578063441a3e7014610286578063481c6a751461029f5780635d202249146102b25780636385cbbe146102d757806366829b16146102ea57806375f12b21146103095780638da5cb5b1461031c5780639106d7ba1461032f57806393f33b8814610342578063a51fe1131461035e578063a85adeab14610383578063a96f866814610396578063b23c1f19146103a9578063ba0e930a146103cb578063c8e9d8ac146103ea578063d0e30db0146103a1578063d56b288914610403578063e29eb83614610416578063e6fd48bc14610429578063ec4cd0cf1461043c578063f2fde38b1461044f578063f41633401461046e578063fb86a40414610481575b005b341561018957600080fd5b610191610494565b604051901515815260200160405180910390f35b34156101b057600080fd5b61017c61049f565b34156101c357600080fd5b61019161051f565b34156101d657600080fd5b61017c600435602435610611565b34156101ef57600080fd5b61017c600160a060020a03600435166024356106d4565b341561021157600080fd5b610191610721565b341561022457600080fd5b61022c610731565b604051600160a060020a03909116815260200160405180910390f35b341561025357600080fd5b610191610740565b341561026657600080fd5b61026e61076b565b60405191825260208201526040908101905180910390f35b341561029157600080fd5b61017c600435602435610927565b34156102aa57600080fd5b61022c610ad9565b34156102bd57600080fd5b6102c5610ae8565b60405190815260200160405180910390f35b34156102e257600080fd5b6102c5610aee565b34156102f557600080fd5b61017c600160a060020a0360043516610af4565b341561031457600080fd5b610191610c36565b341561032757600080fd5b61022c610c46565b341561033a57600080fd5b6102c5610c55565b341561034d57600080fd5b61017c600435602435604435610c5b565b341561036957600080fd5b61017c600435602435600160a060020a0360443516610d29565b341561038e57600080fd5b6102c5610e09565b34156103a157600080fd5b61017c610e0f565b34156103b457600080fd5b61017c600160a060020a0360043516602435610e11565b34156103d657600080fd5b61017c600160a060020a0360043516610eaa565b34156103f557600080fd5b61017c600435602435610efc565b341561040e57600080fd5b61017c610fb2565b341561042157600080fd5b6102c56110a7565b341561043457600080fd5b6102c56110ad565b341561044757600080fd5b6101916110b3565b341561045a57600080fd5b61017c600160a060020a03600435166110dc565b341561047957600080fd5b61019161116a565b341561048c57600080fd5b6102c561117a565b600554600254101590565b60015433600160a060020a039081169116146104ba57600080fd5b60015460a860020a900460ff16156104d157600080fd5b60015460a060020a900460ff1615610507576104eb61116a565b156104f557600080fd5b6104fd6110b3565b1561050757600080fd5b6001805460a860020a60ff02191660a860020a179055565b600080600080600061052f61076b565b9094509250600084111561055b5730600160a060020a03163191508382101561055b576000945061060a565b600083111561060557600954600160a060020a0316151561057f576000945061060a565b600954600160a060020a03166370a082313060006040516020015260405160e060020a63ffffffff8416028152600160a060020a039091166004820152602401602060405180830381600087803b15156105d857600080fd5b6102c65a03f115156105e957600080fd5b505050604051805191505082811015610605576000945061060a565b600194505b5050505090565b60005433600160a060020a039081169116148061063c575060015433600160a060020a039081169116145b151561064757600080fd5b60095460a060020a900460ff161561065e57600080fd5b60008211801561066e5750600081115b1561067f5781811161067f57600080fd5b600082111561068e5760058290555b60068190556005547f8a107dbf550ef189cf0475e419d4fb817092ced37114d2b5efe4c816926b27ee908260405191825260208201526040908101905180910390a15050565b60015433600160a060020a039081169116146106ef57600080fd5b81600160a060020a03168160405160006040518083038185876187965a03f192505050151561071d57600080fd5b5050565b60015460a060020a900460ff1681565b600954600160a060020a031690565b60015460009060a060020a900460ff168015610766575060095460a060020a900460ff16155b905090565b6001546000908190819081908190819081908190600160a060020a031663a823cfaf82604051602001526040518163ffffffff1660e060020a028152600401602060405180830381600087803b15156107c357600080fd5b6102c65a03f115156107d457600080fd5b5050506040518051600154909750600160a060020a031690506380fa81b16000604051602001526040518163ffffffff1660e060020a028152600401602060405180830381600087803b151561082957600080fd5b6102c65a03f1151561083a57600080fd5b50505060405180516004549096508615159450620f42409150610863908863ffffffff61118016565b81151561086c57fe5b0491506002549050600354600014151561088557506003545b600154600160a060020a0316633350ae368260006040516020015260405160e060020a63ffffffff84160281526004810191909152602401602060405180830381600087803b15156108d657600080fd5b6102c65a03f115156108e757600080fd5b5050506040518051915050821561091957620f424061090c828763ffffffff61118016565b81151561091557fe5b0493505b509196919550909350505050565b60008054819033600160a060020a0390811691161461094557600080fd5b60095460a060020a900460ff168015610968575060095460a860020a900460ff16155b1561097257600080fd5b600954600160a060020a03308181163194509116906370a082319060006040516020015260405160e060020a63ffffffff8416028152600160a060020a039091166004820152602401602060405180830381600087803b15156109d457600080fd5b6102c65a03f115156109e557600080fd5b5050506040518051915050838210801590610a005750828110155b1515610a0b57600080fd5b6000841115610a4557600160a060020a03331684156108fc0285604051600060405180830381858888f193505050501515610a4557600080fd5b6000831115610ad357600954600160a060020a031663a9059cbb338560006040516020015260405160e060020a63ffffffff8516028152600160a060020a0390921660048301526024820152604401602060405180830381600087803b1515610aad57600080fd5b6102c65a03f11515610abe57600080fd5b505050604051805190501515610ad357600080fd5b50505050565b600154600160a060020a031681565b60035481565b60055481565b6000805433600160a060020a0390811691161480610b20575060015433600160a060020a039081169116145b1515610b2b57600080fd5b60095460a060020a900460ff1615610b4257600080fd5b60098054600160a060020a031916600160a060020a0384811691909117918290551663313ce5676000604051602001526040518163ffffffff1660e060020a028152600401602060405180830381600087803b1515610ba057600080fd5b6102c65a03f11515610bb157600080fd5b5050506040518051915050600860ff821610801590610bd4575060128160ff1611155b1515610bdf57600080fd5b6009547fed6f18557b7914dbfc23d546be65de82017608e11b87429e06c0b88b55f0b6c390600160a060020a031682604051600160a060020a03909216825260ff1660208201526040908101905180910390a15050565b60015460a860020a900460ff1681565b600054600160a060020a031681565b60045481565b60015460a060020a900460ff161515610c7357600080fd5b60015460a860020a900460ff1615610c8a57600080fd5b610c92610740565b1515610c9d57600080fd5b60005433600160a060020a03908116911614610cb857600080fd5b6002839055600382905560048190556009805460b060020a60ff02191660b060020a1790557f10f0b871ca3d096dd779448d14fd988d6ace5dbf13ca227bdc53bbe278a011ba83838360405180848152602001838152602001828152602001935050505060405180910390a1505050565b60015460a060020a900460ff1615610d4057600080fd5b60015460a860020a900460ff1615610d5757600080fd5b60015433600160a060020a03908116911614610d7257600080fd5b600083118015610d825750600082115b15610d9357828211610d9357600080fd5b600783905560088290556001805460a060020a60ff02191660a060020a1790557ffccf552413932efea18979436cc8ce92942bdef118c2b5682351e1891bef8072838360006040519283526020830191909152600160a060020a03166040808301919091526060909101905180910390a1505050565b60085481565b565b60015433600160a060020a03908116911614610e2c57600080fd5b600954600160a060020a031663a9059cbb838360006040516020015260405160e060020a63ffffffff8516028152600160a060020a0390921660048301526024820152604401602060405180830381600087803b1515610e8b57600080fd5b6102c65a03f11515610e9c57600080fd5b505050604051805150505050565b60015433600160a060020a03908116911614610ec557600080fd5b600160a060020a0381161515610eda57600080fd5b60018054600160a060020a031916600160a060020a0392909216919091179055565b60005433600160a060020a0390811691161480610f27575060015433600160a060020a039081169116145b1515610f3257600080fd5b60095460a060020a900460ff1615610f4957600080fd5b600082118015610f595750600081115b15610f6a57818111610f6a57600080fd5b600782905560088190557f70b2168874684694af024b9b82966aedd9e12634e3229136b7d89247b5a2b071828260405191825260208201526040908101905180910390a15050565b60015460a860020a900460ff1615610fc957600080fd5b60015460a060020a900460ff161515610fe157600080fd5b610fe9610740565b1515610ff457600080fd5b60005433600160a060020a0390811691161461100f57600080fd5b60095460b060020a900460ff16151561102757600080fd5b61102f610494565b1515611050576009805460a860020a60ff02191660a860020a179055611063565b61105861051f565b151561106357600080fd5b6009805460a060020a60ff02191660a060020a1790557f256531276449280f5a3022f3024cb03968cf6ab90d6d067e9bc10768bcbcb08060405160405180910390a1565b60025481565b60075481565b60095460009060a060020a900460ff16801561076657505060095460a860020a900460ff161590565b60005433600160a060020a039081169116146110f757600080fd5b600160a060020a038116151561110c57600080fd5b600054600160a060020a0380831691167f8be0079c531659141344cd1fd0a4f28419497f9722a3daafe3b4186f6b6457e060405160405180910390a360008054600160a060020a031916600160a060020a0392909216919091179055565b60095460a860020a900460ff1690565b60065481565b60008083151561119357600091506111af565b508282028284828115156111a357fe5b04146111ab57fe5b8091505b50929150505600a165627a7a7230582099785b3e0ffc41f94efd059d6c3ccd9876bf4fea229f75c0fc12d0be0a552b570029",
  "source": "pragma solidity ^0.4.18;\n\n\nimport './interfaces/IBridge.sol';\n\n\n/*\n    Bridge\n*/\ncontract Bridge is IBridge {\n\n    /**\n     * Constructor.\n     */\n    function Bridge(address _owner, address _manager) public {\n        owner = _owner;\n        manager = _manager;\n    }\n\n    /*\n        Public view\n     */\n\n    function isFailed() public view returns (bool) {\n        return failed;\n    }\n\n    function isActive() public view returns (bool) {\n        return started && !completed;\n    }\n\n    function isSuccessful() public view returns (bool) {\n        return completed && !failed;\n    }\n\n    function reachedMinGoal() public view returns (bool) {\n        return totalCollected >= minimalGoal;\n    }\n\n    function getToken() public view returns (address) {\n        return address(token);\n    }\n\n    /**\n     * Calculate the amount of rewards in ETH and tokens.\n     */\n    function calculateRewards() public view returns (uint256, uint256) {\n        uint256 tokenRewardPart = IWingsController(manager).tokenRewardPart();\n        uint256 ethRewardPart = IWingsController(manager).ethRewardPart();\n        uint256 ethReward;\n        bool hasEthReward = (ethRewardPart != 0);\n\n        uint256 tokenReward = totalSold.mul(tokenRewardPart) / 1000000;\n\n        uint256 totalCollectedCopy = totalCollected;\n\n        if (totalCollectedETH != 0) {\n            totalCollectedCopy = totalCollectedETH;\n        }\n\n        totalCollectedCopy = IWingsController(manager).fitCollectedValueIntoRange(totalCollectedCopy);\n\n        if (hasEthReward) {\n            ethReward = totalCollectedCopy.mul(ethRewardPart) / 1000000;\n        }\n\n        return (ethReward, tokenReward);\n    }\n\n    /**\n     * Check whether rewards are ready to be distributed.\n     */\n    function rewardsAreReady() public view returns (bool) {\n        uint256 ethReward;\n        uint256 tokenReward;\n\n        (ethReward, tokenReward) = calculateRewards();\n\n        // check if there are enough eth rewards on this address\n        if (ethReward > 0) {\n            uint256 ethBalance = address(this).balance;\n\n            if (ethBalance < ethReward) {\n                return false;\n            }\n        }\n\n        // check if there are enough tokens rewards on this address\n        if (tokenReward > 0) {\n            if (address(token) == address(0)) {\n                return false;\n            }\n\n            uint256 tokenBalance = token.balanceOf(address(this));\n\n            if (tokenBalance < tokenReward) {\n                return false;\n            }\n        }\n\n        return true;\n    }\n\n    /*\n        Public\n     */\n\n    /**\n     * Change token address.\n     */\n    function changeToken(address _newToken) public onlyOwnerOrManager() uncompleted() {\n        token = DetailedERC20(_newToken);\n\n        uint8 tokenDecimals = uint8(token.decimals());\n\n        require(tokenDecimals >= 8 && tokenDecimals <= 18);\n\n        CUSTOM_CROWDSALE_TOKEN_ADDED(address(token), tokenDecimals);\n    }\n\n    /**\n     * Set/update crowdsale goal.\n     */\n    function setCrowdsaleGoal(uint256 _minimalGoal, uint256 _hardCap) public onlyOwnerOrManager() uncompleted() {\n        if (_minimalGoal > 0 && _hardCap > 0) {\n            require(_hardCap > _minimalGoal);\n        }\n\n        if (_minimalGoal > 0) {\n            minimalGoal = _minimalGoal;\n        }\n\n        hardCap = _hardCap;\n\n        CUSTOM_CROWDSALE_GOAL_ADDED(minimalGoal, hardCap);\n    }\n\n    /**\n     * Set/update crowdsale period.\n     */\n    function setCrowdsalePeriod(uint256 _startTimestamp, uint256 _endTimestamp) public onlyOwnerOrManager() uncompleted() {\n        if (_startTimestamp > 0 && _endTimestamp > 0) {\n            require(_endTimestamp > _startTimestamp);\n        }\n\n        startTimestamp = _startTimestamp;\n        endTimestamp = _endTimestamp;\n\n        CUSTOM_CROWDSALE_PERIOD_ADDED(startTimestamp, endTimestamp);\n    }\n\n    /**\n     * Update crowdsale information with collected ETH and amount of sold Tokens.\n     */\n    function notifySale(uint256 _amount, uint256 _ethAmount, uint256 _tokensAmount)\n        public\n        hasBeenStarted()\n        hasntStopped()\n        whenCrowdsaleAlive()\n        onlyOwner()\n    {\n        totalCollected = _amount;\n        totalCollectedETH = _ethAmount;\n        totalSold = _tokensAmount;\n\n        notifiedSale = true;\n\n        CUSTOM_CROWDSALE_RESULT(totalCollected, totalCollectedETH, totalSold);\n    }\n\n    /**\n     * Finish crowdsale.\n     */\n    function finish()\n        public\n        hasntStopped()\n        hasBeenStarted()\n        whenCrowdsaleAlive()\n        onlyOwner()\n    {\n        // allow to finish bridge only if owner has communicated crowdsale results\n        require(notifiedSale);\n\n        if (!reachedMinGoal()) {\n            failed = true;\n        } else {\n            // if crowdsale is not failed there should be rewards in order to finish bridge\n            require(rewardsAreReady());\n        }\n\n        completed = true;\n\n        CUSTOM_CROWDSALE_FINISH();\n    }\n\n    /**\n     * Owner can withdraw ETH and WINGS from Bridge contract before crowdsale has finished or failed.\n     */\n    function withdraw(uint256 _ethAmount, uint256 _tokenAmount) public onlyOwner() {\n        if (completed && !failed) {\n            revert();\n        }\n\n        uint256 ethBalance = address(this).balance;\n        uint256 tokenBalance = token.balanceOf(address(this));\n\n        require(ethBalance >= _ethAmount && tokenBalance >= _tokenAmount);\n\n        if (_ethAmount > 0) {\n            msg.sender.transfer(_ethAmount);\n        }\n\n        if (_tokenAmount > 0) {\n            require(token.transfer(msg.sender, _tokenAmount));\n        }\n    }\n\n    /*\n        Only manager\n     */\n\n    // Validates parameters and starts crowdsale\n    // called by IWingsController\n    function start(\n        uint256 _startTimestamp,\n        uint256 _endTimestamp,\n        address /*_fundingAddress*/\n    )\n        public\n        hasntStarted()\n        hasntStopped()\n        onlyManager()\n    {\n        if (_startTimestamp > 0 && _endTimestamp > 0) {\n            require(_endTimestamp > _startTimestamp);\n        }\n\n        startTimestamp = _startTimestamp;\n        endTimestamp = _endTimestamp;\n\n        started = true;\n\n        CROWDSALE_START(_startTimestamp, _endTimestamp, address(0));\n    }\n\n    // Transfer Token rewards to Forecasting contract.\n    // called by IWingsController\n    // 'mint' prefix is a legacy.\n    function mintTokenRewards(address _contract, uint256 _amount) public onlyManager() {\n        token.transfer(_contract, _amount);\n    }\n\n    // Transfer ETH rewards to Forecasting contract.\n    // called by IWingsController\n    // 'mint' prefix is a legacy.\n    function mintETHRewards(address _contract, uint256 _amount) public onlyManager() {\n        require(_contract.call.value(_amount)());\n    }\n\n    // cancels crowdsale\n    function stop() public onlyManager() hasntStopped() {\n        if (started) {\n            require(!isFailed());\n            require(!isSuccessful());\n        }\n        stopped = true;\n    }\n\n    /**\n     * Fallback function.\n     */\n    function() public payable {}\n}\n",
  "sourcePath": "/Users/solidity/Desktop/wings/wings-light-bridge/contracts/Bridge.sol",
  "compiler": {
    "name": "solc",
    "version": "0.4.18+commit.9cf6e910.Emscripten.clang"
  },
  "schemaVersion": "1.0.1",
  "updatedAt": "2019-01-11T15:29:52.241Z"
}