{
  "contractName": "Bridge",
  "abi": [
    {
      "constant": true,
      "inputs": [],
      "name": "started",
      "outputs": [
        {
          "name": "",
          "type": "bool"
        }
      ],
      "payable": false,
      "stateMutability": "view",
      "type": "function"
    },
    {
      "constant": true,
      "inputs": [],
      "name": "manager",
      "outputs": [
        {
          "name": "",
          "type": "address"
        }
      ],
      "payable": false,
      "stateMutability": "view",
      "type": "function"
    },
    {
      "constant": true,
      "inputs": [],
      "name": "totalCollectedETH",
      "outputs": [
        {
          "name": "",
          "type": "uint256"
        }
      ],
      "payable": false,
      "stateMutability": "view",
      "type": "function"
    },
    {
      "constant": true,
      "inputs": [],
      "name": "minimalGoal",
      "outputs": [
        {
          "name": "",
          "type": "uint256"
        }
      ],
      "payable": false,
      "stateMutability": "view",
      "type": "function"
    },
    {
      "constant": true,
      "inputs": [],
      "name": "stopped",
      "outputs": [
        {
          "name": "",
          "type": "bool"
        }
      ],
      "payable": false,
      "stateMutability": "view",
      "type": "function"
    },
    {
      "constant": true,
      "inputs": [],
      "name": "owner",
      "outputs": [
        {
          "name": "",
          "type": "address"
        }
      ],
      "payable": false,
      "stateMutability": "view",
      "type": "function"
    },
    {
      "constant": true,
      "inputs": [],
      "name": "totalSold",
      "outputs": [
        {
          "name": "",
          "type": "uint256"
        }
      ],
      "payable": false,
      "stateMutability": "view",
      "type": "function"
    },
    {
      "constant": true,
      "inputs": [],
      "name": "endTimestamp",
      "outputs": [
        {
          "name": "",
          "type": "uint256"
        }
      ],
      "payable": false,
      "stateMutability": "view",
      "type": "function"
    },
    {
      "constant": false,
      "inputs": [],
      "name": "releaseTokens",
      "outputs": [],
      "payable": false,
      "stateMutability": "nonpayable",
      "type": "function"
    },
    {
      "constant": false,
      "inputs": [
        {
          "name": "_newManager",
          "type": "address"
        }
      ],
      "name": "transferManager",
      "outputs": [],
      "payable": false,
      "stateMutability": "nonpayable",
      "type": "function"
    },
    {
      "constant": false,
      "inputs": [],
      "name": "deposit",
      "outputs": [],
      "payable": true,
      "stateMutability": "payable",
      "type": "function"
    },
    {
      "constant": true,
      "inputs": [],
      "name": "totalCollected",
      "outputs": [
        {
          "name": "",
          "type": "uint256"
        }
      ],
      "payable": false,
      "stateMutability": "view",
      "type": "function"
    },
    {
      "constant": true,
      "inputs": [],
      "name": "startTimestamp",
      "outputs": [
        {
          "name": "",
          "type": "uint256"
        }
      ],
      "payable": false,
      "stateMutability": "view",
      "type": "function"
    },
    {
      "constant": false,
      "inputs": [
        {
          "name": "newOwner",
          "type": "address"
        }
      ],
      "name": "transferOwnership",
      "outputs": [],
      "payable": false,
      "stateMutability": "nonpayable",
      "type": "function"
    },
    {
      "constant": true,
      "inputs": [],
      "name": "hardCap",
      "outputs": [
        {
          "name": "",
          "type": "uint256"
        }
      ],
      "payable": false,
      "stateMutability": "view",
      "type": "function"
    },
    {
      "inputs": [
        {
          "name": "_owner",
          "type": "address"
        },
        {
          "name": "_manager",
          "type": "address"
        }
      ],
      "payable": false,
      "stateMutability": "nonpayable",
      "type": "constructor"
    },
    {
      "payable": true,
      "stateMutability": "payable",
      "type": "fallback"
    },
    {
      "anonymous": false,
      "inputs": [
        {
          "indexed": false,
          "name": "startTimestamp",
          "type": "uint256"
        },
        {
          "indexed": false,
          "name": "endTimestamp",
          "type": "uint256"
        },
        {
          "indexed": false,
          "name": "fundingAddress",
          "type": "address"
        }
      ],
      "name": "CROWDSALE_START",
      "type": "event"
    },
    {
      "anonymous": false,
      "inputs": [
        {
          "indexed": false,
          "name": "token",
          "type": "address"
        },
        {
          "indexed": false,
          "name": "decimals",
          "type": "uint8"
        }
      ],
      "name": "CUSTOM_CROWDSALE_TOKEN_ADDED",
      "type": "event"
    },
    {
      "anonymous": false,
      "inputs": [
        {
          "indexed": false,
          "name": "minimalGoal",
          "type": "uint256"
        },
        {
          "indexed": false,
          "name": "hardCap",
          "type": "uint256"
        }
      ],
      "name": "CUSTOM_CROWDSALE_GOAL_ADDED",
      "type": "event"
    },
    {
      "anonymous": false,
      "inputs": [
        {
          "indexed": false,
          "name": "startTimestamp",
          "type": "uint256"
        },
        {
          "indexed": false,
          "name": "endTimestamp",
          "type": "uint256"
        }
      ],
      "name": "CUSTOM_CROWDSALE_PERIOD_ADDED",
      "type": "event"
    },
    {
      "anonymous": false,
      "inputs": [],
      "name": "CUSTOM_CROWDSALE_FINISH",
      "type": "event"
    },
    {
      "anonymous": false,
      "inputs": [
        {
          "indexed": true,
          "name": "previousOwner",
          "type": "address"
        },
        {
          "indexed": true,
          "name": "newOwner",
          "type": "address"
        }
      ],
      "name": "OwnershipTransferred",
      "type": "event"
    },
    {
      "constant": true,
      "inputs": [],
      "name": "getToken",
      "outputs": [
        {
          "name": "",
          "type": "address"
        }
      ],
      "payable": false,
      "stateMutability": "view",
      "type": "function"
    },
    {
      "constant": false,
      "inputs": [
        {
          "name": "_contract",
          "type": "address"
        },
        {
          "name": "_amount",
          "type": "uint256"
        }
      ],
      "name": "mintTokenRewards",
      "outputs": [],
      "payable": false,
      "stateMutability": "nonpayable",
      "type": "function"
    },
    {
      "constant": false,
      "inputs": [
        {
          "name": "_contract",
          "type": "address"
        },
        {
          "name": "_amount",
          "type": "uint256"
        }
      ],
      "name": "mintETHRewards",
      "outputs": [],
      "payable": false,
      "stateMutability": "nonpayable",
      "type": "function"
    },
    {
      "constant": false,
      "inputs": [],
      "name": "stop",
      "outputs": [],
      "payable": false,
      "stateMutability": "nonpayable",
      "type": "function"
    },
    {
      "constant": false,
      "inputs": [
        {
          "name": "_amount",
          "type": "uint256"
        },
        {
          "name": "_ethAmount",
          "type": "uint256"
        },
        {
          "name": "_tokensAmount",
          "type": "uint256"
        }
      ],
      "name": "notifySale",
      "outputs": [],
      "payable": false,
      "stateMutability": "nonpayable",
      "type": "function"
    },
    {
      "constant": false,
      "inputs": [
        {
          "name": "_startTimestamp",
          "type": "uint256"
        },
        {
          "name": "_endTimestamp",
          "type": "uint256"
        },
        {
          "name": "_fundingAddress",
          "type": "address"
        }
      ],
      "name": "start",
      "outputs": [],
      "payable": false,
      "stateMutability": "nonpayable",
      "type": "function"
    },
    {
      "constant": false,
      "inputs": [],
      "name": "finish",
      "outputs": [],
      "payable": false,
      "stateMutability": "nonpayable",
      "type": "function"
    },
    {
      "constant": true,
      "inputs": [],
      "name": "isFailed",
      "outputs": [
        {
          "name": "",
          "type": "bool"
        }
      ],
      "payable": false,
      "stateMutability": "view",
      "type": "function"
    },
    {
      "constant": true,
      "inputs": [],
      "name": "isActive",
      "outputs": [
        {
          "name": "",
          "type": "bool"
        }
      ],
      "payable": false,
      "stateMutability": "view",
      "type": "function"
    },
    {
      "constant": true,
      "inputs": [],
      "name": "isSuccessful",
      "outputs": [
        {
          "name": "",
          "type": "bool"
        }
      ],
      "payable": false,
      "stateMutability": "view",
      "type": "function"
    },
    {
      "constant": true,
      "inputs": [],
      "name": "calculateRewards",
      "outputs": [
        {
          "name": "",
          "type": "uint256"
        },
        {
          "name": "",
          "type": "uint256"
        }
      ],
      "payable": false,
      "stateMutability": "view",
      "type": "function"
    },
    {
      "constant": false,
      "inputs": [
        {
          "name": "_newToken",
          "type": "address"
        }
      ],
      "name": "changeToken",
      "outputs": [],
      "payable": false,
      "stateMutability": "nonpayable",
      "type": "function"
    },
    {
      "constant": false,
      "inputs": [
        {
          "name": "_minimalGoal",
          "type": "uint256"
        },
        {
          "name": "_hardCap",
          "type": "uint256"
        }
      ],
      "name": "setCrowdsaleGoal",
      "outputs": [],
      "payable": false,
      "stateMutability": "nonpayable",
      "type": "function"
    },
    {
      "constant": false,
      "inputs": [
        {
          "name": "_startTimestamp",
          "type": "uint256"
        },
        {
          "name": "_endTimestamp",
          "type": "uint256"
        }
      ],
      "name": "setCrowdsalePeriod",
      "outputs": [],
      "payable": false,
      "stateMutability": "nonpayable",
      "type": "function"
    },
    {
      "constant": false,
      "inputs": [],
      "name": "withdraw",
      "outputs": [],
      "payable": false,
      "stateMutability": "nonpayable",
      "type": "function"
    }
  ],
  "bytecode": "0x608060405234801561001057600080fd5b50604051604080611e7c8339810180604052810190808051906020019092919080519060200190929190505050336000806101000a81548173ffffffffffffffffffffffffffffffffffffffff021916908373ffffffffffffffffffffffffffffffffffffffff160217905550816000806101000a81548173ffffffffffffffffffffffffffffffffffffffff021916908373ffffffffffffffffffffffffffffffffffffffff16021790555080600160006101000a81548173ffffffffffffffffffffffffffffffffffffffff021916908373ffffffffffffffffffffffffffffffffffffffff1602179055505050611d6d8061010f6000396000f300608060405260043610610180576000357c0100000000000000000000000000000000000000000000000000000000900463ffffffff16806307da68f514610182578063181956ae1461019957806318c9ef97146101d05780631f2698ab1461021d57806321df0da71461024c57806322f3e2d4146102a35780633ccfd60b146102d25780633e50de30146102e9578063481c6a751461031b5780635d202249146103725780636385cbbe1461039d57806366829b16146103c857806375f12b211461040b5780638da5cb5b1461043a5780639106d7ba1461049157806393f33b88146104bc578063a51fe113146104fd578063a85adeab14610554578063a96f86681461057f578063b23c1f1914610596578063ba0e930a146105e3578063c8e9d8ac14610626578063d0e30db01461065d578063d56b288914610667578063e29eb8361461067e578063e6fd48bc146106a9578063ec4cd0cf146106d4578063f2fde38b14610703578063f416334014610746578063fb86a40414610775575b005b34801561018e57600080fd5b506101976107a0565b005b3480156101a557600080fd5b506101ce6004803603810190808035906020019092919080359060200190929190505050610872565b005b3480156101dc57600080fd5b5061021b600480360381019080803573ffffffffffffffffffffffffffffffffffffffff169060200190929190803590602001909291905050506109ae565b005b34801561022957600080fd5b50610232610a45565b604051808215151515815260200191505060405180910390f35b34801561025857600080fd5b50610261610a58565b604051808273ffffffffffffffffffffffffffffffffffffffff1673ffffffffffffffffffffffffffffffffffffffff16815260200191505060405180910390f35b3480156102af57600080fd5b506102b8610a82565b604051808215151515815260200191505060405180910390f35b3480156102de57600080fd5b506102e7610ab2565b005b3480156102f557600080fd5b506102fe610da3565b604051808381526020018281526020019250505060405180910390f35b34801561032757600080fd5b50610330611085565b604051808273ffffffffffffffffffffffffffffffffffffffff1673ffffffffffffffffffffffffffffffffffffffff16815260200191505060405180910390f35b34801561037e57600080fd5b506103876110ab565b6040518082815260200191505060405180910390f35b3480156103a957600080fd5b506103b26110b1565b6040518082815260200191505060405180910390f35b3480156103d457600080fd5b50610409600480360381019080803573ffffffffffffffffffffffffffffffffffffffff1690602001909291905050506110b7565b005b34801561041757600080fd5b50610420611346565b604051808215151515815260200191505060405180910390f35b34801561044657600080fd5b5061044f611359565b604051808273ffffffffffffffffffffffffffffffffffffffff1673ffffffffffffffffffffffffffffffffffffffff16815260200191505060405180910390f35b34801561049d57600080fd5b506104a661137e565b6040518082815260200191505060405180910390f35b3480156104c857600080fd5b506104fb600480360381019080803590602001909291908035906020019092919080359060200190929190505050611384565b005b34801561050957600080fd5b506105526004803603810190808035906020019092919080359060200190929190803573ffffffffffffffffffffffffffffffffffffffff16906020019092919050505061147f565b005b34801561056057600080fd5b506105696115a6565b6040518082815260200191505060405180910390f35b34801561058b57600080fd5b506105946115ac565b005b3480156105a257600080fd5b506105e1600480360381019080803573ffffffffffffffffffffffffffffffffffffffff169060200190929190803590602001909291905050506115ae565b005b3480156105ef57600080fd5b50610624600480360381019080803573ffffffffffffffffffffffffffffffffffffffff16906020019092919050505061170f565b005b34801561063257600080fd5b5061065b60048036038101908080359060200190929190803590602001909291905050506117eb565b005b610665611929565b005b34801561067357600080fd5b5061067c61192b565b005b34801561068a57600080fd5b50610693611b62565b6040518082815260200191505060405180910390f35b3480156106b557600080fd5b506106be611b68565b6040518082815260200191505060405180910390f35b3480156106e057600080fd5b506106e9611b6e565b604051808215151515815260200191505060405180910390f35b34801561070f57600080fd5b50610744600480360381019080803573ffffffffffffffffffffffffffffffffffffffff169060200190929190505050611b85565b005b34801561075257600080fd5b5061075b611cda565b604051808215151515815260200191505060405180910390f35b34801561078157600080fd5b5061078a611ce2565b6040518082815260200191505060405180910390f35b600160009054906101000a900473ffffffffffffffffffffffffffffffffffffffff1673ffffffffffffffffffffffffffffffffffffffff163373ffffffffffffffffffffffffffffffffffffffff161415156107fc57600080fd5b600160159054906101000a900460ff1615151561081857600080fd5b600160149054906101000a900460ff161561085657610835611cda565b15151561084157600080fd5b610849611b6e565b15151561085557600080fd5b5b60018060156101000a81548160ff021916908315150217905550565b6000809054906101000a900473ffffffffffffffffffffffffffffffffffffffff1673ffffffffffffffffffffffffffffffffffffffff163373ffffffffffffffffffffffffffffffffffffffff16148061091a5750600160009054906101000a900473ffffffffffffffffffffffffffffffffffffffff1673ffffffffffffffffffffffffffffffffffffffff163373ffffffffffffffffffffffffffffffffffffffff16145b151561092557600080fd5b600960149054906101000a900460ff1615151561094157600080fd5b818111151561094f57600080fd5b600082111561096057816005819055505b806006819055507f8a107dbf550ef189cf0475e419d4fb817092ced37114d2b5efe4c816926b27ee600554600654604051808381526020018281526020019250505060405180910390a15050565b600160009054906101000a900473ffffffffffffffffffffffffffffffffffffffff1673ffffffffffffffffffffffffffffffffffffffff163373ffffffffffffffffffffffffffffffffffffffff16141515610a0a57600080fd5b8173ffffffffffffffffffffffffffffffffffffffff168160405160006040518083038185875af1925050501515610a4157600080fd5b5050565b600160149054906101000a900460ff1681565b6000600960009054906101000a900473ffffffffffffffffffffffffffffffffffffffff16905090565b6000600160149054906101000a900460ff168015610aad5750600960149054906101000a900460ff16155b905090565b6000806000809054906101000a900473ffffffffffffffffffffffffffffffffffffffff1673ffffffffffffffffffffffffffffffffffffffff163373ffffffffffffffffffffffffffffffffffffffff16141515610b1057600080fd5b600960149054906101000a900460ff16151515610b2c57600080fd5b3073ffffffffffffffffffffffffffffffffffffffff16319150600960009054906101000a900473ffffffffffffffffffffffffffffffffffffffff1673ffffffffffffffffffffffffffffffffffffffff166370a08231306040518263ffffffff167c0100000000000000000000000000000000000000000000000000000000028152600401808273ffffffffffffffffffffffffffffffffffffffff1673ffffffffffffffffffffffffffffffffffffffff168152602001915050602060405180830381600087803b158015610c0357600080fd5b505af1158015610c17573d6000803e3d6000fd5b505050506040513d6020811015610c2d57600080fd5b810190808051906020019092919050505090506000821115610c8a573373ffffffffffffffffffffffffffffffffffffffff166108fc839081150290604051600060405180830381858888f193505050501515610c8957600080fd5b5b6000811115610d9f57600960009054906101000a900473ffffffffffffffffffffffffffffffffffffffff1673ffffffffffffffffffffffffffffffffffffffff1663a9059cbb33836040518363ffffffff167c0100000000000000000000000000000000000000000000000000000000028152600401808373ffffffffffffffffffffffffffffffffffffffff1673ffffffffffffffffffffffffffffffffffffffff16815260200182815260200192505050602060405180830381600087803b158015610d5857600080fd5b505af1158015610d6c573d6000803e3d6000fd5b505050506040513d6020811015610d8257600080fd5b81019080805190602001909291905050501515610d9e57600080fd5b5b5050565b6000806000806000806000600160009054906101000a900473ffffffffffffffffffffffffffffffffffffffff1673ffffffffffffffffffffffffffffffffffffffff1663a823cfaf6040518163ffffffff167c0100000000000000000000000000000000000000000000000000000000028152600401602060405180830381600087803b158015610e3457600080fd5b505af1158015610e48573d6000803e3d6000fd5b505050506040513d6020811015610e5e57600080fd5b81019080805190602001909291905050509450600160009054906101000a900473ffffffffffffffffffffffffffffffffffffffff1673ffffffffffffffffffffffffffffffffffffffff166380fa81b16040518163ffffffff167c0100000000000000000000000000000000000000000000000000000000028152600401602060405180830381600087803b158015610ef757600080fd5b505af1158015610f0b573d6000803e3d6000fd5b505050506040513d6020811015610f2157600080fd5b8101908080519060200190929190505050935060008414159150620f4240610f5486600454611ce890919063ffffffff16565b811515610f5d57fe5b0490506000600354141515610f76576003546002819055505b600160009054906101000a900473ffffffffffffffffffffffffffffffffffffffff1673ffffffffffffffffffffffffffffffffffffffff16633350ae366002546040518263ffffffff167c010000000000000000000000000000000000000000000000000000000002815260040180828152602001915050602060405180830381600087803b15801561100957600080fd5b505af115801561101d573d6000803e3d6000fd5b505050506040513d602081101561103357600080fd5b8101908080519060200190929190505050600281905550811561107657620f424061106985600254611ce890919063ffffffff16565b81151561107257fe5b0492505b82819650965050505050509091565b600160009054906101000a900473ffffffffffffffffffffffffffffffffffffffff1681565b60035481565b60055481565b60008060009054906101000a900473ffffffffffffffffffffffffffffffffffffffff1673ffffffffffffffffffffffffffffffffffffffff163373ffffffffffffffffffffffffffffffffffffffff1614806111615750600160009054906101000a900473ffffffffffffffffffffffffffffffffffffffff1673ffffffffffffffffffffffffffffffffffffffff163373ffffffffffffffffffffffffffffffffffffffff16145b151561116c57600080fd5b600960149054906101000a900460ff1615151561118857600080fd5b81600960006101000a81548173ffffffffffffffffffffffffffffffffffffffff021916908373ffffffffffffffffffffffffffffffffffffffff160217905550600960009054906101000a900473ffffffffffffffffffffffffffffffffffffffff1673ffffffffffffffffffffffffffffffffffffffff1663313ce5676040518163ffffffff167c0100000000000000000000000000000000000000000000000000000000028152600401602060405180830381600087803b15801561124f57600080fd5b505af1158015611263573d6000803e3d6000fd5b505050506040513d602081101561127957600080fd5b8101908080519060200190929190505050905060088160ff16101580156112a4575060128160ff1611155b15156112af57600080fd5b7fed6f18557b7914dbfc23d546be65de82017608e11b87429e06c0b88b55f0b6c3600960009054906101000a900473ffffffffffffffffffffffffffffffffffffffff1682604051808373ffffffffffffffffffffffffffffffffffffffff1673ffffffffffffffffffffffffffffffffffffffff1681526020018260ff1660ff1681526020019250505060405180910390a15050565b600160159054906101000a900460ff1681565b6000809054906101000a900473ffffffffffffffffffffffffffffffffffffffff1681565b60045481565b600160149054906101000a900460ff16151561139f57600080fd5b600160159054906101000a900460ff161515156113bb57600080fd5b6113c3610a82565b15156113ce57600080fd5b6000809054906101000a900473ffffffffffffffffffffffffffffffffffffffff1673ffffffffffffffffffffffffffffffffffffffff163373ffffffffffffffffffffffffffffffffffffffff1614151561142957600080fd5b61143e83600254611d2390919063ffffffff16565b60028190555061145982600354611d2390919063ffffffff16565b60038190555061147481600454611d2390919063ffffffff16565b600481905550505050565b600160149054906101000a900460ff1615151561149b57600080fd5b600160159054906101000a900460ff161515156114b757600080fd5b600160009054906101000a900473ffffffffffffffffffffffffffffffffffffffff1673ffffffffffffffffffffffffffffffffffffffff163373ffffffffffffffffffffffffffffffffffffffff1614151561151357600080fd5b60018060146101000a81548160ff0219169083151502179055507ffccf552413932efea18979436cc8ce92942bdef118c2b5682351e1891bef807283836000604051808481526020018381526020018273ffffffffffffffffffffffffffffffffffffffff1673ffffffffffffffffffffffffffffffffffffffff168152602001935050505060405180910390a1505050565b60085481565b565b600160009054906101000a900473ffffffffffffffffffffffffffffffffffffffff1673ffffffffffffffffffffffffffffffffffffffff163373ffffffffffffffffffffffffffffffffffffffff1614151561160a57600080fd5b600960009054906101000a900473ffffffffffffffffffffffffffffffffffffffff1673ffffffffffffffffffffffffffffffffffffffff1663a9059cbb83836040518363ffffffff167c0100000000000000000000000000000000000000000000000000000000028152600401808373ffffffffffffffffffffffffffffffffffffffff1673ffffffffffffffffffffffffffffffffffffffff16815260200182815260200192505050602060405180830381600087803b1580156116cf57600080fd5b505af11580156116e3573d6000803e3d6000fd5b505050506040513d60208110156116f957600080fd5b8101908080519060200190929190505050505050565b600160009054906101000a900473ffffffffffffffffffffffffffffffffffffffff1673ffffffffffffffffffffffffffffffffffffffff163373ffffffffffffffffffffffffffffffffffffffff1614151561176b57600080fd5b600073ffffffffffffffffffffffffffffffffffffffff168173ffffffffffffffffffffffffffffffffffffffff16141515156117a757600080fd5b80600160006101000a81548173ffffffffffffffffffffffffffffffffffffffff021916908373ffffffffffffffffffffffffffffffffffffffff16021790555050565b6000809054906101000a900473ffffffffffffffffffffffffffffffffffffffff1673ffffffffffffffffffffffffffffffffffffffff163373ffffffffffffffffffffffffffffffffffffffff1614806118935750600160009054906101000a900473ffffffffffffffffffffffffffffffffffffffff1673ffffffffffffffffffffffffffffffffffffffff163373ffffffffffffffffffffffffffffffffffffffff16145b151561189e57600080fd5b600960149054906101000a900460ff161515156118ba57600080fd5b6000821180156118c957508181115b15156118d457600080fd5b81600781905550806008819055507f70b2168874684694af024b9b82966aedd9e12634e3229136b7d89247b5a2b071600754600854604051808381526020018281526020019250505060405180910390a15050565b565b600080600080600160159054906101000a900460ff1615151561194d57600080fd5b600160149054906101000a900460ff16151561196857600080fd5b611970610a82565b151561197b57600080fd5b6000809054906101000a900473ffffffffffffffffffffffffffffffffffffffff1673ffffffffffffffffffffffffffffffffffffffff163373ffffffffffffffffffffffffffffffffffffffff161415156119d657600080fd5b3073ffffffffffffffffffffffffffffffffffffffff16319350600960009054906101000a900473ffffffffffffffffffffffffffffffffffffffff1673ffffffffffffffffffffffffffffffffffffffff166370a08231306040518263ffffffff167c0100000000000000000000000000000000000000000000000000000000028152600401808273ffffffffffffffffffffffffffffffffffffffff1673ffffffffffffffffffffffffffffffffffffffff168152602001915050602060405180830381600087803b158015611aad57600080fd5b505af1158015611ac1573d6000803e3d6000fd5b505050506040513d6020811015611ad757600080fd5b81019080805190602001909291905050509250611af2610da3565b8092508193505050818410158015611b0a5750808310155b1515611b1557600080fd5b6001600960146101000a81548160ff0219169083151502179055507f256531276449280f5a3022f3024cb03968cf6ab90d6d067e9bc10768bcbcb08060405160405180910390a150505050565b60025481565b60075481565b6000600960149054906101000a900460ff16905090565b6000809054906101000a900473ffffffffffffffffffffffffffffffffffffffff1673ffffffffffffffffffffffffffffffffffffffff163373ffffffffffffffffffffffffffffffffffffffff16141515611be057600080fd5b600073ffffffffffffffffffffffffffffffffffffffff168173ffffffffffffffffffffffffffffffffffffffff1614151515611c1c57600080fd5b8073ffffffffffffffffffffffffffffffffffffffff166000809054906101000a900473ffffffffffffffffffffffffffffffffffffffff1673ffffffffffffffffffffffffffffffffffffffff167f8be0079c531659141344cd1fd0a4f28419497f9722a3daafe3b4186f6b6457e060405160405180910390a3806000806101000a81548173ffffffffffffffffffffffffffffffffffffffff021916908373ffffffffffffffffffffffffffffffffffffffff16021790555050565b600080905090565b60065481565b6000806000841415611cfd5760009150611d1c565b8284029050828482811515611d0e57fe5b04141515611d1857fe5b8091505b5092915050565b6000808284019050838110151515611d3757fe5b80915050929150505600a165627a7a723058209c99cdc7be5d2e228f3e39bac1c084487388ed493ca3fef7b49bf5c6b804fd350029",
  "source": "pragma solidity ^0.4.18;\n\n\nimport 'zeppelin-solidity/contracts/math/SafeMath.sol';\nimport 'zeppelin-solidity/contracts/token/DetailedERC20.sol';\n\nimport './interfaces/IWingsController.sol';\nimport './interfaces/IBridge.sol';\n\n\n/*\n  Standalone Bridge\n*/\ncontract Bridge is IBridge {\n\n  using SafeMath for uint256;\n\n  event CROWDSALE_START(uint256 startTimestamp, uint256 endTimestamp, address fundingAddress);\n  event CUSTOM_CROWDSALE_TOKEN_ADDED(address token, uint8 decimals);\n  event CUSTOM_CROWDSALE_GOAL_ADDED(uint256 minimalGoal, uint256 hardCap);\n  event CUSTOM_CROWDSALE_PERIOD_ADDED(uint256 startTimestamp, uint256 endTimestamp);\n  event CUSTOM_CROWDSALE_FINISH();\n\n  modifier onlyOwnerOrManager() {\n    require(msg.sender == owner || msg.sender == manager);\n    _;\n  }\n\n  modifier uncompleted() {\n    require(!completed);\n    _;\n  }\n\n  // Crowdsale token must be ERC20-compliant\n  DetailedERC20 token;\n\n  // Crowdsale state\n  bool completed;\n\n  // Constructor\n  function Bridge(\n    address _owner,\n    address _manager\n  )\n    public\n  {\n    owner = _owner;\n    manager = _manager;\n  }\n\n  /*\n     Here goes ICrowdsaleProcessor methods implementation\n  */\n\n  // Returns address of crowdsale token\n  function getToken()\n    public\n    view\n    returns (address)\n  {\n    return address(token);\n  }\n\n  // Mints token Rewards to Forecasting contract\n  // called by IWingsController\n  function mintTokenRewards(\n    address _contract,\n    uint256 _amount    // agreed part of totalSold which is intended for rewards\n  )\n    public\n    onlyManager()\n  {\n    // in our example we are transferring tokens instead of minting them\n    token.transfer(_contract, _amount);\n  }\n\n  // called by CrowdsaleController to transfer reward part of ETH\n  // collected by successful crowdsale to Forecasting contract.\n  // This call is made upon closing successful crowdfunding process\n  // iff agreed ETH reward part is not zero\n  function mintETHRewards(\n    address _contract,  // Forecasting contract\n    uint256 _amount     // agreed part of totalCollected which is intended for rewards\n  )\n    public\n    onlyManager() // manager is CrowdsaleController instance\n  {\n    require(_contract.call.value(_amount)());\n  }\n\n  // cancels crowdsale\n  function stop() public onlyManager() hasntStopped()  {\n    // we can stop only not started and not completed crowdsale\n    if (started) {\n      require(!isFailed());\n      require(!isSuccessful());\n    }\n    stopped = true;\n  }\n\n  /*\n     Crowdsale methods implementation\n  */\n\n  // Fallback payable function\n  function() public payable {\n  }\n\n  // Update information about collected ETH and sold tokens amount\n  function notifySale(uint256 _amount, uint256 _ethAmount, uint256 _tokensAmount)\n    public\n    hasBeenStarted()\n    hasntStopped()\n    whenCrowdsaleAlive()\n    onlyOwner()\n  {\n    totalCollected = totalCollected.add(_amount);\n    totalCollectedETH = totalCollectedETH.add(_ethAmount);\n    totalSold = totalSold.add(_tokensAmount);\n  }\n\n  // Validates parameters and starts crowdsale\n  // called by IWingsController\n  function start(\n    uint256 _startTimestamp,\n    uint256 _endTimestamp,\n    address _fundingAddress\n  )\n    public\n    hasntStarted()\n    hasntStopped()\n    onlyManager()\n  {\n    started = true;\n\n    CROWDSALE_START(_startTimestamp, _endTimestamp, address(0));\n  }\n\n  // Finish crowdsale\n  function finish()\n    public\n    hasntStopped()\n    hasBeenStarted()\n    whenCrowdsaleAlive()\n    onlyOwner()\n  {\n    uint256 ethBalance = address(this).balance;\n    uint256 tokenBalance = token.balanceOf(address(this));\n\n    uint256 ethReward;\n    uint256 tokenReward;\n\n    (ethReward, tokenReward) = calculateRewards();\n\n    require(ethBalance >= ethReward && tokenBalance >= tokenReward);\n\n    completed = true;\n\n    CUSTOM_CROWDSALE_FINISH();\n  }\n\n  function isFailed()\n    public\n    view\n    returns (bool)\n  {\n    return (false);\n  }\n\n  function isActive()\n    public\n    view\n    returns (bool)\n  {\n    return (started && !completed);\n  }\n\n  function isSuccessful()\n    public\n    view\n    returns (bool)\n  {\n    return (completed);\n  }\n\n  // Find out the amount of rewards in ETH and tokens\n  function calculateRewards() public view returns (uint256, uint256) {\n    uint256 tokenRewardPart = IWingsController(manager).tokenRewardPart();\n    uint256 ethRewardPart = IWingsController(manager).ethRewardPart();\n    uint256 ethReward;\n    bool hasEthReward = (ethRewardPart != 0);\n\n    uint256 tokenReward = totalSold.mul(tokenRewardPart) / 1000000;\n\n    if (totalCollectedETH != 0) {\n      totalCollected = totalCollectedETH;\n    }\n\n    totalCollected = IWingsController(manager).fitCollectedValueIntoRange(totalCollected);\n\n    if (hasEthReward) {\n      ethReward = totalCollected.mul(ethRewardPart) / 1000000;\n    }\n\n    return (ethReward, tokenReward);\n  }\n\n  // Change token address (in case you've used the dafault token address during bridge deployment)\n  function changeToken(address _newToken) public onlyOwnerOrManager() uncompleted() {\n    token = DetailedERC20(_newToken);\n\n    uint8 tokenDecimals = uint8(token.decimals());\n\n    require(tokenDecimals >= 8 && tokenDecimals <= 18);\n\n    CUSTOM_CROWDSALE_TOKEN_ADDED(address(token), tokenDecimals);\n  }\n\n  // Set/update crowdsale goal\n  function setCrowdsaleGoal(uint256 _minimalGoal, uint256 _hardCap) public onlyOwnerOrManager() uncompleted() {\n    require(_hardCap > _minimalGoal);\n\n    if (_minimalGoal > 0) {\n      minimalGoal = _minimalGoal;\n    }\n\n    hardCap = _hardCap;\n\n    CUSTOM_CROWDSALE_GOAL_ADDED(minimalGoal, hardCap);\n  }\n\n  // Set/update crowdsale period\n  function setCrowdsalePeriod(uint256 _startTimestamp, uint256 _endTimestamp) public onlyOwnerOrManager() uncompleted() {\n    require(_startTimestamp > 0 && _endTimestamp > _startTimestamp);\n\n    startTimestamp = _startTimestamp;\n    endTimestamp = _endTimestamp;\n\n    CUSTOM_CROWDSALE_PERIOD_ADDED(startTimestamp, endTimestamp);\n  }\n\n  // Gives owner ability to withdraw eth and wings from Bridge contract balance in case if some error during reward calculation occured\n  function withdraw() public onlyOwner() uncompleted() {\n    uint256 ethBalance = address(this).balance;\n    uint256 tokenBalance = token.balanceOf(address(this));\n\n    if (ethBalance > 0) {\n      require(msg.sender.send(ethBalance));\n    }\n\n    if (tokenBalance > 0) {\n      require(token.transfer(msg.sender, tokenBalance));\n    }\n  }\n}\n",
  "sourcePath": "/Users/solidity/Desktop/github/wings-light-bridge/contracts/Bridge.sol",
  "compiler": {
    "name": "solc",
    "version": "0.4.24+commit.e67f0147.Emscripten.clang"
  },
  "schemaVersion": "2.0.0",
  "updatedAt": "2018-08-20T13:53:53.647Z"
}