{
  "contractName": "Bridge",
  "abi": [
    {
      "constant": true,
      "inputs": [],
      "name": "started",
      "outputs": [
        {
          "name": "",
          "type": "bool"
        }
      ],
      "payable": false,
      "stateMutability": "view",
      "type": "function"
    },
    {
      "constant": true,
      "inputs": [],
      "name": "manager",
      "outputs": [
        {
          "name": "",
          "type": "address"
        }
      ],
      "payable": false,
      "stateMutability": "view",
      "type": "function"
    },
    {
      "constant": true,
      "inputs": [],
      "name": "totalCollectedETH",
      "outputs": [
        {
          "name": "",
          "type": "uint256"
        }
      ],
      "payable": false,
      "stateMutability": "view",
      "type": "function"
    },
    {
      "constant": true,
      "inputs": [],
      "name": "minimalGoal",
      "outputs": [
        {
          "name": "",
          "type": "uint256"
        }
      ],
      "payable": false,
      "stateMutability": "view",
      "type": "function"
    },
    {
      "constant": true,
      "inputs": [],
      "name": "stopped",
      "outputs": [
        {
          "name": "",
          "type": "bool"
        }
      ],
      "payable": false,
      "stateMutability": "view",
      "type": "function"
    },
    {
      "constant": true,
      "inputs": [],
      "name": "owner",
      "outputs": [
        {
          "name": "",
          "type": "address"
        }
      ],
      "payable": false,
      "stateMutability": "view",
      "type": "function"
    },
    {
      "constant": true,
      "inputs": [],
      "name": "totalSold",
      "outputs": [
        {
          "name": "",
          "type": "uint256"
        }
      ],
      "payable": false,
      "stateMutability": "view",
      "type": "function"
    },
    {
      "constant": true,
      "inputs": [],
      "name": "completed",
      "outputs": [
        {
          "name": "",
          "type": "bool"
        }
      ],
      "payable": false,
      "stateMutability": "view",
      "type": "function"
    },
    {
      "constant": true,
      "inputs": [],
      "name": "endTimestamp",
      "outputs": [
        {
          "name": "",
          "type": "uint256"
        }
      ],
      "payable": false,
      "stateMutability": "view",
      "type": "function"
    },
    {
      "constant": false,
      "inputs": [],
      "name": "releaseTokens",
      "outputs": [],
      "payable": false,
      "stateMutability": "nonpayable",
      "type": "function"
    },
    {
      "constant": false,
      "inputs": [
        {
          "name": "_newManager",
          "type": "address"
        }
      ],
      "name": "transferManager",
      "outputs": [],
      "payable": false,
      "stateMutability": "nonpayable",
      "type": "function"
    },
    {
      "constant": true,
      "inputs": [],
      "name": "failed",
      "outputs": [
        {
          "name": "",
          "type": "bool"
        }
      ],
      "payable": false,
      "stateMutability": "view",
      "type": "function"
    },
    {
      "constant": false,
      "inputs": [],
      "name": "deposit",
      "outputs": [],
      "payable": true,
      "stateMutability": "payable",
      "type": "function"
    },
    {
      "constant": true,
      "inputs": [],
      "name": "totalCollected",
      "outputs": [
        {
          "name": "",
          "type": "uint256"
        }
      ],
      "payable": false,
      "stateMutability": "view",
      "type": "function"
    },
    {
      "constant": true,
      "inputs": [],
      "name": "startTimestamp",
      "outputs": [
        {
          "name": "",
          "type": "uint256"
        }
      ],
      "payable": false,
      "stateMutability": "view",
      "type": "function"
    },
    {
      "constant": true,
      "inputs": [],
      "name": "notifiedSale",
      "outputs": [
        {
          "name": "",
          "type": "bool"
        }
      ],
      "payable": false,
      "stateMutability": "view",
      "type": "function"
    },
    {
      "constant": false,
      "inputs": [
        {
          "name": "newOwner",
          "type": "address"
        }
      ],
      "name": "transferOwnership",
      "outputs": [],
      "payable": false,
      "stateMutability": "nonpayable",
      "type": "function"
    },
    {
      "constant": true,
      "inputs": [],
      "name": "hardCap",
      "outputs": [
        {
          "name": "",
          "type": "uint256"
        }
      ],
      "payable": false,
      "stateMutability": "view",
      "type": "function"
    },
    {
      "inputs": [
        {
          "name": "_owner",
          "type": "address"
        },
        {
          "name": "_manager",
          "type": "address"
        }
      ],
      "payable": false,
      "stateMutability": "nonpayable",
      "type": "constructor"
    },
    {
      "payable": true,
      "stateMutability": "payable",
      "type": "fallback"
    },
    {
      "anonymous": false,
      "inputs": [
        {
          "indexed": false,
          "name": "startTimestamp",
          "type": "uint256"
        },
        {
          "indexed": false,
          "name": "endTimestamp",
          "type": "uint256"
        },
        {
          "indexed": false,
          "name": "fundingAddress",
          "type": "address"
        }
      ],
      "name": "CROWDSALE_START",
      "type": "event"
    },
    {
      "anonymous": false,
      "inputs": [
        {
          "indexed": false,
          "name": "token",
          "type": "address"
        },
        {
          "indexed": false,
          "name": "decimals",
          "type": "uint8"
        }
      ],
      "name": "CUSTOM_CROWDSALE_TOKEN_ADDED",
      "type": "event"
    },
    {
      "anonymous": false,
      "inputs": [
        {
          "indexed": false,
          "name": "minimalGoal",
          "type": "uint256"
        },
        {
          "indexed": false,
          "name": "hardCap",
          "type": "uint256"
        }
      ],
      "name": "CUSTOM_CROWDSALE_GOAL_ADDED",
      "type": "event"
    },
    {
      "anonymous": false,
      "inputs": [
        {
          "indexed": false,
          "name": "startTimestamp",
          "type": "uint256"
        },
        {
          "indexed": false,
          "name": "endTimestamp",
          "type": "uint256"
        }
      ],
      "name": "CUSTOM_CROWDSALE_PERIOD_ADDED",
      "type": "event"
    },
    {
      "anonymous": false,
      "inputs": [],
      "name": "CUSTOM_CROWDSALE_FINISH",
      "type": "event"
    },
    {
      "anonymous": false,
      "inputs": [
        {
          "indexed": true,
          "name": "previousOwner",
          "type": "address"
        },
        {
          "indexed": true,
          "name": "newOwner",
          "type": "address"
        }
      ],
      "name": "OwnershipTransferred",
      "type": "event"
    },
    {
      "constant": false,
      "inputs": [
        {
          "name": "_contract",
          "type": "address"
        },
        {
          "name": "_amount",
          "type": "uint256"
        }
      ],
      "name": "mintTokenRewards",
      "outputs": [],
      "payable": false,
      "stateMutability": "nonpayable",
      "type": "function"
    },
    {
      "constant": false,
      "inputs": [
        {
          "name": "_contract",
          "type": "address"
        },
        {
          "name": "_amount",
          "type": "uint256"
        }
      ],
      "name": "mintETHRewards",
      "outputs": [],
      "payable": false,
      "stateMutability": "nonpayable",
      "type": "function"
    },
    {
      "constant": false,
      "inputs": [],
      "name": "stop",
      "outputs": [],
      "payable": false,
      "stateMutability": "nonpayable",
      "type": "function"
    },
    {
      "constant": false,
      "inputs": [
        {
          "name": "_amount",
          "type": "uint256"
        },
        {
          "name": "_ethAmount",
          "type": "uint256"
        },
        {
          "name": "_tokensAmount",
          "type": "uint256"
        }
      ],
      "name": "notifySale",
      "outputs": [],
      "payable": false,
      "stateMutability": "nonpayable",
      "type": "function"
    },
    {
      "constant": false,
      "inputs": [
        {
          "name": "_startTimestamp",
          "type": "uint256"
        },
        {
          "name": "_endTimestamp",
          "type": "uint256"
        },
        {
          "name": "",
          "type": "address"
        }
      ],
      "name": "start",
      "outputs": [],
      "payable": false,
      "stateMutability": "nonpayable",
      "type": "function"
    },
    {
      "constant": false,
      "inputs": [],
      "name": "finish",
      "outputs": [],
      "payable": false,
      "stateMutability": "nonpayable",
      "type": "function"
    },
    {
      "constant": false,
      "inputs": [
        {
          "name": "_newToken",
          "type": "address"
        }
      ],
      "name": "changeToken",
      "outputs": [],
      "payable": false,
      "stateMutability": "nonpayable",
      "type": "function"
    },
    {
      "constant": false,
      "inputs": [
        {
          "name": "_minimalGoal",
          "type": "uint256"
        },
        {
          "name": "_hardCap",
          "type": "uint256"
        }
      ],
      "name": "setCrowdsaleGoal",
      "outputs": [],
      "payable": false,
      "stateMutability": "nonpayable",
      "type": "function"
    },
    {
      "constant": false,
      "inputs": [
        {
          "name": "_startTimestamp",
          "type": "uint256"
        },
        {
          "name": "_endTimestamp",
          "type": "uint256"
        }
      ],
      "name": "setCrowdsalePeriod",
      "outputs": [],
      "payable": false,
      "stateMutability": "nonpayable",
      "type": "function"
    },
    {
      "constant": false,
      "inputs": [
        {
          "name": "_ethAmount",
          "type": "uint256"
        },
        {
          "name": "_tokenAmount",
          "type": "uint256"
        }
      ],
      "name": "withdraw",
      "outputs": [],
      "payable": false,
      "stateMutability": "nonpayable",
      "type": "function"
    },
    {
      "constant": true,
      "inputs": [],
      "name": "getToken",
      "outputs": [
        {
          "name": "",
          "type": "address"
        }
      ],
      "payable": false,
      "stateMutability": "view",
      "type": "function"
    },
    {
      "constant": true,
      "inputs": [],
      "name": "isFailed",
      "outputs": [
        {
          "name": "",
          "type": "bool"
        }
      ],
      "payable": false,
      "stateMutability": "view",
      "type": "function"
    },
    {
      "constant": true,
      "inputs": [],
      "name": "isActive",
      "outputs": [
        {
          "name": "",
          "type": "bool"
        }
      ],
      "payable": false,
      "stateMutability": "view",
      "type": "function"
    },
    {
      "constant": true,
      "inputs": [],
      "name": "isSuccessful",
      "outputs": [
        {
          "name": "",
          "type": "bool"
        }
      ],
      "payable": false,
      "stateMutability": "view",
      "type": "function"
    },
    {
      "constant": true,
      "inputs": [],
      "name": "reachedMinGoal",
      "outputs": [
        {
          "name": "",
          "type": "bool"
        }
      ],
      "payable": false,
      "stateMutability": "view",
      "type": "function"
    },
    {
      "constant": true,
      "inputs": [],
      "name": "calculateRewards",
      "outputs": [
        {
          "name": "",
          "type": "uint256"
        },
        {
          "name": "",
          "type": "uint256"
        }
      ],
      "payable": false,
      "stateMutability": "view",
      "type": "function"
    },
    {
      "constant": true,
      "inputs": [],
      "name": "rewardsAreReady",
      "outputs": [
        {
          "name": "",
          "type": "bool"
        }
      ],
      "payable": false,
      "stateMutability": "view",
      "type": "function"
    }
  ],
  "bytecode": "0x608060405234801561001057600080fd5b506040516040806121b88339810180604052810190808051906020019092919080519060200190929190505050336000806101000a81548173ffffffffffffffffffffffffffffffffffffffff021916908373ffffffffffffffffffffffffffffffffffffffff160217905550816000806101000a81548173ffffffffffffffffffffffffffffffffffffffff021916908373ffffffffffffffffffffffffffffffffffffffff16021790555080600160006101000a81548173ffffffffffffffffffffffffffffffffffffffff021916908373ffffffffffffffffffffffffffffffffffffffff16021790555050506120a98061010f6000396000f3006080604052600436106101b7576000357c0100000000000000000000000000000000000000000000000000000000900463ffffffff168063058bf214146101b957806307da68f5146101e8578063101b8a41146101ff578063181956ae1461022e57806318c9ef97146102655780631f2698ab146102b257806321df0da7146102e157806322f3e2d4146103385780633e50de3014610367578063441a3e7014610399578063481c6a75146103d05780635d202249146104275780636385cbbe1461045257806366829b161461047d57806375f12b21146104c05780638da5cb5b146104ef5780639106d7ba1461054657806393f33b88146105715780639d9a7fe9146105b2578063a51fe113146105e1578063a85adeab14610638578063a96f866814610663578063b23c1f191461067a578063ba0e930a146106c7578063ba414fa61461070a578063c8e9d8ac14610739578063d0e30db014610770578063d56b28891461077a578063e29eb83614610791578063e6fd48bc146107bc578063e8387f40146107e7578063ec4cd0cf14610816578063f2fde38b14610845578063f416334014610888578063fb86a404146108b7575b005b3480156101c557600080fd5b506101ce6108e2565b604051808215151515815260200191505060405180910390f35b3480156101f457600080fd5b506101fd6108f1565b005b34801561020b57600080fd5b506102146109c3565b604051808215151515815260200191505060405180910390f35b34801561023a57600080fd5b506102636004803603810190808035906020019092919080359060200190929190505050610b91565b005b34801561027157600080fd5b506102b0600480360381019080803573ffffffffffffffffffffffffffffffffffffffff16906020019092919080359060200190929190505050610ce3565b005b3480156102be57600080fd5b506102c7610d7a565b604051808215151515815260200191505060405180910390f35b3480156102ed57600080fd5b506102f6610d8d565b604051808273ffffffffffffffffffffffffffffffffffffffff1673ffffffffffffffffffffffffffffffffffffffff16815260200191505060405180910390f35b34801561034457600080fd5b5061034d610db7565b604051808215151515815260200191505060405180910390f35b34801561037357600080fd5b5061037c610de7565b604051808381526020018281526020019250505060405180910390f35b3480156103a557600080fd5b506103ce60048036038101908080359060200190929190803590602001909291905050506110c9565b005b3480156103dc57600080fd5b506103e56113f5565b604051808273ffffffffffffffffffffffffffffffffffffffff1673ffffffffffffffffffffffffffffffffffffffff16815260200191505060405180910390f35b34801561043357600080fd5b5061043c61141b565b6040518082815260200191505060405180910390f35b34801561045e57600080fd5b50610467611421565b6040518082815260200191505060405180910390f35b34801561048957600080fd5b506104be600480360381019080803573ffffffffffffffffffffffffffffffffffffffff169060200190929190505050611427565b005b3480156104cc57600080fd5b506104d56116b6565b604051808215151515815260200191505060405180910390f35b3480156104fb57600080fd5b506105046116c9565b604051808273ffffffffffffffffffffffffffffffffffffffff1673ffffffffffffffffffffffffffffffffffffffff16815260200191505060405180910390f35b34801561055257600080fd5b5061055b6116ee565b6040518082815260200191505060405180910390f35b34801561057d57600080fd5b506105b06004803603810190808035906020019092919080359060200190929190803590602001909291905050506116f4565b005b3480156105be57600080fd5b506105c761180a565b604051808215151515815260200191505060405180910390f35b3480156105ed57600080fd5b506106366004803603810190808035906020019092919080359060200190929190803573ffffffffffffffffffffffffffffffffffffffff16906020019092919050505061181d565b005b34801561064457600080fd5b5061064d611976565b6040518082815260200191505060405180910390f35b34801561066f57600080fd5b5061067861197c565b005b34801561068657600080fd5b506106c5600480360381019080803573ffffffffffffffffffffffffffffffffffffffff1690602001909291908035906020019092919050505061197e565b005b3480156106d357600080fd5b50610708600480360381019080803573ffffffffffffffffffffffffffffffffffffffff169060200190929190505050611adf565b005b34801561071657600080fd5b5061071f611bbb565b604051808215151515815260200191505060405180910390f35b34801561074557600080fd5b5061076e6004803603810190808035906020019092919080359060200190929190505050611bce565b005b610778611d16565b005b34801561078657600080fd5b5061078f611d18565b005b34801561079d57600080fd5b506107a6611e63565b6040518082815260200191505060405180910390f35b3480156107c857600080fd5b506107d1611e69565b6040518082815260200191505060405180910390f35b3480156107f357600080fd5b506107fc611e6f565b604051808215151515815260200191505060405180910390f35b34801561082257600080fd5b5061082b611e82565b604051808215151515815260200191505060405180910390f35b34801561085157600080fd5b50610886600480360381019080803573ffffffffffffffffffffffffffffffffffffffff169060200190929190505050611eb2565b005b34801561089457600080fd5b5061089d612007565b604051808215151515815260200191505060405180910390f35b3480156108c357600080fd5b506108cc61201e565b6040518082815260200191505060405180910390f35b60006005546002541015905090565b600160009054906101000a900473ffffffffffffffffffffffffffffffffffffffff1673ffffffffffffffffffffffffffffffffffffffff163373ffffffffffffffffffffffffffffffffffffffff1614151561094d57600080fd5b600160159054906101000a900460ff1615151561096957600080fd5b600160149054906101000a900460ff16156109a757610986612007565b15151561099257600080fd5b61099a611e82565b1515156109a657600080fd5b5b60018060156101000a81548160ff021916908315150217905550565b60008060008060006109d3610de7565b80945081955050506000841115610a10573073ffffffffffffffffffffffffffffffffffffffff1631915083821015610a0f5760009450610b8a565b5b6000831115610b8557600073ffffffffffffffffffffffffffffffffffffffff16600960009054906101000a900473ffffffffffffffffffffffffffffffffffffffff1673ffffffffffffffffffffffffffffffffffffffff161415610a795760009450610b8a565b600960009054906101000a900473ffffffffffffffffffffffffffffffffffffffff1673ffffffffffffffffffffffffffffffffffffffff166370a08231306040518263ffffffff167c0100000000000000000000000000000000000000000000000000000000028152600401808273ffffffffffffffffffffffffffffffffffffffff1673ffffffffffffffffffffffffffffffffffffffff168152602001915050602060405180830381600087803b158015610b3657600080fd5b505af1158015610b4a573d6000803e3d6000fd5b505050506040513d6020811015610b6057600080fd5b8101908080519060200190929190505050905082811015610b845760009450610b8a565b5b600194505b5050505090565b6000809054906101000a900473ffffffffffffffffffffffffffffffffffffffff1673ffffffffffffffffffffffffffffffffffffffff163373ffffffffffffffffffffffffffffffffffffffff161480610c395750600160009054906101000a900473ffffffffffffffffffffffffffffffffffffffff1673ffffffffffffffffffffffffffffffffffffffff163373ffffffffffffffffffffffffffffffffffffffff16145b1515610c4457600080fd5b600960149054906101000a900460ff16151515610c6057600080fd5b600082118015610c705750600081115b15610c84578181111515610c8357600080fd5b5b6000821115610c9557816005819055505b806006819055507f8a107dbf550ef189cf0475e419d4fb817092ced37114d2b5efe4c816926b27ee600554600654604051808381526020018281526020019250505060405180910390a15050565b600160009054906101000a900473ffffffffffffffffffffffffffffffffffffffff1673ffffffffffffffffffffffffffffffffffffffff163373ffffffffffffffffffffffffffffffffffffffff16141515610d3f57600080fd5b8173ffffffffffffffffffffffffffffffffffffffff168160405160006040518083038185875af1925050501515610d7657600080fd5b5050565b600160149054906101000a900460ff1681565b6000600960009054906101000a900473ffffffffffffffffffffffffffffffffffffffff16905090565b6000600160149054906101000a900460ff168015610de25750600960149054906101000a900460ff16155b905090565b6000806000806000806000600160009054906101000a900473ffffffffffffffffffffffffffffffffffffffff1673ffffffffffffffffffffffffffffffffffffffff1663a823cfaf6040518163ffffffff167c0100000000000000000000000000000000000000000000000000000000028152600401602060405180830381600087803b158015610e7857600080fd5b505af1158015610e8c573d6000803e3d6000fd5b505050506040513d6020811015610ea257600080fd5b81019080805190602001909291905050509450600160009054906101000a900473ffffffffffffffffffffffffffffffffffffffff1673ffffffffffffffffffffffffffffffffffffffff166380fa81b16040518163ffffffff167c0100000000000000000000000000000000000000000000000000000000028152600401602060405180830381600087803b158015610f3b57600080fd5b505af1158015610f4f573d6000803e3d6000fd5b505050506040513d6020811015610f6557600080fd5b8101908080519060200190929190505050935060008414159150620f4240610f988660045461202490919063ffffffff16565b811515610fa157fe5b0490506000600354141515610fba576003546002819055505b600160009054906101000a900473ffffffffffffffffffffffffffffffffffffffff1673ffffffffffffffffffffffffffffffffffffffff16633350ae366002546040518263ffffffff167c010000000000000000000000000000000000000000000000000000000002815260040180828152602001915050602060405180830381600087803b15801561104d57600080fd5b505af1158015611061573d6000803e3d6000fd5b505050506040513d602081101561107757600080fd5b810190808051906020019092919050505060028190555081156110ba57620f42406110ad8560025461202490919063ffffffff16565b8115156110b657fe5b0492505b82819650965050505050509091565b6000806000809054906101000a900473ffffffffffffffffffffffffffffffffffffffff1673ffffffffffffffffffffffffffffffffffffffff163373ffffffffffffffffffffffffffffffffffffffff1614151561112757600080fd5b600960149054906101000a900460ff1680156111505750600960159054906101000a900460ff16155b1561115a57600080fd5b3073ffffffffffffffffffffffffffffffffffffffff16319150600960009054906101000a900473ffffffffffffffffffffffffffffffffffffffff1673ffffffffffffffffffffffffffffffffffffffff166370a08231306040518263ffffffff167c0100000000000000000000000000000000000000000000000000000000028152600401808273ffffffffffffffffffffffffffffffffffffffff1673ffffffffffffffffffffffffffffffffffffffff168152602001915050602060405180830381600087803b15801561123157600080fd5b505af1158015611245573d6000803e3d6000fd5b505050506040513d602081101561125b57600080fd5b8101908080519060200190929190505050905083821015801561127e5750828110155b151561128957600080fd5b60008411156112da573373ffffffffffffffffffffffffffffffffffffffff166108fc859081150290604051600060405180830381858888f193505050501580156112d8573d6000803e3d6000fd5b505b60008311156113ef57600960009054906101000a900473ffffffffffffffffffffffffffffffffffffffff1673ffffffffffffffffffffffffffffffffffffffff1663a9059cbb33856040518363ffffffff167c0100000000000000000000000000000000000000000000000000000000028152600401808373ffffffffffffffffffffffffffffffffffffffff1673ffffffffffffffffffffffffffffffffffffffff16815260200182815260200192505050602060405180830381600087803b1580156113a857600080fd5b505af11580156113bc573d6000803e3d6000fd5b505050506040513d60208110156113d257600080fd5b810190808051906020019092919050505015156113ee57600080fd5b5b50505050565b600160009054906101000a900473ffffffffffffffffffffffffffffffffffffffff1681565b60035481565b60055481565b60008060009054906101000a900473ffffffffffffffffffffffffffffffffffffffff1673ffffffffffffffffffffffffffffffffffffffff163373ffffffffffffffffffffffffffffffffffffffff1614806114d15750600160009054906101000a900473ffffffffffffffffffffffffffffffffffffffff1673ffffffffffffffffffffffffffffffffffffffff163373ffffffffffffffffffffffffffffffffffffffff16145b15156114dc57600080fd5b600960149054906101000a900460ff161515156114f857600080fd5b81600960006101000a81548173ffffffffffffffffffffffffffffffffffffffff021916908373ffffffffffffffffffffffffffffffffffffffff160217905550600960009054906101000a900473ffffffffffffffffffffffffffffffffffffffff1673ffffffffffffffffffffffffffffffffffffffff1663313ce5676040518163ffffffff167c0100000000000000000000000000000000000000000000000000000000028152600401602060405180830381600087803b1580156115bf57600080fd5b505af11580156115d3573d6000803e3d6000fd5b505050506040513d60208110156115e957600080fd5b8101908080519060200190929190505050905060088160ff1610158015611614575060128160ff1611155b151561161f57600080fd5b7fed6f18557b7914dbfc23d546be65de82017608e11b87429e06c0b88b55f0b6c3600960009054906101000a900473ffffffffffffffffffffffffffffffffffffffff1682604051808373ffffffffffffffffffffffffffffffffffffffff1673ffffffffffffffffffffffffffffffffffffffff1681526020018260ff1660ff1681526020019250505060405180910390a15050565b600160159054906101000a900460ff1681565b6000809054906101000a900473ffffffffffffffffffffffffffffffffffffffff1681565b60045481565b600160149054906101000a900460ff16151561170f57600080fd5b600160159054906101000a900460ff1615151561172b57600080fd5b611733610db7565b151561173e57600080fd5b6000809054906101000a900473ffffffffffffffffffffffffffffffffffffffff1673ffffffffffffffffffffffffffffffffffffffff163373ffffffffffffffffffffffffffffffffffffffff1614151561179957600080fd5b6117ae8360025461205f90919063ffffffff16565b6002819055506117c98260035461205f90919063ffffffff16565b6003819055506117e48160045461205f90919063ffffffff16565b6004819055506001600960166101000a81548160ff021916908315150217905550505050565b600960149054906101000a900460ff1681565b600160149054906101000a900460ff1615151561183957600080fd5b600160159054906101000a900460ff1615151561185557600080fd5b600160009054906101000a900473ffffffffffffffffffffffffffffffffffffffff1673ffffffffffffffffffffffffffffffffffffffff163373ffffffffffffffffffffffffffffffffffffffff161415156118b157600080fd5b6000831180156118c15750600082115b156118d55782821115156118d457600080fd5b5b826007819055508160088190555060018060146101000a81548160ff0219169083151502179055507ffccf552413932efea18979436cc8ce92942bdef118c2b5682351e1891bef807283836000604051808481526020018381526020018273ffffffffffffffffffffffffffffffffffffffff1673ffffffffffffffffffffffffffffffffffffffff168152602001935050505060405180910390a1505050565b60085481565b565b600160009054906101000a900473ffffffffffffffffffffffffffffffffffffffff1673ffffffffffffffffffffffffffffffffffffffff163373ffffffffffffffffffffffffffffffffffffffff161415156119da57600080fd5b600960009054906101000a900473ffffffffffffffffffffffffffffffffffffffff1673ffffffffffffffffffffffffffffffffffffffff1663a9059cbb83836040518363ffffffff167c0100000000000000000000000000000000000000000000000000000000028152600401808373ffffffffffffffffffffffffffffffffffffffff1673ffffffffffffffffffffffffffffffffffffffff16815260200182815260200192505050602060405180830381600087803b158015611a9f57600080fd5b505af1158015611ab3573d6000803e3d6000fd5b505050506040513d6020811015611ac957600080fd5b8101908080519060200190929190505050505050565b600160009054906101000a900473ffffffffffffffffffffffffffffffffffffffff1673ffffffffffffffffffffffffffffffffffffffff163373ffffffffffffffffffffffffffffffffffffffff16141515611b3b57600080fd5b600073ffffffffffffffffffffffffffffffffffffffff168173ffffffffffffffffffffffffffffffffffffffff1614151515611b7757600080fd5b80600160006101000a81548173ffffffffffffffffffffffffffffffffffffffff021916908373ffffffffffffffffffffffffffffffffffffffff16021790555050565b600960159054906101000a900460ff1681565b6000809054906101000a900473ffffffffffffffffffffffffffffffffffffffff1673ffffffffffffffffffffffffffffffffffffffff163373ffffffffffffffffffffffffffffffffffffffff161480611c765750600160009054906101000a900473ffffffffffffffffffffffffffffffffffffffff1673ffffffffffffffffffffffffffffffffffffffff163373ffffffffffffffffffffffffffffffffffffffff16145b1515611c8157600080fd5b600960149054906101000a900460ff16151515611c9d57600080fd5b600082118015611cad5750600081115b15611cc1578181111515611cc057600080fd5b5b81600781905550806008819055507f70b2168874684694af024b9b82966aedd9e12634e3229136b7d89247b5a2b071600754600854604051808381526020018281526020019250505060405180910390a15050565b565b600160159054906101000a900460ff16151515611d3457600080fd5b600160149054906101000a900460ff161515611d4f57600080fd5b611d57610db7565b1515611d6257600080fd5b6000809054906101000a900473ffffffffffffffffffffffffffffffffffffffff1673ffffffffffffffffffffffffffffffffffffffff163373ffffffffffffffffffffffffffffffffffffffff16141515611dbd57600080fd5b600960169054906101000a900460ff161515611dd857600080fd5b611de06108e2565b1515611e06576001600960156101000a81548160ff021916908315150217905550611e1a565b611e0e6109c3565b1515611e1957600080fd5b5b6001600960146101000a81548160ff0219169083151502179055507f256531276449280f5a3022f3024cb03968cf6ab90d6d067e9bc10768bcbcb08060405160405180910390a1565b60025481565b60075481565b600960169054906101000a900460ff1681565b6000600960149054906101000a900460ff168015611ead5750600960159054906101000a900460ff16155b905090565b6000809054906101000a900473ffffffffffffffffffffffffffffffffffffffff1673ffffffffffffffffffffffffffffffffffffffff163373ffffffffffffffffffffffffffffffffffffffff16141515611f0d57600080fd5b600073ffffffffffffffffffffffffffffffffffffffff168173ffffffffffffffffffffffffffffffffffffffff1614151515611f4957600080fd5b8073ffffffffffffffffffffffffffffffffffffffff166000809054906101000a900473ffffffffffffffffffffffffffffffffffffffff1673ffffffffffffffffffffffffffffffffffffffff167f8be0079c531659141344cd1fd0a4f28419497f9722a3daafe3b4186f6b6457e060405160405180910390a3806000806101000a81548173ffffffffffffffffffffffffffffffffffffffff021916908373ffffffffffffffffffffffffffffffffffffffff16021790555050565b6000600960159054906101000a900460ff16905090565b60065481565b60008060008414156120395760009150612058565b828402905082848281151561204a57fe5b0414151561205457fe5b8091505b5092915050565b600080828401905083811015151561207357fe5b80915050929150505600a165627a7a72305820ca180fd6830c5c0af35034d0a54d15b5ede3f63dcbd0cf1a84893d30439b5f960029",
  "source": "pragma solidity ^0.4.18;\n\n\nimport './interfaces/IBridge.sol';\n\n\n/*\n    Standalone Bridge\n*/\ncontract Bridge is IBridge {\n\n    // Constructor\n    function Bridge(address _owner, address _manager) public {\n        owner = _owner;\n        manager = _manager;\n    }\n\n    /*\n        Only manager\n     */\n\n    // Mints token Rewards to Forecasting contract\n    // called by IWingsController\n    function mintTokenRewards(\n        address _contract,\n        uint256 _amount        // agreed part of totalSold which is intended for rewards\n    )\n        public\n        onlyManager()\n    {\n        // in our example we are transferring tokens instead of minting them\n        token.transfer(_contract, _amount);\n    }\n\n    // called by CrowdsaleController to transfer reward part of ETH\n    // collected by successful crowdsale to Forecasting contract.\n    // This call is made upon closing successful crowdfunding process\n    // if agreed ETH reward part is not zero\n    function mintETHRewards(\n        address _contract,    // Forecasting contract\n        uint256 _amount         // agreed part of totalCollected which is intended for rewards\n    )\n        public\n        onlyManager() // manager is CrowdsaleController instance\n    {\n        require(_contract.call.value(_amount)());\n    }\n\n    // cancels crowdsale\n    function stop() public onlyManager() hasntStopped()    {\n        // we can stop only not started and not completed crowdsale\n        if (started) {\n            require(!isFailed());\n            require(!isSuccessful());\n        }\n        stopped = true;\n    }\n\n    /*\n        Public\n     */\n\n    // Update information about collected ETH and sold tokens amount\n    function notifySale(uint256 _amount, uint256 _ethAmount, uint256 _tokensAmount)\n        public\n        hasBeenStarted()\n        hasntStopped()\n        whenCrowdsaleAlive()\n        onlyOwner()\n    {\n        totalCollected = totalCollected.add(_amount);\n        totalCollectedETH = totalCollectedETH.add(_ethAmount);\n        totalSold = totalSold.add(_tokensAmount);\n\n        notifiedSale = true;\n    }\n\n    // Validates parameters and starts crowdsale\n    // called by IWingsController\n    function start(\n        uint256 _startTimestamp,\n        uint256 _endTimestamp,\n        address /*_fundingAddress*/\n    )\n        public\n        hasntStarted()\n        hasntStopped()\n        onlyManager()\n    {\n        if (_startTimestamp > 0 && _endTimestamp > 0) {\n            require(_endTimestamp > _startTimestamp);\n        }\n\n        startTimestamp = _startTimestamp;\n        endTimestamp = _endTimestamp;\n\n        started = true;\n\n        CROWDSALE_START(_startTimestamp, _endTimestamp, address(0));\n    }\n\n    // Finish crowdsale\n    function finish()\n        public\n        hasntStopped()\n        hasBeenStarted()\n        whenCrowdsaleAlive()\n        onlyOwner()\n    {\n        // allow to finish bridge only if owner has communicated crowdsale results\n        require(notifiedSale);\n\n        if (!reachedMinGoal()) {\n            failed = true;\n        } else {\n            // if crowdsale is not failed there should be rewards in order to finish bridge\n            require(rewardsAreReady());\n        }\n\n        completed = true;\n\n        CUSTOM_CROWDSALE_FINISH();\n    }\n\n    // Change token address (in case you've used the dafault token address during bridge deployment)\n    function changeToken(address _newToken) public onlyOwnerOrManager() uncompleted() {\n        token = DetailedERC20(_newToken);\n\n        uint8 tokenDecimals = uint8(token.decimals());\n\n        require(tokenDecimals >= 8 && tokenDecimals <= 18);\n\n        CUSTOM_CROWDSALE_TOKEN_ADDED(address(token), tokenDecimals);\n    }\n\n    // Set/update crowdsale goal\n    function setCrowdsaleGoal(uint256 _minimalGoal, uint256 _hardCap) public onlyOwnerOrManager() uncompleted() {\n        if (_minimalGoal > 0 && _hardCap > 0) {\n            require(_hardCap > _minimalGoal);\n        }\n\n        if (_minimalGoal > 0) {\n            minimalGoal = _minimalGoal;\n        }\n\n        hardCap = _hardCap;\n\n        CUSTOM_CROWDSALE_GOAL_ADDED(minimalGoal, hardCap);\n    }\n\n    // Set/update crowdsale period\n    function setCrowdsalePeriod(uint256 _startTimestamp, uint256 _endTimestamp) public onlyOwnerOrManager() uncompleted() {\n        if (_startTimestamp > 0 && _endTimestamp > 0) {\n            require(_endTimestamp > _startTimestamp);\n        }\n\n        startTimestamp = _startTimestamp;\n        endTimestamp = _endTimestamp;\n\n        CUSTOM_CROWDSALE_PERIOD_ADDED(startTimestamp, endTimestamp);\n    }\n\n    // Gives owner ability to withdraw eth and wings from Bridge contract balance in case\n    // if some error during reward calculation occured or crowdsale failed\n    function withdraw(uint256 _ethAmount, uint256 _tokenAmount) public onlyOwner() {\n        if (completed && !failed) {\n            revert();\n        }\n\n        uint256 ethBalance = address(this).balance;\n        uint256 tokenBalance = token.balanceOf(address(this));\n\n        require(ethBalance >= _ethAmount && tokenBalance >= _tokenAmount);\n\n        if (_ethAmount > 0) {\n            msg.sender.transfer(_ethAmount);\n        }\n\n        if (_tokenAmount > 0) {\n            require(token.transfer(msg.sender, _tokenAmount));\n        }\n    }\n\n    /*\n        Public view\n     */\n\n    // Returns address of crowdsale token\n    function getToken() public view returns (address) {\n        return address(token);\n    }\n\n    function isFailed() public view returns (bool) {\n        return failed;\n    }\n\n    function isActive() public view returns (bool) {\n        return started && !completed;\n    }\n\n    function isSuccessful() public view returns (bool) {\n        return completed && !failed;\n    }\n\n    function reachedMinGoal() public view returns (bool) {\n        return totalCollected >= minimalGoal;\n    }\n\n    // Find out the amount of rewards in ETH and tokens\n    function calculateRewards() public view returns (uint256, uint256) {\n        uint256 tokenRewardPart = IWingsController(manager).tokenRewardPart();\n        uint256 ethRewardPart = IWingsController(manager).ethRewardPart();\n        uint256 ethReward;\n        bool hasEthReward = (ethRewardPart != 0);\n\n        uint256 tokenReward = totalSold.mul(tokenRewardPart) / 1000000;\n\n        if (totalCollectedETH != 0) {\n            totalCollected = totalCollectedETH;\n        }\n\n        totalCollected = IWingsController(manager).fitCollectedValueIntoRange(totalCollected);\n\n        if (hasEthReward) {\n            ethReward = totalCollected.mul(ethRewardPart) / 1000000;\n        }\n\n        return (ethReward, tokenReward);\n    }\n\n    // Find out whether rewards are ready to be distributed\n    function rewardsAreReady() public view returns (bool) {\n        uint256 ethReward;\n        uint256 tokenReward;\n\n        (ethReward, tokenReward) = calculateRewards();\n\n        // check if there are enough eth rewards on this address\n        if (ethReward > 0) {\n            uint256 ethBalance = address(this).balance;\n\n            if (ethBalance < ethReward) {\n                return false;\n            }\n        }\n\n        // check if there are enough tokens rewards on this address\n        if (tokenReward > 0) {\n            if (address(token) == address(0)) {\n                return false;\n            }\n\n            uint256 tokenBalance = token.balanceOf(address(this));\n\n            if (tokenBalance < tokenReward) {\n                return false;\n            }\n        }\n\n        return true;\n    }\n\n    /*\n        Fallback\n     */\n\n    function() public payable {\n    }\n}\n",
  "sourcePath": "/Users/solidity/Desktop/github/wings-light-bridge/contracts/Bridge.sol",
  "compiler": {
    "name": "solc",
    "version": "0.4.24+commit.e67f0147.Emscripten.clang"
  },
  "schemaVersion": "2.0.0",
  "updatedAt": "2018-10-16T06:55:43.571Z"
}