{
  "contractName": "Bridge",
  "abi": [
    {
      "constant": true,
      "inputs": [],
      "name": "started",
      "outputs": [
        {
          "name": "",
          "type": "bool"
        }
      ],
      "payable": false,
      "stateMutability": "view",
      "type": "function"
    },
    {
      "constant": true,
      "inputs": [],
      "name": "manager",
      "outputs": [
        {
          "name": "",
          "type": "address"
        }
      ],
      "payable": false,
      "stateMutability": "view",
      "type": "function"
    },
    {
      "constant": true,
      "inputs": [],
      "name": "totalCollectedETH",
      "outputs": [
        {
          "name": "",
          "type": "uint256"
        }
      ],
      "payable": false,
      "stateMutability": "view",
      "type": "function"
    },
    {
      "constant": true,
      "inputs": [],
      "name": "minimalGoal",
      "outputs": [
        {
          "name": "",
          "type": "uint256"
        }
      ],
      "payable": false,
      "stateMutability": "view",
      "type": "function"
    },
    {
      "constant": true,
      "inputs": [],
      "name": "stopped",
      "outputs": [
        {
          "name": "",
          "type": "bool"
        }
      ],
      "payable": false,
      "stateMutability": "view",
      "type": "function"
    },
    {
      "constant": true,
      "inputs": [],
      "name": "owner",
      "outputs": [
        {
          "name": "",
          "type": "address"
        }
      ],
      "payable": false,
      "stateMutability": "view",
      "type": "function"
    },
    {
      "constant": true,
      "inputs": [],
      "name": "totalSold",
      "outputs": [
        {
          "name": "",
          "type": "uint256"
        }
      ],
      "payable": false,
      "stateMutability": "view",
      "type": "function"
    },
    {
      "constant": true,
      "inputs": [],
      "name": "endTimestamp",
      "outputs": [
        {
          "name": "",
          "type": "uint256"
        }
      ],
      "payable": false,
      "stateMutability": "view",
      "type": "function"
    },
    {
      "constant": false,
      "inputs": [],
      "name": "releaseTokens",
      "outputs": [],
      "payable": false,
      "stateMutability": "nonpayable",
      "type": "function"
    },
    {
      "constant": false,
      "inputs": [
        {
          "name": "_newManager",
          "type": "address"
        }
      ],
      "name": "transferManager",
      "outputs": [],
      "payable": false,
      "stateMutability": "nonpayable",
      "type": "function"
    },
    {
      "constant": false,
      "inputs": [],
      "name": "deposit",
      "outputs": [],
      "payable": true,
      "stateMutability": "payable",
      "type": "function"
    },
    {
      "constant": true,
      "inputs": [],
      "name": "totalCollected",
      "outputs": [
        {
          "name": "",
          "type": "uint256"
        }
      ],
      "payable": false,
      "stateMutability": "view",
      "type": "function"
    },
    {
      "constant": true,
      "inputs": [],
      "name": "startTimestamp",
      "outputs": [
        {
          "name": "",
          "type": "uint256"
        }
      ],
      "payable": false,
      "stateMutability": "view",
      "type": "function"
    },
    {
      "constant": false,
      "inputs": [
        {
          "name": "newOwner",
          "type": "address"
        }
      ],
      "name": "transferOwnership",
      "outputs": [],
      "payable": false,
      "stateMutability": "nonpayable",
      "type": "function"
    },
    {
      "constant": true,
      "inputs": [],
      "name": "hardCap",
      "outputs": [
        {
          "name": "",
          "type": "uint256"
        }
      ],
      "payable": false,
      "stateMutability": "view",
      "type": "function"
    },
    {
      "inputs": [
        {
          "name": "_owner",
          "type": "address"
        },
        {
          "name": "_manager",
          "type": "address"
        }
      ],
      "payable": false,
      "stateMutability": "nonpayable",
      "type": "constructor"
    },
    {
      "payable": true,
      "stateMutability": "payable",
      "type": "fallback"
    },
    {
      "anonymous": false,
      "inputs": [
        {
          "indexed": false,
          "name": "startTimestamp",
          "type": "uint256"
        },
        {
          "indexed": false,
          "name": "endTimestamp",
          "type": "uint256"
        },
        {
          "indexed": false,
          "name": "fundingAddress",
          "type": "address"
        }
      ],
      "name": "CROWDSALE_START",
      "type": "event"
    },
    {
      "anonymous": false,
      "inputs": [
        {
          "indexed": false,
          "name": "token",
          "type": "address"
        },
        {
          "indexed": false,
          "name": "decimals",
          "type": "uint8"
        }
      ],
      "name": "CUSTOM_CROWDSALE_TOKEN_ADDED",
      "type": "event"
    },
    {
      "anonymous": false,
      "inputs": [
        {
          "indexed": false,
          "name": "minimalGoal",
          "type": "uint256"
        },
        {
          "indexed": false,
          "name": "hardCap",
          "type": "uint256"
        }
      ],
      "name": "CUSTOM_CROWDSALE_GOAL_ADDED",
      "type": "event"
    },
    {
      "anonymous": false,
      "inputs": [
        {
          "indexed": false,
          "name": "startTimestamp",
          "type": "uint256"
        },
        {
          "indexed": false,
          "name": "endTimestamp",
          "type": "uint256"
        }
      ],
      "name": "CUSTOM_CROWDSALE_PERIOD_ADDED",
      "type": "event"
    },
    {
      "anonymous": false,
      "inputs": [],
      "name": "CUSTOM_CROWDSALE_FINISH",
      "type": "event"
    },
    {
      "anonymous": false,
      "inputs": [
        {
          "indexed": true,
          "name": "previousOwner",
          "type": "address"
        },
        {
          "indexed": true,
          "name": "newOwner",
          "type": "address"
        }
      ],
      "name": "OwnershipTransferred",
      "type": "event"
    },
    {
      "constant": false,
      "inputs": [
        {
          "name": "_contract",
          "type": "address"
        },
        {
          "name": "_amount",
          "type": "uint256"
        }
      ],
      "name": "mintTokenRewards",
      "outputs": [],
      "payable": false,
      "stateMutability": "nonpayable",
      "type": "function"
    },
    {
      "constant": false,
      "inputs": [
        {
          "name": "_contract",
          "type": "address"
        },
        {
          "name": "_amount",
          "type": "uint256"
        }
      ],
      "name": "mintETHRewards",
      "outputs": [],
      "payable": false,
      "stateMutability": "nonpayable",
      "type": "function"
    },
    {
      "constant": false,
      "inputs": [],
      "name": "stop",
      "outputs": [],
      "payable": false,
      "stateMutability": "nonpayable",
      "type": "function"
    },
    {
      "constant": false,
      "inputs": [
        {
          "name": "_amount",
          "type": "uint256"
        },
        {
          "name": "_ethAmount",
          "type": "uint256"
        },
        {
          "name": "_tokensAmount",
          "type": "uint256"
        }
      ],
      "name": "notifySale",
      "outputs": [],
      "payable": false,
      "stateMutability": "nonpayable",
      "type": "function"
    },
    {
      "constant": false,
      "inputs": [
        {
          "name": "_startTimestamp",
          "type": "uint256"
        },
        {
          "name": "_endTimestamp",
          "type": "uint256"
        },
        {
          "name": "",
          "type": "address"
        }
      ],
      "name": "start",
      "outputs": [],
      "payable": false,
      "stateMutability": "nonpayable",
      "type": "function"
    },
    {
      "constant": false,
      "inputs": [],
      "name": "finish",
      "outputs": [],
      "payable": false,
      "stateMutability": "nonpayable",
      "type": "function"
    },
    {
      "constant": false,
      "inputs": [
        {
          "name": "_newToken",
          "type": "address"
        }
      ],
      "name": "changeToken",
      "outputs": [],
      "payable": false,
      "stateMutability": "nonpayable",
      "type": "function"
    },
    {
      "constant": false,
      "inputs": [
        {
          "name": "_minimalGoal",
          "type": "uint256"
        },
        {
          "name": "_hardCap",
          "type": "uint256"
        }
      ],
      "name": "setCrowdsaleGoal",
      "outputs": [],
      "payable": false,
      "stateMutability": "nonpayable",
      "type": "function"
    },
    {
      "constant": false,
      "inputs": [
        {
          "name": "_startTimestamp",
          "type": "uint256"
        },
        {
          "name": "_endTimestamp",
          "type": "uint256"
        }
      ],
      "name": "setCrowdsalePeriod",
      "outputs": [],
      "payable": false,
      "stateMutability": "nonpayable",
      "type": "function"
    },
    {
      "constant": false,
      "inputs": [],
      "name": "withdraw",
      "outputs": [],
      "payable": false,
      "stateMutability": "nonpayable",
      "type": "function"
    },
    {
      "constant": true,
      "inputs": [],
      "name": "getToken",
      "outputs": [
        {
          "name": "",
          "type": "address"
        }
      ],
      "payable": false,
      "stateMutability": "view",
      "type": "function"
    },
    {
      "constant": true,
      "inputs": [],
      "name": "isFailed",
      "outputs": [
        {
          "name": "",
          "type": "bool"
        }
      ],
      "payable": false,
      "stateMutability": "view",
      "type": "function"
    },
    {
      "constant": true,
      "inputs": [],
      "name": "isActive",
      "outputs": [
        {
          "name": "",
          "type": "bool"
        }
      ],
      "payable": false,
      "stateMutability": "view",
      "type": "function"
    },
    {
      "constant": true,
      "inputs": [],
      "name": "isSuccessful",
      "outputs": [
        {
          "name": "",
          "type": "bool"
        }
      ],
      "payable": false,
      "stateMutability": "view",
      "type": "function"
    },
    {
      "constant": true,
      "inputs": [],
      "name": "reachedMinGoal",
      "outputs": [
        {
          "name": "",
          "type": "bool"
        }
      ],
      "payable": false,
      "stateMutability": "view",
      "type": "function"
    },
    {
      "constant": true,
      "inputs": [],
      "name": "calculateRewards",
      "outputs": [
        {
          "name": "",
          "type": "uint256"
        },
        {
          "name": "",
          "type": "uint256"
        }
      ],
      "payable": false,
      "stateMutability": "view",
      "type": "function"
    }
  ],
  "bytecode": "0x608060405234801561001057600080fd5b5060405160408061209c8339810180604052810190808051906020019092919080519060200190929190505050336000806101000a81548173ffffffffffffffffffffffffffffffffffffffff021916908373ffffffffffffffffffffffffffffffffffffffff160217905550816000806101000a81548173ffffffffffffffffffffffffffffffffffffffff021916908373ffffffffffffffffffffffffffffffffffffffff16021790555080600160006101000a81548173ffffffffffffffffffffffffffffffffffffffff021916908373ffffffffffffffffffffffffffffffffffffffff1602179055505050611f8d8061010f6000396000f30060806040526004361061018b576000357c0100000000000000000000000000000000000000000000000000000000900463ffffffff168063058bf2141461018d57806307da68f5146101bc578063181956ae146101d357806318c9ef971461020a5780631f2698ab1461025757806321df0da71461028657806322f3e2d4146102dd5780633ccfd60b1461030c5780633e50de3014610323578063481c6a75146103555780635d202249146103ac5780636385cbbe146103d757806366829b161461040257806375f12b21146104455780638da5cb5b146104745780639106d7ba146104cb57806393f33b88146104f6578063a51fe11314610537578063a85adeab1461058e578063a96f8668146105b9578063b23c1f19146105d0578063ba0e930a1461061d578063c8e9d8ac14610660578063d0e30db014610697578063d56b2889146106a1578063e29eb836146106b8578063e6fd48bc146106e3578063ec4cd0cf1461070e578063f2fde38b1461073d578063f416334014610780578063fb86a404146107af575b005b34801561019957600080fd5b506101a26107da565b604051808215151515815260200191505060405180910390f35b3480156101c857600080fd5b506101d1610803565b005b3480156101df57600080fd5b5061020860048036038101908080359060200190929190803590602001909291905050506108d5565b005b34801561021657600080fd5b50610255600480360381019080803573ffffffffffffffffffffffffffffffffffffffff16906020019092919080359060200190929190505050610a27565b005b34801561026357600080fd5b5061026c610abe565b604051808215151515815260200191505060405180910390f35b34801561029257600080fd5b5061029b610ad1565b604051808273ffffffffffffffffffffffffffffffffffffffff1673ffffffffffffffffffffffffffffffffffffffff16815260200191505060405180910390f35b3480156102e957600080fd5b506102f2610afb565b604051808215151515815260200191505060405180910390f35b34801561031857600080fd5b50610321610b2b565b005b34801561032f57600080fd5b50610338610e1c565b604051808381526020018281526020019250505060405180910390f35b34801561036157600080fd5b5061036a6110fe565b604051808273ffffffffffffffffffffffffffffffffffffffff1673ffffffffffffffffffffffffffffffffffffffff16815260200191505060405180910390f35b3480156103b857600080fd5b506103c1611124565b6040518082815260200191505060405180910390f35b3480156103e357600080fd5b506103ec61112a565b6040518082815260200191505060405180910390f35b34801561040e57600080fd5b50610443600480360381019080803573ffffffffffffffffffffffffffffffffffffffff169060200190929190505050611130565b005b34801561045157600080fd5b5061045a6113bf565b604051808215151515815260200191505060405180910390f35b34801561048057600080fd5b506104896113d2565b604051808273ffffffffffffffffffffffffffffffffffffffff1673ffffffffffffffffffffffffffffffffffffffff16815260200191505060405180910390f35b3480156104d757600080fd5b506104e06113f7565b6040518082815260200191505060405180910390f35b34801561050257600080fd5b506105356004803603810190808035906020019092919080359060200190929190803590602001909291905050506113fd565b005b34801561054357600080fd5b5061058c6004803603810190808035906020019092919080359060200190929190803573ffffffffffffffffffffffffffffffffffffffff169060200190929190505050611513565b005b34801561059a57600080fd5b506105a361166c565b6040518082815260200191505060405180910390f35b3480156105c557600080fd5b506105ce611672565b005b3480156105dc57600080fd5b5061061b600480360381019080803573ffffffffffffffffffffffffffffffffffffffff16906020019092919080359060200190929190505050611674565b005b34801561062957600080fd5b5061065e600480360381019080803573ffffffffffffffffffffffffffffffffffffffff1690602001909291905050506117d5565b005b34801561066c57600080fd5b5061069560048036038101908080359060200190929190803590602001909291905050506118b1565b005b61069f6119f9565b005b3480156106ad57600080fd5b506106b66119fb565b005b3480156106c457600080fd5b506106cd611d5a565b6040518082815260200191505060405180910390f35b3480156106ef57600080fd5b506106f8611d60565b6040518082815260200191505060405180910390f35b34801561071a57600080fd5b50610723611d66565b604051808215151515815260200191505060405180910390f35b34801561074957600080fd5b5061077e600480360381019080803573ffffffffffffffffffffffffffffffffffffffff169060200190929190505050611d96565b005b34801561078c57600080fd5b50610795611eeb565b604051808215151515815260200191505060405180910390f35b3480156107bb57600080fd5b506107c4611f02565b6040518082815260200191505060405180910390f35b60008060035411156107f55760055460035410159050610800565b600554600254101590505b90565b600160009054906101000a900473ffffffffffffffffffffffffffffffffffffffff1673ffffffffffffffffffffffffffffffffffffffff163373ffffffffffffffffffffffffffffffffffffffff1614151561085f57600080fd5b600160159054906101000a900460ff1615151561087b57600080fd5b600160149054906101000a900460ff16156108b957610898611eeb565b1515156108a457600080fd5b6108ac611d66565b1515156108b857600080fd5b5b60018060156101000a81548160ff021916908315150217905550565b6000809054906101000a900473ffffffffffffffffffffffffffffffffffffffff1673ffffffffffffffffffffffffffffffffffffffff163373ffffffffffffffffffffffffffffffffffffffff16148061097d5750600160009054906101000a900473ffffffffffffffffffffffffffffffffffffffff1673ffffffffffffffffffffffffffffffffffffffff163373ffffffffffffffffffffffffffffffffffffffff16145b151561098857600080fd5b600960149054906101000a900460ff161515156109a457600080fd5b6000821180156109b45750600081115b156109c85781811115156109c757600080fd5b5b60008211156109d957816005819055505b806006819055507f8a107dbf550ef189cf0475e419d4fb817092ced37114d2b5efe4c816926b27ee600554600654604051808381526020018281526020019250505060405180910390a15050565b600160009054906101000a900473ffffffffffffffffffffffffffffffffffffffff1673ffffffffffffffffffffffffffffffffffffffff163373ffffffffffffffffffffffffffffffffffffffff16141515610a8357600080fd5b8173ffffffffffffffffffffffffffffffffffffffff168160405160006040518083038185875af1925050501515610aba57600080fd5b5050565b600160149054906101000a900460ff1681565b6000600960009054906101000a900473ffffffffffffffffffffffffffffffffffffffff16905090565b6000600160149054906101000a900460ff168015610b265750600960149054906101000a900460ff16155b905090565b6000806000809054906101000a900473ffffffffffffffffffffffffffffffffffffffff1673ffffffffffffffffffffffffffffffffffffffff163373ffffffffffffffffffffffffffffffffffffffff16141515610b8957600080fd5b600960149054906101000a900460ff16151515610ba557600080fd5b3073ffffffffffffffffffffffffffffffffffffffff16319150600960009054906101000a900473ffffffffffffffffffffffffffffffffffffffff1673ffffffffffffffffffffffffffffffffffffffff166370a08231306040518263ffffffff167c0100000000000000000000000000000000000000000000000000000000028152600401808273ffffffffffffffffffffffffffffffffffffffff1673ffffffffffffffffffffffffffffffffffffffff168152602001915050602060405180830381600087803b158015610c7c57600080fd5b505af1158015610c90573d6000803e3d6000fd5b505050506040513d6020811015610ca657600080fd5b810190808051906020019092919050505090506000821115610d03573373ffffffffffffffffffffffffffffffffffffffff166108fc839081150290604051600060405180830381858888f193505050501515610d0257600080fd5b5b6000811115610e1857600960009054906101000a900473ffffffffffffffffffffffffffffffffffffffff1673ffffffffffffffffffffffffffffffffffffffff1663a9059cbb33836040518363ffffffff167c0100000000000000000000000000000000000000000000000000000000028152600401808373ffffffffffffffffffffffffffffffffffffffff1673ffffffffffffffffffffffffffffffffffffffff16815260200182815260200192505050602060405180830381600087803b158015610dd157600080fd5b505af1158015610de5573d6000803e3d6000fd5b505050506040513d6020811015610dfb57600080fd5b81019080805190602001909291905050501515610e1757600080fd5b5b5050565b6000806000806000806000600160009054906101000a900473ffffffffffffffffffffffffffffffffffffffff1673ffffffffffffffffffffffffffffffffffffffff1663a823cfaf6040518163ffffffff167c0100000000000000000000000000000000000000000000000000000000028152600401602060405180830381600087803b158015610ead57600080fd5b505af1158015610ec1573d6000803e3d6000fd5b505050506040513d6020811015610ed757600080fd5b81019080805190602001909291905050509450600160009054906101000a900473ffffffffffffffffffffffffffffffffffffffff1673ffffffffffffffffffffffffffffffffffffffff166380fa81b16040518163ffffffff167c0100000000000000000000000000000000000000000000000000000000028152600401602060405180830381600087803b158015610f7057600080fd5b505af1158015610f84573d6000803e3d6000fd5b505050506040513d6020811015610f9a57600080fd5b8101908080519060200190929190505050935060008414159150620f4240610fcd86600454611f0890919063ffffffff16565b811515610fd657fe5b0490506000600354141515610fef576003546002819055505b600160009054906101000a900473ffffffffffffffffffffffffffffffffffffffff1673ffffffffffffffffffffffffffffffffffffffff16633350ae366002546040518263ffffffff167c010000000000000000000000000000000000000000000000000000000002815260040180828152602001915050602060405180830381600087803b15801561108257600080fd5b505af1158015611096573d6000803e3d6000fd5b505050506040513d60208110156110ac57600080fd5b810190808051906020019092919050505060028190555081156110ef57620f42406110e285600254611f0890919063ffffffff16565b8115156110eb57fe5b0492505b82819650965050505050509091565b600160009054906101000a900473ffffffffffffffffffffffffffffffffffffffff1681565b60035481565b60055481565b60008060009054906101000a900473ffffffffffffffffffffffffffffffffffffffff1673ffffffffffffffffffffffffffffffffffffffff163373ffffffffffffffffffffffffffffffffffffffff1614806111da5750600160009054906101000a900473ffffffffffffffffffffffffffffffffffffffff1673ffffffffffffffffffffffffffffffffffffffff163373ffffffffffffffffffffffffffffffffffffffff16145b15156111e557600080fd5b600960149054906101000a900460ff1615151561120157600080fd5b81600960006101000a81548173ffffffffffffffffffffffffffffffffffffffff021916908373ffffffffffffffffffffffffffffffffffffffff160217905550600960009054906101000a900473ffffffffffffffffffffffffffffffffffffffff1673ffffffffffffffffffffffffffffffffffffffff1663313ce5676040518163ffffffff167c0100000000000000000000000000000000000000000000000000000000028152600401602060405180830381600087803b1580156112c857600080fd5b505af11580156112dc573d6000803e3d6000fd5b505050506040513d60208110156112f257600080fd5b8101908080519060200190929190505050905060088160ff161015801561131d575060128160ff1611155b151561132857600080fd5b7fed6f18557b7914dbfc23d546be65de82017608e11b87429e06c0b88b55f0b6c3600960009054906101000a900473ffffffffffffffffffffffffffffffffffffffff1682604051808373ffffffffffffffffffffffffffffffffffffffff1673ffffffffffffffffffffffffffffffffffffffff1681526020018260ff1660ff1681526020019250505060405180910390a15050565b600160159054906101000a900460ff1681565b6000809054906101000a900473ffffffffffffffffffffffffffffffffffffffff1681565b60045481565b600160149054906101000a900460ff16151561141857600080fd5b600160159054906101000a900460ff1615151561143457600080fd5b61143c610afb565b151561144757600080fd5b6000809054906101000a900473ffffffffffffffffffffffffffffffffffffffff1673ffffffffffffffffffffffffffffffffffffffff163373ffffffffffffffffffffffffffffffffffffffff161415156114a257600080fd5b6114b783600254611f4390919063ffffffff16565b6002819055506114d282600354611f4390919063ffffffff16565b6003819055506114ed81600454611f4390919063ffffffff16565b6004819055506001600960166101000a81548160ff021916908315150217905550505050565b600160149054906101000a900460ff1615151561152f57600080fd5b600160159054906101000a900460ff1615151561154b57600080fd5b600160009054906101000a900473ffffffffffffffffffffffffffffffffffffffff1673ffffffffffffffffffffffffffffffffffffffff163373ffffffffffffffffffffffffffffffffffffffff161415156115a757600080fd5b6000831180156115b75750600082115b156115cb5782821115156115ca57600080fd5b5b826007819055508160088190555060018060146101000a81548160ff0219169083151502179055507ffccf552413932efea18979436cc8ce92942bdef118c2b5682351e1891bef807283836000604051808481526020018381526020018273ffffffffffffffffffffffffffffffffffffffff1673ffffffffffffffffffffffffffffffffffffffff168152602001935050505060405180910390a1505050565b60085481565b565b600160009054906101000a900473ffffffffffffffffffffffffffffffffffffffff1673ffffffffffffffffffffffffffffffffffffffff163373ffffffffffffffffffffffffffffffffffffffff161415156116d057600080fd5b600960009054906101000a900473ffffffffffffffffffffffffffffffffffffffff1673ffffffffffffffffffffffffffffffffffffffff1663a9059cbb83836040518363ffffffff167c0100000000000000000000000000000000000000000000000000000000028152600401808373ffffffffffffffffffffffffffffffffffffffff1673ffffffffffffffffffffffffffffffffffffffff16815260200182815260200192505050602060405180830381600087803b15801561179557600080fd5b505af11580156117a9573d6000803e3d6000fd5b505050506040513d60208110156117bf57600080fd5b8101908080519060200190929190505050505050565b600160009054906101000a900473ffffffffffffffffffffffffffffffffffffffff1673ffffffffffffffffffffffffffffffffffffffff163373ffffffffffffffffffffffffffffffffffffffff1614151561183157600080fd5b600073ffffffffffffffffffffffffffffffffffffffff168173ffffffffffffffffffffffffffffffffffffffff161415151561186d57600080fd5b80600160006101000a81548173ffffffffffffffffffffffffffffffffffffffff021916908373ffffffffffffffffffffffffffffffffffffffff16021790555050565b6000809054906101000a900473ffffffffffffffffffffffffffffffffffffffff1673ffffffffffffffffffffffffffffffffffffffff163373ffffffffffffffffffffffffffffffffffffffff1614806119595750600160009054906101000a900473ffffffffffffffffffffffffffffffffffffffff1673ffffffffffffffffffffffffffffffffffffffff163373ffffffffffffffffffffffffffffffffffffffff16145b151561196457600080fd5b600960149054906101000a900460ff1615151561198057600080fd5b6000821180156119905750600081115b156119a45781811115156119a357600080fd5b5b81600781905550806008819055507f70b2168874684694af024b9b82966aedd9e12634e3229136b7d89247b5a2b071600754600854604051808381526020018281526020019250505060405180910390a15050565b565b600080600080600160159054906101000a900460ff16151515611a1d57600080fd5b600160149054906101000a900460ff161515611a3857600080fd5b611a40610afb565b1515611a4b57600080fd5b6000809054906101000a900473ffffffffffffffffffffffffffffffffffffffff1673ffffffffffffffffffffffffffffffffffffffff163373ffffffffffffffffffffffffffffffffffffffff16141515611aa657600080fd5b600960169054906101000a900460ff161515611ac157600080fd5b611ac9610e1c565b80945081955050506000841180611ae05750600083115b8015611b3a5750600073ffffffffffffffffffffffffffffffffffffffff16600960009054906101000a900473ffffffffffffffffffffffffffffffffffffffff1673ffffffffffffffffffffffffffffffffffffffff16145b15611b4457600080fd5b600073ffffffffffffffffffffffffffffffffffffffff16600960009054906101000a900473ffffffffffffffffffffffffffffffffffffffff1673ffffffffffffffffffffffffffffffffffffffff16141515611ce3576000841115611bcf573073ffffffffffffffffffffffffffffffffffffffff16319150838210151515611bce57600080fd5b5b6000831115611ce257600960009054906101000a900473ffffffffffffffffffffffffffffffffffffffff1673ffffffffffffffffffffffffffffffffffffffff166370a08231306040518263ffffffff167c0100000000000000000000000000000000000000000000000000000000028152600401808273ffffffffffffffffffffffffffffffffffffffff1673ffffffffffffffffffffffffffffffffffffffff168152602001915050602060405180830381600087803b158015611c9557600080fd5b505af1158015611ca9573d6000803e3d6000fd5b505050506040513d6020811015611cbf57600080fd5b81019080805190602001909291905050509050828110151515611ce157600080fd5b5b5b611ceb6107da565b1515611d0d576001600960156101000a81548160ff0219169083151502179055505b6001600960146101000a81548160ff0219169083151502179055507f256531276449280f5a3022f3024cb03968cf6ab90d6d067e9bc10768bcbcb08060405160405180910390a150505050565b60025481565b60075481565b6000600960149054906101000a900460ff168015611d915750600960159054906101000a900460ff16155b905090565b6000809054906101000a900473ffffffffffffffffffffffffffffffffffffffff1673ffffffffffffffffffffffffffffffffffffffff163373ffffffffffffffffffffffffffffffffffffffff16141515611df157600080fd5b600073ffffffffffffffffffffffffffffffffffffffff168173ffffffffffffffffffffffffffffffffffffffff1614151515611e2d57600080fd5b8073ffffffffffffffffffffffffffffffffffffffff166000809054906101000a900473ffffffffffffffffffffffffffffffffffffffff1673ffffffffffffffffffffffffffffffffffffffff167f8be0079c531659141344cd1fd0a4f28419497f9722a3daafe3b4186f6b6457e060405160405180910390a3806000806101000a81548173ffffffffffffffffffffffffffffffffffffffff021916908373ffffffffffffffffffffffffffffffffffffffff16021790555050565b6000600960159054906101000a900460ff16905090565b60065481565b6000806000841415611f1d5760009150611f3c565b8284029050828482811515611f2e57fe5b04141515611f3857fe5b8091505b5092915050565b6000808284019050838110151515611f5757fe5b80915050929150505600a165627a7a72305820dbb5c95a1bdbd4ae6c44704f5b94aec07c421f677a907d04270cb153ffcf46a60029",
  "source": "pragma solidity ^0.4.18;\n\n\nimport './interfaces/IBridge.sol';\n\n\n/*\n    Standalone Bridge\n*/\ncontract Bridge is IBridge {\n\n    // Constructor\n    function Bridge(address _owner, address _manager) public {\n        owner = _owner;\n        manager = _manager;\n    }\n\n    /*\n        Only manager\n     */\n\n    // Mints token Rewards to Forecasting contract\n    // called by IWingsController\n    function mintTokenRewards(\n        address _contract,\n        uint256 _amount        // agreed part of totalSold which is intended for rewards\n    )\n        public\n        onlyManager()\n    {\n        // in our example we are transferring tokens instead of minting them\n        token.transfer(_contract, _amount);\n    }\n\n    // called by CrowdsaleController to transfer reward part of ETH\n    // collected by successful crowdsale to Forecasting contract.\n    // This call is made upon closing successful crowdfunding process\n    // iff agreed ETH reward part is not zero\n    function mintETHRewards(\n        address _contract,    // Forecasting contract\n        uint256 _amount         // agreed part of totalCollected which is intended for rewards\n    )\n        public\n        onlyManager() // manager is CrowdsaleController instance\n    {\n        require(_contract.call.value(_amount)());\n    }\n\n    // cancels crowdsale\n    function stop() public onlyManager() hasntStopped()    {\n        // we can stop only not started and not completed crowdsale\n        if (started) {\n            require(!isFailed());\n            require(!isSuccessful());\n        }\n        stopped = true;\n    }\n\n    /*\n        Public\n     */\n\n    // Update information about collected ETH and sold tokens amount\n    function notifySale(uint256 _amount, uint256 _ethAmount, uint256 _tokensAmount)\n        public\n        hasBeenStarted()\n        hasntStopped()\n        whenCrowdsaleAlive()\n        onlyOwner()\n    {\n        totalCollected = totalCollected.add(_amount);\n        totalCollectedETH = totalCollectedETH.add(_ethAmount);\n        totalSold = totalSold.add(_tokensAmount);\n\n        notifiedSale = true;\n    }\n\n    // Validates parameters and starts crowdsale\n    // called by IWingsController\n    function start(\n        uint256 _startTimestamp,\n        uint256 _endTimestamp,\n        address /*_fundingAddress*/\n    )\n        public\n        hasntStarted()\n        hasntStopped()\n        onlyManager()\n    {\n        if (_startTimestamp > 0 && _endTimestamp > 0) {\n            require(_endTimestamp > _startTimestamp);\n        }\n\n        startTimestamp = _startTimestamp;\n        endTimestamp = _endTimestamp;\n\n        started = true;\n\n        CROWDSALE_START(_startTimestamp, _endTimestamp, address(0));\n    }\n\n    // Finish crowdsale\n    function finish()\n        public\n        hasntStopped()\n        hasBeenStarted()\n        whenCrowdsaleAlive()\n        onlyOwner()\n    {\n        // allow to finish bridge only if owner has communicated crowdsale results\n        require(notifiedSale);\n\n        uint256 ethReward;\n        uint256 tokenReward;\n\n        (ethReward, tokenReward) = calculateRewards();\n\n        // if there are rewards to pay but token is absent\n        if ((ethReward > 0 || tokenReward > 0) && address(token) == address(0)) {\n            revert();\n        }\n\n        // check if there are enough rewards on this address\n        if (address(token) != address(0)) {\n            if (ethReward > 0) {\n                uint256 ethBalance = address(this).balance;\n\n                require(ethBalance >= ethReward);\n            }\n\n            if (tokenReward > 0) {\n                uint256 tokenBalance = token.balanceOf(address(this));\n\n                require(tokenBalance >= tokenReward);\n            }\n        }\n\n        if (!reachedMinGoal()) {\n            failed = true;\n        }\n\n        completed = true;\n\n        CUSTOM_CROWDSALE_FINISH();\n    }\n\n    // Change token address (in case you've used the dafault token address during bridge deployment)\n    function changeToken(address _newToken) public onlyOwnerOrManager() uncompleted() {\n        token = DetailedERC20(_newToken);\n\n        uint8 tokenDecimals = uint8(token.decimals());\n\n        require(tokenDecimals >= 8 && tokenDecimals <= 18);\n\n        CUSTOM_CROWDSALE_TOKEN_ADDED(address(token), tokenDecimals);\n    }\n\n    // Set/update crowdsale goal\n    function setCrowdsaleGoal(uint256 _minimalGoal, uint256 _hardCap) public onlyOwnerOrManager() uncompleted() {\n        if (_minimalGoal > 0 && _hardCap > 0) {\n            require(_hardCap > _minimalGoal);\n        }\n\n        if (_minimalGoal > 0) {\n            minimalGoal = _minimalGoal;\n        }\n\n        hardCap = _hardCap;\n\n        CUSTOM_CROWDSALE_GOAL_ADDED(minimalGoal, hardCap);\n    }\n\n    // Set/update crowdsale period\n    function setCrowdsalePeriod(uint256 _startTimestamp, uint256 _endTimestamp) public onlyOwnerOrManager() uncompleted() {\n        if (_startTimestamp > 0 && _endTimestamp > 0) {\n            require(_endTimestamp > _startTimestamp);\n        }\n\n        startTimestamp = _startTimestamp;\n        endTimestamp = _endTimestamp;\n\n        CUSTOM_CROWDSALE_PERIOD_ADDED(startTimestamp, endTimestamp);\n    }\n\n    // Gives owner ability to withdraw eth and wings from Bridge contract balance in case if some error during reward calculation occured\n    function withdraw() public onlyOwner() uncompleted() {\n        uint256 ethBalance = address(this).balance;\n        uint256 tokenBalance = token.balanceOf(address(this));\n\n        if (ethBalance > 0) {\n            require(msg.sender.send(ethBalance));\n        }\n\n        if (tokenBalance > 0) {\n            require(token.transfer(msg.sender, tokenBalance));\n        }\n    }\n\n    /*\n        Public view\n     */\n\n    // Returns address of crowdsale token\n    function getToken() public view returns (address) {\n        return address(token);\n    }\n\n    function isFailed() public view returns (bool) {\n        return failed;\n    }\n\n    function isActive() public view returns (bool) {\n        return started && !completed;\n    }\n\n    function isSuccessful() public view returns (bool) {\n        return completed && !failed;\n    }\n\n    function reachedMinGoal() public view returns (bool) {\n        if (totalCollectedETH > 0) {\n            return totalCollectedETH >= minimalGoal;\n        }\n        return totalCollected >= minimalGoal;\n    }\n\n    // Find out the amount of rewards in ETH and tokens\n    function calculateRewards() public view returns (uint256, uint256) {\n        uint256 tokenRewardPart = IWingsController(manager).tokenRewardPart();\n        uint256 ethRewardPart = IWingsController(manager).ethRewardPart();\n        uint256 ethReward;\n        bool hasEthReward = (ethRewardPart != 0);\n\n        uint256 tokenReward = totalSold.mul(tokenRewardPart) / 1000000;\n\n        if (totalCollectedETH != 0) {\n            totalCollected = totalCollectedETH;\n        }\n\n        totalCollected = IWingsController(manager).fitCollectedValueIntoRange(totalCollected);\n\n        if (hasEthReward) {\n            ethReward = totalCollected.mul(ethRewardPart) / 1000000;\n        }\n\n        return (ethReward, tokenReward);\n    }\n\n    /*\n        Fallback\n     */\n\n    function() public payable {\n    }\n}\n",
  "sourcePath": "/Users/solidity/Desktop/github/wings-light-bridge/contracts/Bridge.sol",
  "compiler": {
    "name": "solc",
    "version": "0.4.24+commit.e67f0147.Emscripten.clang"
  },
  "schemaVersion": "2.0.0",
  "updatedAt": "2018-10-01T19:23:08.228Z"
}