{
  "contractName": "Bridge",
  "abi": [
    {
      "constant": true,
      "inputs": [],
      "name": "reachedMinGoal",
      "outputs": [
        {
          "name": "",
          "type": "bool"
        }
      ],
      "payable": false,
      "stateMutability": "view",
      "type": "function"
    },
    {
      "constant": false,
      "inputs": [],
      "name": "stop",
      "outputs": [],
      "payable": false,
      "stateMutability": "nonpayable",
      "type": "function"
    },
    {
      "constant": true,
      "inputs": [],
      "name": "rewardsAreReady",
      "outputs": [
        {
          "name": "",
          "type": "bool"
        }
      ],
      "payable": false,
      "stateMutability": "view",
      "type": "function"
    },
    {
      "constant": false,
      "inputs": [
        {
          "name": "_minimalGoal",
          "type": "uint256"
        },
        {
          "name": "_hardCap",
          "type": "uint256"
        }
      ],
      "name": "setCrowdsaleGoal",
      "outputs": [],
      "payable": false,
      "stateMutability": "nonpayable",
      "type": "function"
    },
    {
      "constant": false,
      "inputs": [
        {
          "name": "_contract",
          "type": "address"
        },
        {
          "name": "_amount",
          "type": "uint256"
        }
      ],
      "name": "mintETHRewards",
      "outputs": [],
      "payable": false,
      "stateMutability": "nonpayable",
      "type": "function"
    },
    {
      "constant": true,
      "inputs": [],
      "name": "started",
      "outputs": [
        {
          "name": "",
          "type": "bool"
        }
      ],
      "payable": false,
      "stateMutability": "view",
      "type": "function"
    },
    {
      "constant": true,
      "inputs": [],
      "name": "getToken",
      "outputs": [
        {
          "name": "",
          "type": "address"
        }
      ],
      "payable": false,
      "stateMutability": "view",
      "type": "function"
    },
    {
      "constant": true,
      "inputs": [],
      "name": "isActive",
      "outputs": [
        {
          "name": "",
          "type": "bool"
        }
      ],
      "payable": false,
      "stateMutability": "view",
      "type": "function"
    },
    {
      "constant": true,
      "inputs": [],
      "name": "calculateRewards",
      "outputs": [
        {
          "name": "",
          "type": "uint256"
        },
        {
          "name": "",
          "type": "uint256"
        }
      ],
      "payable": false,
      "stateMutability": "view",
      "type": "function"
    },
    {
      "constant": false,
      "inputs": [
        {
          "name": "_ethAmount",
          "type": "uint256"
        },
        {
          "name": "_tokenAmount",
          "type": "uint256"
        }
      ],
      "name": "withdraw",
      "outputs": [],
      "payable": false,
      "stateMutability": "nonpayable",
      "type": "function"
    },
    {
      "constant": true,
      "inputs": [],
      "name": "manager",
      "outputs": [
        {
          "name": "",
          "type": "address"
        }
      ],
      "payable": false,
      "stateMutability": "view",
      "type": "function"
    },
    {
      "constant": true,
      "inputs": [],
      "name": "totalCollectedETH",
      "outputs": [
        {
          "name": "",
          "type": "uint256"
        }
      ],
      "payable": false,
      "stateMutability": "view",
      "type": "function"
    },
    {
      "constant": true,
      "inputs": [],
      "name": "minimalGoal",
      "outputs": [
        {
          "name": "",
          "type": "uint256"
        }
      ],
      "payable": false,
      "stateMutability": "view",
      "type": "function"
    },
    {
      "constant": false,
      "inputs": [
        {
          "name": "_newToken",
          "type": "address"
        }
      ],
      "name": "changeToken",
      "outputs": [],
      "payable": false,
      "stateMutability": "nonpayable",
      "type": "function"
    },
    {
      "constant": true,
      "inputs": [],
      "name": "stopped",
      "outputs": [
        {
          "name": "",
          "type": "bool"
        }
      ],
      "payable": false,
      "stateMutability": "view",
      "type": "function"
    },
    {
      "constant": true,
      "inputs": [],
      "name": "owner",
      "outputs": [
        {
          "name": "",
          "type": "address"
        }
      ],
      "payable": false,
      "stateMutability": "view",
      "type": "function"
    },
    {
      "constant": true,
      "inputs": [],
      "name": "totalSold",
      "outputs": [
        {
          "name": "",
          "type": "uint256"
        }
      ],
      "payable": false,
      "stateMutability": "view",
      "type": "function"
    },
    {
      "constant": false,
      "inputs": [
        {
          "name": "_amount",
          "type": "uint256"
        },
        {
          "name": "_ethAmount",
          "type": "uint256"
        },
        {
          "name": "_tokensAmount",
          "type": "uint256"
        }
      ],
      "name": "notifySale",
      "outputs": [],
      "payable": false,
      "stateMutability": "nonpayable",
      "type": "function"
    },
    {
      "constant": false,
      "inputs": [
        {
          "name": "_startTimestamp",
          "type": "uint256"
        },
        {
          "name": "_endTimestamp",
          "type": "uint256"
        },
        {
          "name": "",
          "type": "address"
        }
      ],
      "name": "start",
      "outputs": [],
      "payable": false,
      "stateMutability": "nonpayable",
      "type": "function"
    },
    {
      "constant": true,
      "inputs": [],
      "name": "endTimestamp",
      "outputs": [
        {
          "name": "",
          "type": "uint256"
        }
      ],
      "payable": false,
      "stateMutability": "view",
      "type": "function"
    },
    {
      "constant": false,
      "inputs": [],
      "name": "releaseTokens",
      "outputs": [],
      "payable": false,
      "stateMutability": "nonpayable",
      "type": "function"
    },
    {
      "constant": false,
      "inputs": [
        {
          "name": "_contract",
          "type": "address"
        },
        {
          "name": "_amount",
          "type": "uint256"
        }
      ],
      "name": "mintTokenRewards",
      "outputs": [],
      "payable": false,
      "stateMutability": "nonpayable",
      "type": "function"
    },
    {
      "constant": false,
      "inputs": [
        {
          "name": "_newManager",
          "type": "address"
        }
      ],
      "name": "transferManager",
      "outputs": [],
      "payable": false,
      "stateMutability": "nonpayable",
      "type": "function"
    },
    {
      "constant": false,
      "inputs": [
        {
          "name": "_startTimestamp",
          "type": "uint256"
        },
        {
          "name": "_endTimestamp",
          "type": "uint256"
        }
      ],
      "name": "setCrowdsalePeriod",
      "outputs": [],
      "payable": false,
      "stateMutability": "nonpayable",
      "type": "function"
    },
    {
      "constant": false,
      "inputs": [],
      "name": "deposit",
      "outputs": [],
      "payable": true,
      "stateMutability": "payable",
      "type": "function"
    },
    {
      "constant": false,
      "inputs": [],
      "name": "finish",
      "outputs": [],
      "payable": false,
      "stateMutability": "nonpayable",
      "type": "function"
    },
    {
      "constant": true,
      "inputs": [],
      "name": "totalCollected",
      "outputs": [
        {
          "name": "",
          "type": "uint256"
        }
      ],
      "payable": false,
      "stateMutability": "view",
      "type": "function"
    },
    {
      "constant": true,
      "inputs": [],
      "name": "startTimestamp",
      "outputs": [
        {
          "name": "",
          "type": "uint256"
        }
      ],
      "payable": false,
      "stateMutability": "view",
      "type": "function"
    },
    {
      "constant": true,
      "inputs": [],
      "name": "isSuccessful",
      "outputs": [
        {
          "name": "",
          "type": "bool"
        }
      ],
      "payable": false,
      "stateMutability": "view",
      "type": "function"
    },
    {
      "constant": false,
      "inputs": [
        {
          "name": "newOwner",
          "type": "address"
        }
      ],
      "name": "transferOwnership",
      "outputs": [],
      "payable": false,
      "stateMutability": "nonpayable",
      "type": "function"
    },
    {
      "constant": true,
      "inputs": [],
      "name": "isFailed",
      "outputs": [
        {
          "name": "",
          "type": "bool"
        }
      ],
      "payable": false,
      "stateMutability": "view",
      "type": "function"
    },
    {
      "constant": true,
      "inputs": [],
      "name": "hardCap",
      "outputs": [
        {
          "name": "",
          "type": "uint256"
        }
      ],
      "payable": false,
      "stateMutability": "view",
      "type": "function"
    },
    {
      "inputs": [
        {
          "name": "_owner",
          "type": "address"
        },
        {
          "name": "_manager",
          "type": "address"
        }
      ],
      "payable": false,
      "stateMutability": "nonpayable",
      "type": "constructor"
    },
    {
      "payable": true,
      "stateMutability": "payable",
      "type": "fallback"
    },
    {
      "anonymous": false,
      "inputs": [
        {
          "indexed": false,
          "name": "startTimestamp",
          "type": "uint256"
        },
        {
          "indexed": false,
          "name": "endTimestamp",
          "type": "uint256"
        },
        {
          "indexed": false,
          "name": "fundingAddress",
          "type": "address"
        }
      ],
      "name": "CROWDSALE_START",
      "type": "event"
    },
    {
      "anonymous": false,
      "inputs": [
        {
          "indexed": false,
          "name": "token",
          "type": "address"
        },
        {
          "indexed": false,
          "name": "decimals",
          "type": "uint8"
        }
      ],
      "name": "CUSTOM_CROWDSALE_TOKEN_ADDED",
      "type": "event"
    },
    {
      "anonymous": false,
      "inputs": [
        {
          "indexed": false,
          "name": "minimalGoal",
          "type": "uint256"
        },
        {
          "indexed": false,
          "name": "hardCap",
          "type": "uint256"
        }
      ],
      "name": "CUSTOM_CROWDSALE_GOAL_ADDED",
      "type": "event"
    },
    {
      "anonymous": false,
      "inputs": [
        {
          "indexed": false,
          "name": "startTimestamp",
          "type": "uint256"
        },
        {
          "indexed": false,
          "name": "endTimestamp",
          "type": "uint256"
        }
      ],
      "name": "CUSTOM_CROWDSALE_PERIOD_ADDED",
      "type": "event"
    },
    {
      "anonymous": false,
      "inputs": [
        {
          "indexed": false,
          "name": "totalCollected",
          "type": "uint256"
        },
        {
          "indexed": false,
          "name": "totalCollectedETH",
          "type": "uint256"
        },
        {
          "indexed": false,
          "name": "totalSold",
          "type": "uint256"
        }
      ],
      "name": "CUSTOM_CROWDSALE_RESULT",
      "type": "event"
    },
    {
      "anonymous": false,
      "inputs": [],
      "name": "CUSTOM_CROWDSALE_FINISH",
      "type": "event"
    },
    {
      "anonymous": false,
      "inputs": [
        {
          "indexed": true,
          "name": "previousOwner",
          "type": "address"
        },
        {
          "indexed": true,
          "name": "newOwner",
          "type": "address"
        }
      ],
      "name": "OwnershipTransferred",
      "type": "event"
    }
  ],
  "bytecode": "0x6060604052341561000f57600080fd5b604051604080611f6183398101604052808051906020019091908051906020019091905050336000806101000a81548173ffffffffffffffffffffffffffffffffffffffff021916908373ffffffffffffffffffffffffffffffffffffffff160217905550816000806101000a81548173ffffffffffffffffffffffffffffffffffffffff021916908373ffffffffffffffffffffffffffffffffffffffff16021790555080600160006101000a81548173ffffffffffffffffffffffffffffffffffffffff021916908373ffffffffffffffffffffffffffffffffffffffff1602179055505050611e5b806101066000396000f300606060405260043610610196576000357c0100000000000000000000000000000000000000000000000000000000900463ffffffff168063058bf2141461019857806307da68f5146101c5578063101b8a41146101da578063181956ae1461020757806318c9ef97146102335780631f2698ab1461027557806321df0da7146102a257806322f3e2d4146102f75780633e50de3014610324578063441a3e7014610354578063481c6a75146103805780635d202249146103d55780636385cbbe146103fe57806366829b161461042757806375f12b21146104605780638da5cb5b1461048d5780639106d7ba146104e257806393f33b881461050b578063a51fe11314610540578063a85adeab1461058b578063a96f8668146105b4578063b23c1f19146105c9578063ba0e930a1461060b578063c8e9d8ac14610644578063d0e30db014610670578063d56b28891461067a578063e29eb8361461068f578063e6fd48bc146106b8578063ec4cd0cf146106e1578063f2fde38b1461070e578063f416334014610747578063fb86a40414610774575b005b34156101a357600080fd5b6101ab61079d565b604051808215151515815260200191505060405180910390f35b34156101d057600080fd5b6101d86107ac565b005b34156101e557600080fd5b6101ed61087e565b604051808215151515815260200191505060405180910390f35b341561021257600080fd5b6102316004808035906020019091908035906020019091905050610a34565b005b341561023e57600080fd5b610273600480803573ffffffffffffffffffffffffffffffffffffffff16906020019091908035906020019091905050610b86565b005b341561028057600080fd5b610288610c21565b604051808215151515815260200191505060405180910390f35b34156102ad57600080fd5b6102b5610c34565b604051808273ffffffffffffffffffffffffffffffffffffffff1673ffffffffffffffffffffffffffffffffffffffff16815260200191505060405180910390f35b341561030257600080fd5b61030a610c5e565b604051808215151515815260200191505060405180910390f35b341561032f57600080fd5b610337610c8e565b604051808381526020018281526020019250505060405180910390f35b341561035f57600080fd5b61037e6004808035906020019091908035906020019091905050610f28565b005b341561038b57600080fd5b61039361121d565b604051808273ffffffffffffffffffffffffffffffffffffffff1673ffffffffffffffffffffffffffffffffffffffff16815260200191505060405180910390f35b34156103e057600080fd5b6103e8611243565b6040518082815260200191505060405180910390f35b341561040957600080fd5b610411611249565b6040518082815260200191505060405180910390f35b341561043257600080fd5b61045e600480803573ffffffffffffffffffffffffffffffffffffffff1690602001909190505061124f565b005b341561046b57600080fd5b6104736114c6565b604051808215151515815260200191505060405180910390f35b341561049857600080fd5b6104a06114d9565b604051808273ffffffffffffffffffffffffffffffffffffffff1673ffffffffffffffffffffffffffffffffffffffff16815260200191505060405180910390f35b34156104ed57600080fd5b6104f56114fe565b6040518082815260200191505060405180910390f35b341561051657600080fd5b61053e6004808035906020019091908035906020019091908035906020019091905050611504565b005b341561054b57600080fd5b610589600480803590602001909190803590602001909190803573ffffffffffffffffffffffffffffffffffffffff1690602001909190505061162b565b005b341561059657600080fd5b61059e611784565b6040518082815260200191505060405180910390f35b34156105bf57600080fd5b6105c761178a565b005b34156105d457600080fd5b610609600480803573ffffffffffffffffffffffffffffffffffffffff1690602001909190803590602001909190505061178c565b005b341561061657600080fd5b610642600480803573ffffffffffffffffffffffffffffffffffffffff169060200190919050506118d5565b005b341561064f57600080fd5b61066e60048080359060200190919080359060200190919050506119b1565b005b610678611af9565b005b341561068557600080fd5b61068d611afb565b005b341561069a57600080fd5b6106a2611c46565b6040518082815260200191505060405180910390f35b34156106c357600080fd5b6106cb611c4c565b6040518082815260200191505060405180910390f35b34156106ec57600080fd5b6106f4611c52565b604051808215151515815260200191505060405180910390f35b341561071957600080fd5b610745600480803573ffffffffffffffffffffffffffffffffffffffff16906020019091905050611c82565b005b341561075257600080fd5b61075a611dd7565b604051808215151515815260200191505060405180910390f35b341561077f57600080fd5b610787611dee565b6040518082815260200191505060405180910390f35b60006005546002541015905090565b600160009054906101000a900473ffffffffffffffffffffffffffffffffffffffff1673ffffffffffffffffffffffffffffffffffffffff163373ffffffffffffffffffffffffffffffffffffffff1614151561080857600080fd5b600160159054906101000a900460ff1615151561082457600080fd5b600160149054906101000a900460ff161561086257610841611dd7565b15151561084d57600080fd5b610855611c52565b15151561086157600080fd5b5b60018060156101000a81548160ff021916908315150217905550565b600080600080600061088e610c8e565b809450819550505060008411156108cb573073ffffffffffffffffffffffffffffffffffffffff16319150838210156108ca5760009450610a2d565b5b6000831115610a2857600073ffffffffffffffffffffffffffffffffffffffff16600960009054906101000a900473ffffffffffffffffffffffffffffffffffffffff1673ffffffffffffffffffffffffffffffffffffffff1614156109345760009450610a2d565b600960009054906101000a900473ffffffffffffffffffffffffffffffffffffffff1673ffffffffffffffffffffffffffffffffffffffff166370a08231306000604051602001526040518263ffffffff167c0100000000000000000000000000000000000000000000000000000000028152600401808273ffffffffffffffffffffffffffffffffffffffff1673ffffffffffffffffffffffffffffffffffffffff168152602001915050602060405180830381600087803b15156109f957600080fd5b6102c65a03f11515610a0a57600080fd5b50505060405180519050905082811015610a275760009450610a2d565b5b600194505b5050505090565b6000809054906101000a900473ffffffffffffffffffffffffffffffffffffffff1673ffffffffffffffffffffffffffffffffffffffff163373ffffffffffffffffffffffffffffffffffffffff161480610adc5750600160009054906101000a900473ffffffffffffffffffffffffffffffffffffffff1673ffffffffffffffffffffffffffffffffffffffff163373ffffffffffffffffffffffffffffffffffffffff16145b1515610ae757600080fd5b600960149054906101000a900460ff16151515610b0357600080fd5b600082118015610b135750600081115b15610b27578181111515610b2657600080fd5b5b6000821115610b3857816005819055505b806006819055507f8a107dbf550ef189cf0475e419d4fb817092ced37114d2b5efe4c816926b27ee600554600654604051808381526020018281526020019250505060405180910390a15050565b600160009054906101000a900473ffffffffffffffffffffffffffffffffffffffff1673ffffffffffffffffffffffffffffffffffffffff163373ffffffffffffffffffffffffffffffffffffffff16141515610be257600080fd5b8173ffffffffffffffffffffffffffffffffffffffff168160405160006040518083038185876187965a03f1925050501515610c1d57600080fd5b5050565b600160149054906101000a900460ff1681565b6000600960009054906101000a900473ffffffffffffffffffffffffffffffffffffffff16905090565b6000600160149054906101000a900460ff168015610c895750600960149054906101000a900460ff16155b905090565b6000806000806000806000600160009054906101000a900473ffffffffffffffffffffffffffffffffffffffff1673ffffffffffffffffffffffffffffffffffffffff1663a823cfaf6000604051602001526040518163ffffffff167c0100000000000000000000000000000000000000000000000000000000028152600401602060405180830381600087803b1515610d2757600080fd5b6102c65a03f11515610d3857600080fd5b505050604051805190509450600160009054906101000a900473ffffffffffffffffffffffffffffffffffffffff1673ffffffffffffffffffffffffffffffffffffffff166380fa81b16000604051602001526040518163ffffffff167c0100000000000000000000000000000000000000000000000000000000028152600401602060405180830381600087803b1515610dd257600080fd5b6102c65a03f11515610de357600080fd5b50505060405180519050935060008414159150620f4240610e0f86600454611df490919063ffffffff16565b811515610e1857fe5b0490506000600354141515610e31576003546002819055505b600160009054906101000a900473ffffffffffffffffffffffffffffffffffffffff1673ffffffffffffffffffffffffffffffffffffffff16633350ae366002546000604051602001526040518263ffffffff167c010000000000000000000000000000000000000000000000000000000002815260040180828152602001915050602060405180830381600087803b1515610ecc57600080fd5b6102c65a03f11515610edd57600080fd5b505050604051805190506002819055508115610f1957620f4240610f0c85600254611df490919063ffffffff16565b811515610f1557fe5b0492505b82819650965050505050509091565b6000806000809054906101000a900473ffffffffffffffffffffffffffffffffffffffff1673ffffffffffffffffffffffffffffffffffffffff163373ffffffffffffffffffffffffffffffffffffffff16141515610f8657600080fd5b600960149054906101000a900460ff168015610faf5750600960159054906101000a900460ff16155b15610fb957600080fd5b3073ffffffffffffffffffffffffffffffffffffffff16319150600960009054906101000a900473ffffffffffffffffffffffffffffffffffffffff1673ffffffffffffffffffffffffffffffffffffffff166370a08231306000604051602001526040518263ffffffff167c0100000000000000000000000000000000000000000000000000000000028152600401808273ffffffffffffffffffffffffffffffffffffffff1673ffffffffffffffffffffffffffffffffffffffff168152602001915050602060405180830381600087803b151561109857600080fd5b6102c65a03f115156110a957600080fd5b5050506040518051905090508382101580156110c55750828110155b15156110d057600080fd5b600084111561111a573373ffffffffffffffffffffffffffffffffffffffff166108fc859081150290604051600060405180830381858888f19350505050151561111957600080fd5b5b600083111561121757600960009054906101000a900473ffffffffffffffffffffffffffffffffffffffff1673ffffffffffffffffffffffffffffffffffffffff1663a9059cbb33856000604051602001526040518363ffffffff167c0100000000000000000000000000000000000000000000000000000000028152600401808373ffffffffffffffffffffffffffffffffffffffff1673ffffffffffffffffffffffffffffffffffffffff16815260200182815260200192505050602060405180830381600087803b15156111f057600080fd5b6102c65a03f1151561120157600080fd5b50505060405180519050151561121657600080fd5b5b50505050565b600160009054906101000a900473ffffffffffffffffffffffffffffffffffffffff1681565b60035481565b60055481565b60008060009054906101000a900473ffffffffffffffffffffffffffffffffffffffff1673ffffffffffffffffffffffffffffffffffffffff163373ffffffffffffffffffffffffffffffffffffffff1614806112f95750600160009054906101000a900473ffffffffffffffffffffffffffffffffffffffff1673ffffffffffffffffffffffffffffffffffffffff163373ffffffffffffffffffffffffffffffffffffffff16145b151561130457600080fd5b600960149054906101000a900460ff1615151561132057600080fd5b81600960006101000a81548173ffffffffffffffffffffffffffffffffffffffff021916908373ffffffffffffffffffffffffffffffffffffffff160217905550600960009054906101000a900473ffffffffffffffffffffffffffffffffffffffff1673ffffffffffffffffffffffffffffffffffffffff1663313ce5676000604051602001526040518163ffffffff167c0100000000000000000000000000000000000000000000000000000000028152600401602060405180830381600087803b15156113ef57600080fd5b6102c65a03f1151561140057600080fd5b50505060405180519050905060088160ff1610158015611424575060128160ff1611155b151561142f57600080fd5b7fed6f18557b7914dbfc23d546be65de82017608e11b87429e06c0b88b55f0b6c3600960009054906101000a900473ffffffffffffffffffffffffffffffffffffffff1682604051808373ffffffffffffffffffffffffffffffffffffffff1673ffffffffffffffffffffffffffffffffffffffff1681526020018260ff1660ff1681526020019250505060405180910390a15050565b600160159054906101000a900460ff1681565b6000809054906101000a900473ffffffffffffffffffffffffffffffffffffffff1681565b60045481565b600160149054906101000a900460ff16151561151f57600080fd5b600160159054906101000a900460ff1615151561153b57600080fd5b611543610c5e565b151561154e57600080fd5b6000809054906101000a900473ffffffffffffffffffffffffffffffffffffffff1673ffffffffffffffffffffffffffffffffffffffff163373ffffffffffffffffffffffffffffffffffffffff161415156115a957600080fd5b8260028190555081600381905550806004819055506001600960166101000a81548160ff0219169083151502179055507f10f0b871ca3d096dd779448d14fd988d6ace5dbf13ca227bdc53bbe278a011ba60025460035460045460405180848152602001838152602001828152602001935050505060405180910390a1505050565b600160149054906101000a900460ff1615151561164757600080fd5b600160159054906101000a900460ff1615151561166357600080fd5b600160009054906101000a900473ffffffffffffffffffffffffffffffffffffffff1673ffffffffffffffffffffffffffffffffffffffff163373ffffffffffffffffffffffffffffffffffffffff161415156116bf57600080fd5b6000831180156116cf5750600082115b156116e35782821115156116e257600080fd5b5b826007819055508160088190555060018060146101000a81548160ff0219169083151502179055507ffccf552413932efea18979436cc8ce92942bdef118c2b5682351e1891bef807283836000604051808481526020018381526020018273ffffffffffffffffffffffffffffffffffffffff1673ffffffffffffffffffffffffffffffffffffffff168152602001935050505060405180910390a1505050565b60085481565b565b600160009054906101000a900473ffffffffffffffffffffffffffffffffffffffff1673ffffffffffffffffffffffffffffffffffffffff163373ffffffffffffffffffffffffffffffffffffffff161415156117e857600080fd5b600960009054906101000a900473ffffffffffffffffffffffffffffffffffffffff1673ffffffffffffffffffffffffffffffffffffffff1663a9059cbb83836000604051602001526040518363ffffffff167c0100000000000000000000000000000000000000000000000000000000028152600401808373ffffffffffffffffffffffffffffffffffffffff1673ffffffffffffffffffffffffffffffffffffffff16815260200182815260200192505050602060405180830381600087803b15156118b557600080fd5b6102c65a03f115156118c657600080fd5b50505060405180519050505050565b600160009054906101000a900473ffffffffffffffffffffffffffffffffffffffff1673ffffffffffffffffffffffffffffffffffffffff163373ffffffffffffffffffffffffffffffffffffffff1614151561193157600080fd5b600073ffffffffffffffffffffffffffffffffffffffff168173ffffffffffffffffffffffffffffffffffffffff161415151561196d57600080fd5b80600160006101000a81548173ffffffffffffffffffffffffffffffffffffffff021916908373ffffffffffffffffffffffffffffffffffffffff16021790555050565b6000809054906101000a900473ffffffffffffffffffffffffffffffffffffffff1673ffffffffffffffffffffffffffffffffffffffff163373ffffffffffffffffffffffffffffffffffffffff161480611a595750600160009054906101000a900473ffffffffffffffffffffffffffffffffffffffff1673ffffffffffffffffffffffffffffffffffffffff163373ffffffffffffffffffffffffffffffffffffffff16145b1515611a6457600080fd5b600960149054906101000a900460ff16151515611a8057600080fd5b600082118015611a905750600081115b15611aa4578181111515611aa357600080fd5b5b81600781905550806008819055507f70b2168874684694af024b9b82966aedd9e12634e3229136b7d89247b5a2b071600754600854604051808381526020018281526020019250505060405180910390a15050565b565b600160159054906101000a900460ff16151515611b1757600080fd5b600160149054906101000a900460ff161515611b3257600080fd5b611b3a610c5e565b1515611b4557600080fd5b6000809054906101000a900473ffffffffffffffffffffffffffffffffffffffff1673ffffffffffffffffffffffffffffffffffffffff163373ffffffffffffffffffffffffffffffffffffffff16141515611ba057600080fd5b600960169054906101000a900460ff161515611bbb57600080fd5b611bc361079d565b1515611be9576001600960156101000a81548160ff021916908315150217905550611bfd565b611bf161087e565b1515611bfc57600080fd5b5b6001600960146101000a81548160ff0219169083151502179055507f256531276449280f5a3022f3024cb03968cf6ab90d6d067e9bc10768bcbcb08060405160405180910390a1565b60025481565b60075481565b6000600960149054906101000a900460ff168015611c7d5750600960159054906101000a900460ff16155b905090565b6000809054906101000a900473ffffffffffffffffffffffffffffffffffffffff1673ffffffffffffffffffffffffffffffffffffffff163373ffffffffffffffffffffffffffffffffffffffff16141515611cdd57600080fd5b600073ffffffffffffffffffffffffffffffffffffffff168173ffffffffffffffffffffffffffffffffffffffff1614151515611d1957600080fd5b8073ffffffffffffffffffffffffffffffffffffffff166000809054906101000a900473ffffffffffffffffffffffffffffffffffffffff1673ffffffffffffffffffffffffffffffffffffffff167f8be0079c531659141344cd1fd0a4f28419497f9722a3daafe3b4186f6b6457e060405160405180910390a3806000806101000a81548173ffffffffffffffffffffffffffffffffffffffff021916908373ffffffffffffffffffffffffffffffffffffffff16021790555050565b6000600960159054906101000a900460ff16905090565b60065481565b6000806000841415611e095760009150611e28565b8284029050828482811515611e1a57fe5b04141515611e2457fe5b8091505b50929150505600a165627a7a723058203bcabd573a8e979f06ebd6efe87caa455764e89e4263bc9dad5ec3328c381fea0029",
  "source": "pragma solidity ^0.4.18;\n\n\nimport './interfaces/IBridge.sol';\n\n\n/*\n    Standalone Bridge\n*/\ncontract Bridge is IBridge {\n\n    // Constructor\n    function Bridge(address _owner, address _manager) public {\n        owner = _owner;\n        manager = _manager;\n    }\n\n    /*\n        Only manager\n     */\n\n    // Mints token Rewards to Forecasting contract\n    // called by IWingsController\n    function mintTokenRewards(\n        address _contract,\n        uint256 _amount        // agreed part of totalSold which is intended for rewards\n    )\n        public\n        onlyManager()\n    {\n        // in our example we are transferring tokens instead of minting them\n        token.transfer(_contract, _amount);\n    }\n\n    // called by CrowdsaleController to transfer reward part of ETH\n    // collected by successful crowdsale to Forecasting contract.\n    // This call is made upon closing successful crowdfunding process\n    // if agreed ETH reward part is not zero\n    function mintETHRewards(\n        address _contract,    // Forecasting contract\n        uint256 _amount         // agreed part of totalCollected which is intended for rewards\n    )\n        public\n        onlyManager() // manager is CrowdsaleController instance\n    {\n        require(_contract.call.value(_amount)());\n    }\n\n    // cancels crowdsale\n    function stop() public onlyManager() hasntStopped()    {\n        // we can stop only not started and not completed crowdsale\n        if (started) {\n            require(!isFailed());\n            require(!isSuccessful());\n        }\n        stopped = true;\n    }\n\n    /*\n        Public\n     */\n\n    // Update information about collected ETH and sold tokens amount\n    function notifySale(uint256 _amount, uint256 _ethAmount, uint256 _tokensAmount)\n        public\n        hasBeenStarted()\n        hasntStopped()\n        whenCrowdsaleAlive()\n        onlyOwner()\n    {\n        totalCollected = _amount;\n        totalCollectedETH = _ethAmount;\n        totalSold = _tokensAmount;\n\n        notifiedSale = true;\n\n        CUSTOM_CROWDSALE_RESULT(totalCollected, totalCollectedETH, totalSold);\n    }\n\n    // Validates parameters and starts crowdsale\n    // called by IWingsController\n    function start(\n        uint256 _startTimestamp,\n        uint256 _endTimestamp,\n        address /*_fundingAddress*/\n    )\n        public\n        hasntStarted()\n        hasntStopped()\n        onlyManager()\n    {\n        if (_startTimestamp > 0 && _endTimestamp > 0) {\n            require(_endTimestamp > _startTimestamp);\n        }\n\n        startTimestamp = _startTimestamp;\n        endTimestamp = _endTimestamp;\n\n        started = true;\n\n        CROWDSALE_START(_startTimestamp, _endTimestamp, address(0));\n    }\n\n    // Finish crowdsale\n    function finish()\n        public\n        hasntStopped()\n        hasBeenStarted()\n        whenCrowdsaleAlive()\n        onlyOwner()\n    {\n        // allow to finish bridge only if owner has communicated crowdsale results\n        require(notifiedSale);\n\n        if (!reachedMinGoal()) {\n            failed = true;\n        } else {\n            // if crowdsale is not failed there should be rewards in order to finish bridge\n            require(rewardsAreReady());\n        }\n\n        completed = true;\n\n        CUSTOM_CROWDSALE_FINISH();\n    }\n\n    // Change token address (in case you've used the dafault token address during bridge deployment)\n    function changeToken(address _newToken) public onlyOwnerOrManager() uncompleted() {\n        token = DetailedERC20(_newToken);\n\n        uint8 tokenDecimals = uint8(token.decimals());\n\n        require(tokenDecimals >= 8 && tokenDecimals <= 18);\n\n        CUSTOM_CROWDSALE_TOKEN_ADDED(address(token), tokenDecimals);\n    }\n\n    // Set/update crowdsale goal\n    function setCrowdsaleGoal(uint256 _minimalGoal, uint256 _hardCap) public onlyOwnerOrManager() uncompleted() {\n        if (_minimalGoal > 0 && _hardCap > 0) {\n            require(_hardCap > _minimalGoal);\n        }\n\n        if (_minimalGoal > 0) {\n            minimalGoal = _minimalGoal;\n        }\n\n        hardCap = _hardCap;\n\n        CUSTOM_CROWDSALE_GOAL_ADDED(minimalGoal, hardCap);\n    }\n\n    // Set/update crowdsale period\n    function setCrowdsalePeriod(uint256 _startTimestamp, uint256 _endTimestamp) public onlyOwnerOrManager() uncompleted() {\n        if (_startTimestamp > 0 && _endTimestamp > 0) {\n            require(_endTimestamp > _startTimestamp);\n        }\n\n        startTimestamp = _startTimestamp;\n        endTimestamp = _endTimestamp;\n\n        CUSTOM_CROWDSALE_PERIOD_ADDED(startTimestamp, endTimestamp);\n    }\n\n    // Gives owner ability to withdraw eth and wings from Bridge contract balance in case\n    // if some error during reward calculation occured or crowdsale failed\n    function withdraw(uint256 _ethAmount, uint256 _tokenAmount) public onlyOwner() {\n        if (completed && !failed) {\n            revert();\n        }\n\n        uint256 ethBalance = address(this).balance;\n        uint256 tokenBalance = token.balanceOf(address(this));\n\n        require(ethBalance >= _ethAmount && tokenBalance >= _tokenAmount);\n\n        if (_ethAmount > 0) {\n            msg.sender.transfer(_ethAmount);\n        }\n\n        if (_tokenAmount > 0) {\n            require(token.transfer(msg.sender, _tokenAmount));\n        }\n    }\n\n    /*\n        Public view\n     */\n\n    // Returns address of crowdsale token\n    function getToken() public view returns (address) {\n        return address(token);\n    }\n\n    function isFailed() public view returns (bool) {\n        return failed;\n    }\n\n    function isActive() public view returns (bool) {\n        return started && !completed;\n    }\n\n    function isSuccessful() public view returns (bool) {\n        return completed && !failed;\n    }\n\n    function reachedMinGoal() public view returns (bool) {\n        return totalCollected >= minimalGoal;\n    }\n\n    // Find out the amount of rewards in ETH and tokens\n    function calculateRewards() public view returns (uint256, uint256) {\n        uint256 tokenRewardPart = IWingsController(manager).tokenRewardPart();\n        uint256 ethRewardPart = IWingsController(manager).ethRewardPart();\n        uint256 ethReward;\n        bool hasEthReward = (ethRewardPart != 0);\n\n        uint256 tokenReward = totalSold.mul(tokenRewardPart) / 1000000;\n\n        if (totalCollectedETH != 0) {\n            totalCollected = totalCollectedETH;\n        }\n\n        totalCollected = IWingsController(manager).fitCollectedValueIntoRange(totalCollected);\n\n        if (hasEthReward) {\n            ethReward = totalCollected.mul(ethRewardPart) / 1000000;\n        }\n\n        return (ethReward, tokenReward);\n    }\n\n    // Find out whether rewards are ready to be distributed\n    function rewardsAreReady() public view returns (bool) {\n        uint256 ethReward;\n        uint256 tokenReward;\n\n        (ethReward, tokenReward) = calculateRewards();\n\n        // check if there are enough eth rewards on this address\n        if (ethReward > 0) {\n            uint256 ethBalance = address(this).balance;\n\n            if (ethBalance < ethReward) {\n                return false;\n            }\n        }\n\n        // check if there are enough tokens rewards on this address\n        if (tokenReward > 0) {\n            if (address(token) == address(0)) {\n                return false;\n            }\n\n            uint256 tokenBalance = token.balanceOf(address(this));\n\n            if (tokenBalance < tokenReward) {\n                return false;\n            }\n        }\n\n        return true;\n    }\n\n    /*\n        Fallback\n     */\n\n    function() public payable {\n    }\n}\n",
  "sourcePath": "/Users/solidity/Desktop/wings/wings-light-bridge/contracts/Bridge.sol",
  "compiler": {
    "name": "solc",
    "version": "0.4.18+commit.9cf6e910.Emscripten.clang"
  },
  "schemaVersion": "1.0.1",
  "updatedAt": "2018-12-10T06:41:30.742Z"
}