{
  "contractName": "Bridge",
  "abi": [
    {
      "constant": true,
      "inputs": [],
      "name": "started",
      "outputs": [
        {
          "name": "",
          "type": "bool"
        }
      ],
      "payable": false,
      "stateMutability": "view",
      "type": "function"
    },
    {
      "constant": true,
      "inputs": [],
      "name": "manager",
      "outputs": [
        {
          "name": "",
          "type": "address"
        }
      ],
      "payable": false,
      "stateMutability": "view",
      "type": "function"
    },
    {
      "constant": true,
      "inputs": [],
      "name": "totalCollectedETH",
      "outputs": [
        {
          "name": "",
          "type": "uint256"
        }
      ],
      "payable": false,
      "stateMutability": "view",
      "type": "function"
    },
    {
      "constant": true,
      "inputs": [],
      "name": "minimalGoal",
      "outputs": [
        {
          "name": "",
          "type": "uint256"
        }
      ],
      "payable": false,
      "stateMutability": "view",
      "type": "function"
    },
    {
      "constant": true,
      "inputs": [],
      "name": "stopped",
      "outputs": [
        {
          "name": "",
          "type": "bool"
        }
      ],
      "payable": false,
      "stateMutability": "view",
      "type": "function"
    },
    {
      "constant": true,
      "inputs": [],
      "name": "owner",
      "outputs": [
        {
          "name": "",
          "type": "address"
        }
      ],
      "payable": false,
      "stateMutability": "view",
      "type": "function"
    },
    {
      "constant": true,
      "inputs": [],
      "name": "totalSold",
      "outputs": [
        {
          "name": "",
          "type": "uint256"
        }
      ],
      "payable": false,
      "stateMutability": "view",
      "type": "function"
    },
    {
      "constant": true,
      "inputs": [],
      "name": "endTimestamp",
      "outputs": [
        {
          "name": "",
          "type": "uint256"
        }
      ],
      "payable": false,
      "stateMutability": "view",
      "type": "function"
    },
    {
      "constant": false,
      "inputs": [],
      "name": "releaseTokens",
      "outputs": [],
      "payable": false,
      "stateMutability": "nonpayable",
      "type": "function"
    },
    {
      "constant": false,
      "inputs": [
        {
          "name": "_newManager",
          "type": "address"
        }
      ],
      "name": "transferManager",
      "outputs": [],
      "payable": false,
      "stateMutability": "nonpayable",
      "type": "function"
    },
    {
      "constant": false,
      "inputs": [],
      "name": "deposit",
      "outputs": [],
      "payable": true,
      "stateMutability": "payable",
      "type": "function"
    },
    {
      "constant": true,
      "inputs": [],
      "name": "totalCollected",
      "outputs": [
        {
          "name": "",
          "type": "uint256"
        }
      ],
      "payable": false,
      "stateMutability": "view",
      "type": "function"
    },
    {
      "constant": true,
      "inputs": [],
      "name": "startTimestamp",
      "outputs": [
        {
          "name": "",
          "type": "uint256"
        }
      ],
      "payable": false,
      "stateMutability": "view",
      "type": "function"
    },
    {
      "constant": false,
      "inputs": [
        {
          "name": "newOwner",
          "type": "address"
        }
      ],
      "name": "transferOwnership",
      "outputs": [],
      "payable": false,
      "stateMutability": "nonpayable",
      "type": "function"
    },
    {
      "constant": true,
      "inputs": [],
      "name": "hardCap",
      "outputs": [
        {
          "name": "",
          "type": "uint256"
        }
      ],
      "payable": false,
      "stateMutability": "view",
      "type": "function"
    },
    {
      "inputs": [
        {
          "name": "_owner",
          "type": "address"
        },
        {
          "name": "_manager",
          "type": "address"
        }
      ],
      "payable": false,
      "stateMutability": "nonpayable",
      "type": "constructor"
    },
    {
      "payable": true,
      "stateMutability": "payable",
      "type": "fallback"
    },
    {
      "anonymous": false,
      "inputs": [
        {
          "indexed": false,
          "name": "startTimestamp",
          "type": "uint256"
        },
        {
          "indexed": false,
          "name": "endTimestamp",
          "type": "uint256"
        },
        {
          "indexed": false,
          "name": "fundingAddress",
          "type": "address"
        }
      ],
      "name": "CROWDSALE_START",
      "type": "event"
    },
    {
      "anonymous": false,
      "inputs": [
        {
          "indexed": false,
          "name": "token",
          "type": "address"
        },
        {
          "indexed": false,
          "name": "decimals",
          "type": "uint8"
        }
      ],
      "name": "CUSTOM_CROWDSALE_TOKEN_ADDED",
      "type": "event"
    },
    {
      "anonymous": false,
      "inputs": [
        {
          "indexed": false,
          "name": "minimalGoal",
          "type": "uint256"
        },
        {
          "indexed": false,
          "name": "hardCap",
          "type": "uint256"
        }
      ],
      "name": "CUSTOM_CROWDSALE_GOAL_ADDED",
      "type": "event"
    },
    {
      "anonymous": false,
      "inputs": [
        {
          "indexed": false,
          "name": "startTimestamp",
          "type": "uint256"
        },
        {
          "indexed": false,
          "name": "endTimestamp",
          "type": "uint256"
        }
      ],
      "name": "CUSTOM_CROWDSALE_PERIOD_ADDED",
      "type": "event"
    },
    {
      "anonymous": false,
      "inputs": [],
      "name": "CUSTOM_CROWDSALE_FINISH",
      "type": "event"
    },
    {
      "anonymous": false,
      "inputs": [
        {
          "indexed": true,
          "name": "previousOwner",
          "type": "address"
        },
        {
          "indexed": true,
          "name": "newOwner",
          "type": "address"
        }
      ],
      "name": "OwnershipTransferred",
      "type": "event"
    },
    {
      "constant": false,
      "inputs": [
        {
          "name": "_contract",
          "type": "address"
        },
        {
          "name": "_amount",
          "type": "uint256"
        }
      ],
      "name": "mintTokenRewards",
      "outputs": [],
      "payable": false,
      "stateMutability": "nonpayable",
      "type": "function"
    },
    {
      "constant": false,
      "inputs": [
        {
          "name": "_contract",
          "type": "address"
        },
        {
          "name": "_amount",
          "type": "uint256"
        }
      ],
      "name": "mintETHRewards",
      "outputs": [],
      "payable": false,
      "stateMutability": "nonpayable",
      "type": "function"
    },
    {
      "constant": false,
      "inputs": [],
      "name": "stop",
      "outputs": [],
      "payable": false,
      "stateMutability": "nonpayable",
      "type": "function"
    },
    {
      "constant": false,
      "inputs": [
        {
          "name": "_amount",
          "type": "uint256"
        },
        {
          "name": "_ethAmount",
          "type": "uint256"
        },
        {
          "name": "_tokensAmount",
          "type": "uint256"
        }
      ],
      "name": "notifySale",
      "outputs": [],
      "payable": false,
      "stateMutability": "nonpayable",
      "type": "function"
    },
    {
      "constant": false,
      "inputs": [
        {
          "name": "_startTimestamp",
          "type": "uint256"
        },
        {
          "name": "_endTimestamp",
          "type": "uint256"
        },
        {
          "name": "",
          "type": "address"
        }
      ],
      "name": "start",
      "outputs": [],
      "payable": false,
      "stateMutability": "nonpayable",
      "type": "function"
    },
    {
      "constant": false,
      "inputs": [],
      "name": "finish",
      "outputs": [],
      "payable": false,
      "stateMutability": "nonpayable",
      "type": "function"
    },
    {
      "constant": false,
      "inputs": [
        {
          "name": "_newToken",
          "type": "address"
        }
      ],
      "name": "changeToken",
      "outputs": [],
      "payable": false,
      "stateMutability": "nonpayable",
      "type": "function"
    },
    {
      "constant": false,
      "inputs": [
        {
          "name": "_minimalGoal",
          "type": "uint256"
        },
        {
          "name": "_hardCap",
          "type": "uint256"
        }
      ],
      "name": "setCrowdsaleGoal",
      "outputs": [],
      "payable": false,
      "stateMutability": "nonpayable",
      "type": "function"
    },
    {
      "constant": false,
      "inputs": [
        {
          "name": "_startTimestamp",
          "type": "uint256"
        },
        {
          "name": "_endTimestamp",
          "type": "uint256"
        }
      ],
      "name": "setCrowdsalePeriod",
      "outputs": [],
      "payable": false,
      "stateMutability": "nonpayable",
      "type": "function"
    },
    {
      "constant": false,
      "inputs": [],
      "name": "withdraw",
      "outputs": [],
      "payable": false,
      "stateMutability": "nonpayable",
      "type": "function"
    },
    {
      "constant": true,
      "inputs": [],
      "name": "getToken",
      "outputs": [
        {
          "name": "",
          "type": "address"
        }
      ],
      "payable": false,
      "stateMutability": "view",
      "type": "function"
    },
    {
      "constant": true,
      "inputs": [],
      "name": "isFailed",
      "outputs": [
        {
          "name": "",
          "type": "bool"
        }
      ],
      "payable": false,
      "stateMutability": "view",
      "type": "function"
    },
    {
      "constant": true,
      "inputs": [],
      "name": "isActive",
      "outputs": [
        {
          "name": "",
          "type": "bool"
        }
      ],
      "payable": false,
      "stateMutability": "view",
      "type": "function"
    },
    {
      "constant": true,
      "inputs": [],
      "name": "isSuccessful",
      "outputs": [
        {
          "name": "",
          "type": "bool"
        }
      ],
      "payable": false,
      "stateMutability": "view",
      "type": "function"
    },
    {
      "constant": true,
      "inputs": [],
      "name": "reachedMinGoal",
      "outputs": [
        {
          "name": "",
          "type": "bool"
        }
      ],
      "payable": false,
      "stateMutability": "view",
      "type": "function"
    },
    {
      "constant": true,
      "inputs": [],
      "name": "calculateRewards",
      "outputs": [
        {
          "name": "",
          "type": "uint256"
        },
        {
          "name": "",
          "type": "uint256"
        }
      ],
      "payable": false,
      "stateMutability": "view",
      "type": "function"
    },
    {
      "constant": true,
      "inputs": [],
      "name": "rewardsAreReady",
      "outputs": [
        {
          "name": "",
          "type": "bool"
        }
      ],
      "payable": false,
      "stateMutability": "view",
      "type": "function"
    }
  ],
  "bytecode": "0x608060405234801561001057600080fd5b506040516040806120ff8339810180604052810190808051906020019092919080519060200190929190505050336000806101000a81548173ffffffffffffffffffffffffffffffffffffffff021916908373ffffffffffffffffffffffffffffffffffffffff160217905550816000806101000a81548173ffffffffffffffffffffffffffffffffffffffff021916908373ffffffffffffffffffffffffffffffffffffffff16021790555080600160006101000a81548173ffffffffffffffffffffffffffffffffffffffff021916908373ffffffffffffffffffffffffffffffffffffffff1602179055505050611ff08061010f6000396000f300608060405260043610610196576000357c0100000000000000000000000000000000000000000000000000000000900463ffffffff168063058bf2141461019857806307da68f5146101c7578063101b8a41146101de578063181956ae1461020d57806318c9ef97146102445780631f2698ab1461029157806321df0da7146102c057806322f3e2d4146103175780633ccfd60b146103465780633e50de301461035d578063481c6a751461038f5780635d202249146103e65780636385cbbe1461041157806366829b161461043c57806375f12b211461047f5780638da5cb5b146104ae5780639106d7ba1461050557806393f33b8814610530578063a51fe11314610571578063a85adeab146105c8578063a96f8668146105f3578063b23c1f191461060a578063ba0e930a14610657578063c8e9d8ac1461069a578063d0e30db0146106d1578063d56b2889146106db578063e29eb836146106f2578063e6fd48bc1461071d578063ec4cd0cf14610748578063f2fde38b14610777578063f4163340146107ba578063fb86a404146107e9575b005b3480156101a457600080fd5b506101ad610814565b604051808215151515815260200191505060405180910390f35b3480156101d357600080fd5b506101dc610823565b005b3480156101ea57600080fd5b506101f36108f5565b604051808215151515815260200191505060405180910390f35b34801561021957600080fd5b506102426004803603810190808035906020019092919080359060200190929190505050610b33565b005b34801561025057600080fd5b5061028f600480360381019080803573ffffffffffffffffffffffffffffffffffffffff16906020019092919080359060200190929190505050610c85565b005b34801561029d57600080fd5b506102a6610d1c565b604051808215151515815260200191505060405180910390f35b3480156102cc57600080fd5b506102d5610d2f565b604051808273ffffffffffffffffffffffffffffffffffffffff1673ffffffffffffffffffffffffffffffffffffffff16815260200191505060405180910390f35b34801561032357600080fd5b5061032c610d59565b604051808215151515815260200191505060405180910390f35b34801561035257600080fd5b5061035b610d89565b005b34801561036957600080fd5b50610372611098565b604051808381526020018281526020019250505060405180910390f35b34801561039b57600080fd5b506103a461137a565b604051808273ffffffffffffffffffffffffffffffffffffffff1673ffffffffffffffffffffffffffffffffffffffff16815260200191505060405180910390f35b3480156103f257600080fd5b506103fb6113a0565b6040518082815260200191505060405180910390f35b34801561041d57600080fd5b506104266113a6565b6040518082815260200191505060405180910390f35b34801561044857600080fd5b5061047d600480360381019080803573ffffffffffffffffffffffffffffffffffffffff1690602001909291905050506113ac565b005b34801561048b57600080fd5b5061049461163b565b604051808215151515815260200191505060405180910390f35b3480156104ba57600080fd5b506104c361164e565b604051808273ffffffffffffffffffffffffffffffffffffffff1673ffffffffffffffffffffffffffffffffffffffff16815260200191505060405180910390f35b34801561051157600080fd5b5061051a611673565b6040518082815260200191505060405180910390f35b34801561053c57600080fd5b5061056f600480360381019080803590602001909291908035906020019092919080359060200190929190505050611679565b005b34801561057d57600080fd5b506105c66004803603810190808035906020019092919080359060200190929190803573ffffffffffffffffffffffffffffffffffffffff16906020019092919050505061178f565b005b3480156105d457600080fd5b506105dd6118e8565b6040518082815260200191505060405180910390f35b3480156105ff57600080fd5b506106086118ee565b005b34801561061657600080fd5b50610655600480360381019080803573ffffffffffffffffffffffffffffffffffffffff169060200190929190803590602001909291905050506118f0565b005b34801561066357600080fd5b50610698600480360381019080803573ffffffffffffffffffffffffffffffffffffffff169060200190929190505050611a51565b005b3480156106a657600080fd5b506106cf6004803603810190808035906020019092919080359060200190929190505050611b2d565b005b6106d9611c75565b005b3480156106e757600080fd5b506106f0611c77565b005b3480156106fe57600080fd5b50610707611dbd565b6040518082815260200191505060405180910390f35b34801561072957600080fd5b50610732611dc3565b6040518082815260200191505060405180910390f35b34801561075457600080fd5b5061075d611dc9565b604051808215151515815260200191505060405180910390f35b34801561078357600080fd5b506107b8600480360381019080803573ffffffffffffffffffffffffffffffffffffffff169060200190929190505050611df9565b005b3480156107c657600080fd5b506107cf611f4e565b604051808215151515815260200191505060405180910390f35b3480156107f557600080fd5b506107fe611f65565b6040518082815260200191505060405180910390f35b60006005546002541015905090565b600160009054906101000a900473ffffffffffffffffffffffffffffffffffffffff1673ffffffffffffffffffffffffffffffffffffffff163373ffffffffffffffffffffffffffffffffffffffff1614151561087f57600080fd5b600160159054906101000a900460ff1615151561089b57600080fd5b600160149054906101000a900460ff16156108d9576108b8611f4e565b1515156108c457600080fd5b6108cc611dc9565b1515156108d857600080fd5b5b60018060156101000a81548160ff021916908315150217905550565b6000806000806000610905611098565b8094508195505050600084118061091c5750600083115b80156109765750600073ffffffffffffffffffffffffffffffffffffffff16600960009054906101000a900473ffffffffffffffffffffffffffffffffffffffff1673ffffffffffffffffffffffffffffffffffffffff16145b156109845760009450610b2c565b600073ffffffffffffffffffffffffffffffffffffffff16600960009054906101000a900473ffffffffffffffffffffffffffffffffffffffff1673ffffffffffffffffffffffffffffffffffffffff16141515610b27576000841115610a11573073ffffffffffffffffffffffffffffffffffffffff1631915083821015610a105760009450610b2c565b5b6000831115610b2657600960009054906101000a900473ffffffffffffffffffffffffffffffffffffffff1673ffffffffffffffffffffffffffffffffffffffff166370a08231306040518263ffffffff167c0100000000000000000000000000000000000000000000000000000000028152600401808273ffffffffffffffffffffffffffffffffffffffff1673ffffffffffffffffffffffffffffffffffffffff168152602001915050602060405180830381600087803b158015610ad757600080fd5b505af1158015610aeb573d6000803e3d6000fd5b505050506040513d6020811015610b0157600080fd5b8101908080519060200190929190505050905082811015610b255760009450610b2c565b5b5b600194505b5050505090565b6000809054906101000a900473ffffffffffffffffffffffffffffffffffffffff1673ffffffffffffffffffffffffffffffffffffffff163373ffffffffffffffffffffffffffffffffffffffff161480610bdb5750600160009054906101000a900473ffffffffffffffffffffffffffffffffffffffff1673ffffffffffffffffffffffffffffffffffffffff163373ffffffffffffffffffffffffffffffffffffffff16145b1515610be657600080fd5b600960149054906101000a900460ff16151515610c0257600080fd5b600082118015610c125750600081115b15610c26578181111515610c2557600080fd5b5b6000821115610c3757816005819055505b806006819055507f8a107dbf550ef189cf0475e419d4fb817092ced37114d2b5efe4c816926b27ee600554600654604051808381526020018281526020019250505060405180910390a15050565b600160009054906101000a900473ffffffffffffffffffffffffffffffffffffffff1673ffffffffffffffffffffffffffffffffffffffff163373ffffffffffffffffffffffffffffffffffffffff16141515610ce157600080fd5b8173ffffffffffffffffffffffffffffffffffffffff168160405160006040518083038185875af1925050501515610d1857600080fd5b5050565b600160149054906101000a900460ff1681565b6000600960009054906101000a900473ffffffffffffffffffffffffffffffffffffffff16905090565b6000600160149054906101000a900460ff168015610d845750600960149054906101000a900460ff16155b905090565b6000806000809054906101000a900473ffffffffffffffffffffffffffffffffffffffff1673ffffffffffffffffffffffffffffffffffffffff163373ffffffffffffffffffffffffffffffffffffffff16141515610de757600080fd5b600960149054906101000a900460ff168015610e105750600960159054906101000a900460ff16155b15610e1a57600080fd5b3073ffffffffffffffffffffffffffffffffffffffff16319150600960009054906101000a900473ffffffffffffffffffffffffffffffffffffffff1673ffffffffffffffffffffffffffffffffffffffff166370a08231306040518263ffffffff167c0100000000000000000000000000000000000000000000000000000000028152600401808273ffffffffffffffffffffffffffffffffffffffff1673ffffffffffffffffffffffffffffffffffffffff168152602001915050602060405180830381600087803b158015610ef157600080fd5b505af1158015610f05573d6000803e3d6000fd5b505050506040513d6020811015610f1b57600080fd5b810190808051906020019092919050505090506000821115610f7f573373ffffffffffffffffffffffffffffffffffffffff166108fc839081150290604051600060405180830381858888f19350505050158015610f7d573d6000803e3d6000fd5b505b600081111561109457600960009054906101000a900473ffffffffffffffffffffffffffffffffffffffff1673ffffffffffffffffffffffffffffffffffffffff1663a9059cbb33836040518363ffffffff167c0100000000000000000000000000000000000000000000000000000000028152600401808373ffffffffffffffffffffffffffffffffffffffff1673ffffffffffffffffffffffffffffffffffffffff16815260200182815260200192505050602060405180830381600087803b15801561104d57600080fd5b505af1158015611061573d6000803e3d6000fd5b505050506040513d602081101561107757600080fd5b8101908080519060200190929190505050151561109357600080fd5b5b5050565b6000806000806000806000600160009054906101000a900473ffffffffffffffffffffffffffffffffffffffff1673ffffffffffffffffffffffffffffffffffffffff1663a823cfaf6040518163ffffffff167c0100000000000000000000000000000000000000000000000000000000028152600401602060405180830381600087803b15801561112957600080fd5b505af115801561113d573d6000803e3d6000fd5b505050506040513d602081101561115357600080fd5b81019080805190602001909291905050509450600160009054906101000a900473ffffffffffffffffffffffffffffffffffffffff1673ffffffffffffffffffffffffffffffffffffffff166380fa81b16040518163ffffffff167c0100000000000000000000000000000000000000000000000000000000028152600401602060405180830381600087803b1580156111ec57600080fd5b505af1158015611200573d6000803e3d6000fd5b505050506040513d602081101561121657600080fd5b8101908080519060200190929190505050935060008414159150620f424061124986600454611f6b90919063ffffffff16565b81151561125257fe5b049050600060035414151561126b576003546002819055505b600160009054906101000a900473ffffffffffffffffffffffffffffffffffffffff1673ffffffffffffffffffffffffffffffffffffffff16633350ae366002546040518263ffffffff167c010000000000000000000000000000000000000000000000000000000002815260040180828152602001915050602060405180830381600087803b1580156112fe57600080fd5b505af1158015611312573d6000803e3d6000fd5b505050506040513d602081101561132857600080fd5b8101908080519060200190929190505050600281905550811561136b57620f424061135e85600254611f6b90919063ffffffff16565b81151561136757fe5b0492505b82819650965050505050509091565b600160009054906101000a900473ffffffffffffffffffffffffffffffffffffffff1681565b60035481565b60055481565b60008060009054906101000a900473ffffffffffffffffffffffffffffffffffffffff1673ffffffffffffffffffffffffffffffffffffffff163373ffffffffffffffffffffffffffffffffffffffff1614806114565750600160009054906101000a900473ffffffffffffffffffffffffffffffffffffffff1673ffffffffffffffffffffffffffffffffffffffff163373ffffffffffffffffffffffffffffffffffffffff16145b151561146157600080fd5b600960149054906101000a900460ff1615151561147d57600080fd5b81600960006101000a81548173ffffffffffffffffffffffffffffffffffffffff021916908373ffffffffffffffffffffffffffffffffffffffff160217905550600960009054906101000a900473ffffffffffffffffffffffffffffffffffffffff1673ffffffffffffffffffffffffffffffffffffffff1663313ce5676040518163ffffffff167c0100000000000000000000000000000000000000000000000000000000028152600401602060405180830381600087803b15801561154457600080fd5b505af1158015611558573d6000803e3d6000fd5b505050506040513d602081101561156e57600080fd5b8101908080519060200190929190505050905060088160ff1610158015611599575060128160ff1611155b15156115a457600080fd5b7fed6f18557b7914dbfc23d546be65de82017608e11b87429e06c0b88b55f0b6c3600960009054906101000a900473ffffffffffffffffffffffffffffffffffffffff1682604051808373ffffffffffffffffffffffffffffffffffffffff1673ffffffffffffffffffffffffffffffffffffffff1681526020018260ff1660ff1681526020019250505060405180910390a15050565b600160159054906101000a900460ff1681565b6000809054906101000a900473ffffffffffffffffffffffffffffffffffffffff1681565b60045481565b600160149054906101000a900460ff16151561169457600080fd5b600160159054906101000a900460ff161515156116b057600080fd5b6116b8610d59565b15156116c357600080fd5b6000809054906101000a900473ffffffffffffffffffffffffffffffffffffffff1673ffffffffffffffffffffffffffffffffffffffff163373ffffffffffffffffffffffffffffffffffffffff1614151561171e57600080fd5b61173383600254611fa690919063ffffffff16565b60028190555061174e82600354611fa690919063ffffffff16565b60038190555061176981600454611fa690919063ffffffff16565b6004819055506001600960166101000a81548160ff021916908315150217905550505050565b600160149054906101000a900460ff161515156117ab57600080fd5b600160159054906101000a900460ff161515156117c757600080fd5b600160009054906101000a900473ffffffffffffffffffffffffffffffffffffffff1673ffffffffffffffffffffffffffffffffffffffff163373ffffffffffffffffffffffffffffffffffffffff1614151561182357600080fd5b6000831180156118335750600082115b1561184757828211151561184657600080fd5b5b826007819055508160088190555060018060146101000a81548160ff0219169083151502179055507ffccf552413932efea18979436cc8ce92942bdef118c2b5682351e1891bef807283836000604051808481526020018381526020018273ffffffffffffffffffffffffffffffffffffffff1673ffffffffffffffffffffffffffffffffffffffff168152602001935050505060405180910390a1505050565b60085481565b565b600160009054906101000a900473ffffffffffffffffffffffffffffffffffffffff1673ffffffffffffffffffffffffffffffffffffffff163373ffffffffffffffffffffffffffffffffffffffff1614151561194c57600080fd5b600960009054906101000a900473ffffffffffffffffffffffffffffffffffffffff1673ffffffffffffffffffffffffffffffffffffffff1663a9059cbb83836040518363ffffffff167c0100000000000000000000000000000000000000000000000000000000028152600401808373ffffffffffffffffffffffffffffffffffffffff1673ffffffffffffffffffffffffffffffffffffffff16815260200182815260200192505050602060405180830381600087803b158015611a1157600080fd5b505af1158015611a25573d6000803e3d6000fd5b505050506040513d6020811015611a3b57600080fd5b8101908080519060200190929190505050505050565b600160009054906101000a900473ffffffffffffffffffffffffffffffffffffffff1673ffffffffffffffffffffffffffffffffffffffff163373ffffffffffffffffffffffffffffffffffffffff16141515611aad57600080fd5b600073ffffffffffffffffffffffffffffffffffffffff168173ffffffffffffffffffffffffffffffffffffffff1614151515611ae957600080fd5b80600160006101000a81548173ffffffffffffffffffffffffffffffffffffffff021916908373ffffffffffffffffffffffffffffffffffffffff16021790555050565b6000809054906101000a900473ffffffffffffffffffffffffffffffffffffffff1673ffffffffffffffffffffffffffffffffffffffff163373ffffffffffffffffffffffffffffffffffffffff161480611bd55750600160009054906101000a900473ffffffffffffffffffffffffffffffffffffffff1673ffffffffffffffffffffffffffffffffffffffff163373ffffffffffffffffffffffffffffffffffffffff16145b1515611be057600080fd5b600960149054906101000a900460ff16151515611bfc57600080fd5b600082118015611c0c5750600081115b15611c20578181111515611c1f57600080fd5b5b81600781905550806008819055507f70b2168874684694af024b9b82966aedd9e12634e3229136b7d89247b5a2b071600754600854604051808381526020018281526020019250505060405180910390a15050565b565b600160159054906101000a900460ff16151515611c9357600080fd5b600160149054906101000a900460ff161515611cae57600080fd5b611cb6610d59565b1515611cc157600080fd5b6000809054906101000a900473ffffffffffffffffffffffffffffffffffffffff1673ffffffffffffffffffffffffffffffffffffffff163373ffffffffffffffffffffffffffffffffffffffff16141515611d1c57600080fd5b600960169054906101000a900460ff161515611d3757600080fd5b611d3f6108f5565b1515611d4a57600080fd5b611d52610814565b1515611d74576001600960156101000a81548160ff0219169083151502179055505b6001600960146101000a81548160ff0219169083151502179055507f256531276449280f5a3022f3024cb03968cf6ab90d6d067e9bc10768bcbcb08060405160405180910390a1565b60025481565b60075481565b6000600960149054906101000a900460ff168015611df45750600960159054906101000a900460ff16155b905090565b6000809054906101000a900473ffffffffffffffffffffffffffffffffffffffff1673ffffffffffffffffffffffffffffffffffffffff163373ffffffffffffffffffffffffffffffffffffffff16141515611e5457600080fd5b600073ffffffffffffffffffffffffffffffffffffffff168173ffffffffffffffffffffffffffffffffffffffff1614151515611e9057600080fd5b8073ffffffffffffffffffffffffffffffffffffffff166000809054906101000a900473ffffffffffffffffffffffffffffffffffffffff1673ffffffffffffffffffffffffffffffffffffffff167f8be0079c531659141344cd1fd0a4f28419497f9722a3daafe3b4186f6b6457e060405160405180910390a3806000806101000a81548173ffffffffffffffffffffffffffffffffffffffff021916908373ffffffffffffffffffffffffffffffffffffffff16021790555050565b6000600960159054906101000a900460ff16905090565b60065481565b6000806000841415611f805760009150611f9f565b8284029050828482811515611f9157fe5b04141515611f9b57fe5b8091505b5092915050565b6000808284019050838110151515611fba57fe5b80915050929150505600a165627a7a7230582028f489e98f12c0c54f9b0dff25ad5d2146f9ce1c47fe035f7f62c84838c4af850029",
  "source": "pragma solidity ^0.4.18;\n\n\nimport './interfaces/IBridge.sol';\n\n\n/*\n    Standalone Bridge\n*/\ncontract Bridge is IBridge {\n\n    // Constructor\n    function Bridge(address _owner, address _manager) public {\n        owner = _owner;\n        manager = _manager;\n    }\n\n    /*\n        Only manager\n     */\n\n    // Mints token Rewards to Forecasting contract\n    // called by IWingsController\n    function mintTokenRewards(\n        address _contract,\n        uint256 _amount        // agreed part of totalSold which is intended for rewards\n    )\n        public\n        onlyManager()\n    {\n        // in our example we are transferring tokens instead of minting them\n        token.transfer(_contract, _amount);\n    }\n\n    // called by CrowdsaleController to transfer reward part of ETH\n    // collected by successful crowdsale to Forecasting contract.\n    // This call is made upon closing successful crowdfunding process\n    // iff agreed ETH reward part is not zero\n    function mintETHRewards(\n        address _contract,    // Forecasting contract\n        uint256 _amount         // agreed part of totalCollected which is intended for rewards\n    )\n        public\n        onlyManager() // manager is CrowdsaleController instance\n    {\n        require(_contract.call.value(_amount)());\n    }\n\n    // cancels crowdsale\n    function stop() public onlyManager() hasntStopped()    {\n        // we can stop only not started and not completed crowdsale\n        if (started) {\n            require(!isFailed());\n            require(!isSuccessful());\n        }\n        stopped = true;\n    }\n\n    /*\n        Public\n     */\n\n    // Update information about collected ETH and sold tokens amount\n    function notifySale(uint256 _amount, uint256 _ethAmount, uint256 _tokensAmount)\n        public\n        hasBeenStarted()\n        hasntStopped()\n        whenCrowdsaleAlive()\n        onlyOwner()\n    {\n        totalCollected = totalCollected.add(_amount);\n        totalCollectedETH = totalCollectedETH.add(_ethAmount);\n        totalSold = totalSold.add(_tokensAmount);\n\n        notifiedSale = true;\n    }\n\n    // Validates parameters and starts crowdsale\n    // called by IWingsController\n    function start(\n        uint256 _startTimestamp,\n        uint256 _endTimestamp,\n        address /*_fundingAddress*/\n    )\n        public\n        hasntStarted()\n        hasntStopped()\n        onlyManager()\n    {\n        if (_startTimestamp > 0 && _endTimestamp > 0) {\n            require(_endTimestamp > _startTimestamp);\n        }\n\n        startTimestamp = _startTimestamp;\n        endTimestamp = _endTimestamp;\n\n        started = true;\n\n        CROWDSALE_START(_startTimestamp, _endTimestamp, address(0));\n    }\n\n    // Finish crowdsale\n    function finish()\n        public\n        hasntStopped()\n        hasBeenStarted()\n        whenCrowdsaleAlive()\n        onlyOwner()\n    {\n        // allow to finish bridge only if owner has communicated crowdsale results\n        require(notifiedSale);\n\n        require(rewardsAreReady());\n\n        if (!reachedMinGoal()) {\n            failed = true;\n        }\n\n        completed = true;\n\n        CUSTOM_CROWDSALE_FINISH();\n    }\n\n    // Change token address (in case you've used the dafault token address during bridge deployment)\n    function changeToken(address _newToken) public onlyOwnerOrManager() uncompleted() {\n        token = DetailedERC20(_newToken);\n\n        uint8 tokenDecimals = uint8(token.decimals());\n\n        require(tokenDecimals >= 8 && tokenDecimals <= 18);\n\n        CUSTOM_CROWDSALE_TOKEN_ADDED(address(token), tokenDecimals);\n    }\n\n    // Set/update crowdsale goal\n    function setCrowdsaleGoal(uint256 _minimalGoal, uint256 _hardCap) public onlyOwnerOrManager() uncompleted() {\n        if (_minimalGoal > 0 && _hardCap > 0) {\n            require(_hardCap > _minimalGoal);\n        }\n\n        if (_minimalGoal > 0) {\n            minimalGoal = _minimalGoal;\n        }\n\n        hardCap = _hardCap;\n\n        CUSTOM_CROWDSALE_GOAL_ADDED(minimalGoal, hardCap);\n    }\n\n    // Set/update crowdsale period\n    function setCrowdsalePeriod(uint256 _startTimestamp, uint256 _endTimestamp) public onlyOwnerOrManager() uncompleted() {\n        if (_startTimestamp > 0 && _endTimestamp > 0) {\n            require(_endTimestamp > _startTimestamp);\n        }\n\n        startTimestamp = _startTimestamp;\n        endTimestamp = _endTimestamp;\n\n        CUSTOM_CROWDSALE_PERIOD_ADDED(startTimestamp, endTimestamp);\n    }\n\n    // Gives owner ability to withdraw eth and wings from Bridge contract balance in case\n    // if some error during reward calculation occured or crowdsale failed\n    function withdraw() public onlyOwner() {\n        if (completed && !failed) {\n            revert();\n        }\n\n        uint256 ethBalance = address(this).balance;\n        uint256 tokenBalance = token.balanceOf(address(this));\n\n        if (ethBalance > 0) {\n            msg.sender.transfer(ethBalance);\n        }\n\n        if (tokenBalance > 0) {\n            require(token.transfer(msg.sender, tokenBalance));\n        }\n    }\n\n    /*\n        Public view\n     */\n\n    // Returns address of crowdsale token\n    function getToken() public view returns (address) {\n        return address(token);\n    }\n\n    function isFailed() public view returns (bool) {\n        return failed;\n    }\n\n    function isActive() public view returns (bool) {\n        return started && !completed;\n    }\n\n    function isSuccessful() public view returns (bool) {\n        return completed && !failed;\n    }\n\n    function reachedMinGoal() public view returns (bool) {\n        return totalCollected >= minimalGoal;\n    }\n\n    // Find out the amount of rewards in ETH and tokens\n    function calculateRewards() public view returns (uint256, uint256) {\n        uint256 tokenRewardPart = IWingsController(manager).tokenRewardPart();\n        uint256 ethRewardPart = IWingsController(manager).ethRewardPart();\n        uint256 ethReward;\n        bool hasEthReward = (ethRewardPart != 0);\n\n        uint256 tokenReward = totalSold.mul(tokenRewardPart) / 1000000;\n\n        if (totalCollectedETH != 0) {\n            totalCollected = totalCollectedETH;\n        }\n\n        totalCollected = IWingsController(manager).fitCollectedValueIntoRange(totalCollected);\n\n        if (hasEthReward) {\n            ethReward = totalCollected.mul(ethRewardPart) / 1000000;\n        }\n\n        return (ethReward, tokenReward);\n    }\n\n    // Find out whether rewards are ready to be distributed\n    function rewardsAreReady() public view returns (bool) {\n        uint256 ethReward;\n        uint256 tokenReward;\n\n        (ethReward, tokenReward) = calculateRewards();\n\n        // if there are rewards to pay but token is absent\n        if ((ethReward > 0 || tokenReward > 0) && address(token) == address(0)) {\n            return false;\n        }\n\n        // check if there are enough rewards on this address\n        if (address(token) != address(0)) {\n            if (ethReward > 0) {\n                uint256 ethBalance = address(this).balance;\n\n                if (ethBalance < ethReward) {\n                    return false;\n                }\n            }\n\n            if (tokenReward > 0) {\n                uint256 tokenBalance = token.balanceOf(address(this));\n\n                if (tokenBalance < tokenReward) {\n                    return false;\n                }\n            }\n        }\n\n        return true;\n    }\n\n    /*\n        Fallback\n     */\n\n    function() public payable {\n    }\n}\n",
  "sourcePath": "/Users/solidity/Desktop/github/wings-light-bridge/contracts/Bridge.sol",
  "compiler": {
    "name": "solc",
    "version": "0.4.24+commit.e67f0147.Emscripten.clang"
  },
  "schemaVersion": "2.0.0",
  "updatedAt": "2018-10-02T07:17:08.862Z"
}