{
  "contractName": "ControllerStub",
  "abi": [
    {
      "constant": true,
      "inputs": [],
      "name": "ethRewardPart",
      "outputs": [
        {
          "name": "",
          "type": "uint256"
        }
      ],
      "payable": false,
      "stateMutability": "view",
      "type": "function"
    },
    {
      "constant": true,
      "inputs": [],
      "name": "tokenRewardPart",
      "outputs": [
        {
          "name": "",
          "type": "uint256"
        }
      ],
      "payable": false,
      "stateMutability": "view",
      "type": "function"
    },
    {
      "inputs": [
        {
          "name": "_ethRewardPart",
          "type": "uint256"
        },
        {
          "name": "_tokenRewardPart",
          "type": "uint256"
        }
      ],
      "payable": false,
      "stateMutability": "nonpayable",
      "type": "constructor"
    },
    {
      "payable": true,
      "stateMutability": "payable",
      "type": "fallback"
    },
    {
      "constant": true,
      "inputs": [
        {
          "name": "_totalCollected",
          "type": "uint256"
        }
      ],
      "name": "fitCollectedValueIntoRange",
      "outputs": [
        {
          "name": "",
          "type": "uint256"
        }
      ],
      "payable": false,
      "stateMutability": "view",
      "type": "function"
    }
  ],
  "bytecode": "0x608060405234801561001057600080fd5b5060405160408061010183398101604052805160209091015160009190915560015560c1806100406000396000f30060806040526004361060395763ffffffff60e060020a6000350416633350ae368114603b57806380fa81b1146062578063a823cfaf146074575b005b348015604657600080fd5b5060506004356086565b60408051918252519081900360200190f35b348015606d57600080fd5b5060506089565b348015607f57600080fd5b506050608f565b90565b60005481565b600154815600a165627a7a723058207470e17f0e2b1715df99e8322509a1993c7a733740abc62237fc779f4187596c0029",
  "source": "pragma solidity ^0.4.18;\n\n\nimport \"../interfaces/IWingsController.sol\";\n\n\n// Minimal crowdsale token for custom contracts\ncontract ControllerStub is IWingsController {\n\n  function ControllerStub(uint256 _ethRewardPart, uint256 _tokenRewardPart) public {\n    ethRewardPart = _ethRewardPart;\n    tokenRewardPart = _tokenRewardPart;\n  }\n\n  function fitCollectedValueIntoRange(uint256 _totalCollected) public view returns (uint256) {\n    return _totalCollected;\n  }\n\n  function() public payable {\n  }\n}\n",
  "sourcePath": "/Users/solidity/Desktop/github/wings-light-bridge/contracts/test/ControllerStub.sol",
  "compiler": {
    "name": "solc",
    "version": "0.4.24+commit.e67f0147.Emscripten.clang"
  },
  "schemaVersion": "2.0.0",
  "updatedAt": "2018-07-20T09:49:34.659Z"
}