{
  "contractName": "ControllerStub",
  "abi": [
    {
      "constant": true,
      "inputs": [],
      "name": "ethRewardPart",
      "outputs": [
        {
          "name": "",
          "type": "uint256"
        }
      ],
      "payable": false,
      "stateMutability": "view",
      "type": "function"
    },
    {
      "constant": true,
      "inputs": [],
      "name": "tokenRewardPart",
      "outputs": [
        {
          "name": "",
          "type": "uint256"
        }
      ],
      "payable": false,
      "stateMutability": "view",
      "type": "function"
    },
    {
      "inputs": [
        {
          "name": "_ethRewardPart",
          "type": "uint256"
        },
        {
          "name": "_tokenRewardPart",
          "type": "uint256"
        }
      ],
      "payable": false,
      "stateMutability": "nonpayable",
      "type": "constructor"
    },
    {
      "payable": true,
      "stateMutability": "payable",
      "type": "fallback"
    },
    {
      "constant": true,
      "inputs": [
        {
          "name": "_totalCollected",
          "type": "uint256"
        }
      ],
      "name": "fitCollectedValueIntoRange",
      "outputs": [
        {
          "name": "",
          "type": "uint256"
        }
      ],
      "payable": false,
      "stateMutability": "view",
      "type": "function"
    },
    {
      "constant": false,
      "inputs": [
        {
          "name": "_startTimestamp",
          "type": "uint256"
        },
        {
          "name": "_endTimestamp",
          "type": "uint256"
        },
        {
          "name": "_fundingAddress",
          "type": "address"
        }
      ],
      "name": "start",
      "outputs": [],
      "payable": false,
      "stateMutability": "nonpayable",
      "type": "function"
    }
  ],
  "bytecode": "0x608060405234801561001057600080fd5b506040516040806101f58339810180604052810190808051906020019092919080519060200190929190505050816000819055508060018190555050506101998061005c6000396000f300608060405260043610610062576000357c0100000000000000000000000000000000000000000000000000000000900463ffffffff1680633350ae361461006457806380fa81b1146100a5578063a51fe113146100d0578063a823cfaf14610127575b005b34801561007057600080fd5b5061008f60048036038101908080359060200190929190505050610152565b6040518082815260200191505060405180910390f35b3480156100b157600080fd5b506100ba61015c565b6040518082815260200191505060405180910390f35b3480156100dc57600080fd5b506101256004803603810190808035906020019092919080359060200190929190803573ffffffffffffffffffffffffffffffffffffffff169060200190929190505050610162565b005b34801561013357600080fd5b5061013c610167565b6040518082815260200191505060405180910390f35b6000819050919050565b60005481565b505050565b600154815600a165627a7a72305820561b75a89d4f662e21fc89d529cafc02d94c7dc9060a3d83c1927c89cc94ca150029",
  "source": "pragma solidity ^0.4.18;\n\n\nimport \"../interfaces/IWingsController.sol\";\n\n\n// Minimal crowdsale token for custom contracts\ncontract ControllerStub is IWingsController {\n\n  function ControllerStub(uint256 _ethRewardPart, uint256 _tokenRewardPart) public {\n    ethRewardPart = _ethRewardPart;\n    tokenRewardPart = _tokenRewardPart;\n  }\n\n  function fitCollectedValueIntoRange(uint256 _totalCollected) public view returns (uint256) {\n    return _totalCollected;\n  }\n\n  function start(uint256 _startTimestamp, uint256 _endTimestamp, address _fundingAddress) public {}\n\n  function() public payable {\n  }\n}\n",
  "sourcePath": "/Users/solidity/Desktop/github/wings-light-bridge/contracts/test/ControllerStub.sol",
  "compiler": {
    "name": "solc",
    "version": "0.4.24+commit.e67f0147.Emscripten.clang"
  },
  "schemaVersion": "2.0.0",
  "updatedAt": "2018-10-01T13:30:58.603Z"
}