{
  "contractName": "ControllerStub",
  "abi": [
    {
      "constant": true,
      "inputs": [
        {
          "name": "_totalCollected",
          "type": "uint256"
        }
      ],
      "name": "fitCollectedValueIntoRange",
      "outputs": [
        {
          "name": "",
          "type": "uint256"
        }
      ],
      "payable": false,
      "stateMutability": "view",
      "type": "function"
    },
    {
      "constant": true,
      "inputs": [],
      "name": "ethRewardPart",
      "outputs": [
        {
          "name": "",
          "type": "uint256"
        }
      ],
      "payable": false,
      "stateMutability": "view",
      "type": "function"
    },
    {
      "constant": false,
      "inputs": [
        {
          "name": "",
          "type": "uint256"
        },
        {
          "name": "",
          "type": "uint256"
        },
        {
          "name": "",
          "type": "address"
        }
      ],
      "name": "start",
      "outputs": [],
      "payable": false,
      "stateMutability": "nonpayable",
      "type": "function"
    },
    {
      "constant": true,
      "inputs": [],
      "name": "tokenRewardPart",
      "outputs": [
        {
          "name": "",
          "type": "uint256"
        }
      ],
      "payable": false,
      "stateMutability": "view",
      "type": "function"
    },
    {
      "inputs": [
        {
          "name": "_ethRewardPart",
          "type": "uint256"
        },
        {
          "name": "_tokenRewardPart",
          "type": "uint256"
        }
      ],
      "payable": false,
      "stateMutability": "nonpayable",
      "type": "constructor"
    },
    {
      "payable": true,
      "stateMutability": "payable",
      "type": "fallback"
    }
  ],
  "bytecode": "0x6060604052341561000f57600080fd5b60405160408061012e8339810160405280805191906020018051600093909355505060015560ec806100426000396000f30060606040526004361060435763ffffffff60e060020a6000350416633350ae368114604557806380fa81b114606a578063a51fe11314607a578063a823cfaf14609c575b005b3415604f57600080fd5b605860043560ac565b60405190815260200160405180910390f35b3415607457600080fd5b605860af565b3415608457600080fd5b6043600435602435600160a060020a036044351660b5565b341560a657600080fd5b605860ba565b90565b60005481565b505050565b600154815600a165627a7a72305820dfeae549d1b4ce0bfc035c4f84dda4a778c77a6f37c08450839e42c9ee758a6c0029",
  "source": "pragma solidity ^0.4.18;\n\n\nimport \"../interfaces/IWingsController.sol\";\n\n\n// Minimal crowdsale token for custom contracts\ncontract ControllerStub is IWingsController {\n\n    function ControllerStub(uint256 _ethRewardPart, uint256 _tokenRewardPart) public {\n        ethRewardPart = _ethRewardPart;\n        tokenRewardPart = _tokenRewardPart;\n    }\n\n    function fitCollectedValueIntoRange(uint256 _totalCollected) public view returns (uint256) {\n        return _totalCollected;\n    }\n\n    function start(uint256 /*_startTimestamp*/, uint256 /*_endTimestamp*/, address /*_fundingAddress*/) public {}\n\n    function() public payable {\n    }\n}\n",
  "sourcePath": "/Users/solidity/Desktop/wings/wings-light-bridge/contracts/test/ControllerStub.sol",
  "compiler": {
    "name": "solc",
    "version": "0.4.18+commit.9cf6e910.Emscripten.clang"
  },
  "schemaVersion": "1.0.1",
  "updatedAt": "2019-02-19T07:06:51.534Z"
}