{
  "contractName": "HasManager",
  "abi": [
    {
      "constant": true,
      "inputs": [],
      "name": "manager",
      "outputs": [
        {
          "name": "",
          "type": "address"
        }
      ],
      "payable": false,
      "stateMutability": "view",
      "type": "function"
    },
    {
      "constant": false,
      "inputs": [
        {
          "name": "_newManager",
          "type": "address"
        }
      ],
      "name": "transferManager",
      "outputs": [],
      "payable": false,
      "stateMutability": "nonpayable",
      "type": "function"
    }
  ],
  "bytecode": "0x608060405234801561001057600080fd5b50610109806100206000396000f300608060405260043610602f5763ffffffff60e060020a600035041663481c6a7581146034578063ba0e930a146062575b600080fd5b348015603f57600080fd5b5060466082565b60408051600160a060020a039092168252519081900360200190f35b348015606d57600080fd5b506080600160a060020a03600435166091565b005b600054600160a060020a031681565b600054600160a060020a0316331460a757600080fd5b600160a060020a038116151560bb57600080fd5b60008054600160a060020a031916600160a060020a03929092169190911790555600a165627a7a72305820cdbb9cce00adedcd4704decc111d0fa2b744dfcf888e901a32c16df8d37600160029",
  "source": "pragma solidity ^0.4.18;\n\ncontract HasManager {\n  address public manager;\n\n  modifier onlyManager {\n    require(msg.sender == manager);\n    _;\n  }\n\n  function transferManager(address _newManager) public onlyManager() {\n    require(_newManager != address(0));\n    manager = _newManager;\n  }\n}\n",
  "sourcePath": "wings-integration/contracts/helpers/HasManager.sol",
  "compiler": {
    "name": "solc",
    "version": "0.4.24+commit.e67f0147.Emscripten.clang"
  },
  "schemaVersion": "2.0.0",
  "updatedAt": "2018-07-19T15:52:01.908Z"
}