{
  "contractName": "TestToken",
  "abi": [
    {
      "constant": true,
      "inputs": [],
      "name": "name",
      "outputs": [
        {
          "name": "",
          "type": "string"
        }
      ],
      "payable": false,
      "stateMutability": "view",
      "type": "function"
    },
    {
      "constant": true,
      "inputs": [],
      "name": "totalSupply",
      "outputs": [
        {
          "name": "",
          "type": "uint256"
        }
      ],
      "payable": false,
      "stateMutability": "view",
      "type": "function"
    },
    {
      "constant": true,
      "inputs": [],
      "name": "decimals",
      "outputs": [
        {
          "name": "",
          "type": "uint8"
        }
      ],
      "payable": false,
      "stateMutability": "view",
      "type": "function"
    },
    {
      "constant": true,
      "inputs": [
        {
          "name": "_owner",
          "type": "address"
        }
      ],
      "name": "balanceOf",
      "outputs": [
        {
          "name": "balance",
          "type": "uint256"
        }
      ],
      "payable": false,
      "stateMutability": "view",
      "type": "function"
    },
    {
      "constant": true,
      "inputs": [],
      "name": "symbol",
      "outputs": [
        {
          "name": "",
          "type": "string"
        }
      ],
      "payable": false,
      "stateMutability": "view",
      "type": "function"
    },
    {
      "constant": false,
      "inputs": [
        {
          "name": "_to",
          "type": "address"
        },
        {
          "name": "_value",
          "type": "uint256"
        }
      ],
      "name": "transfer",
      "outputs": [
        {
          "name": "",
          "type": "bool"
        }
      ],
      "payable": false,
      "stateMutability": "nonpayable",
      "type": "function"
    },
    {
      "inputs": [
        {
          "name": "_name",
          "type": "string"
        },
        {
          "name": "_symbol",
          "type": "string"
        },
        {
          "name": "_decimals",
          "type": "uint8"
        },
        {
          "name": "_totalSupply",
          "type": "uint256"
        }
      ],
      "payable": false,
      "stateMutability": "nonpayable",
      "type": "constructor"
    },
    {
      "anonymous": false,
      "inputs": [
        {
          "indexed": true,
          "name": "from",
          "type": "address"
        },
        {
          "indexed": true,
          "name": "to",
          "type": "address"
        },
        {
          "indexed": false,
          "name": "value",
          "type": "uint256"
        }
      ],
      "name": "Transfer",
      "type": "event"
    }
  ],
  "bytecode": "0x608060405234801561001057600080fd5b50604051610537380380610537833981016040908152815160208084015192840151606085015192850180519095949094019390929161005591600291870190610099565b508251610069906003906020860190610099565b506004805460ff191660ff9390931692909217909155600081815533815260016020526040902055506101349050565b828054600181600116156101000203166002900490600052602060002090601f016020900481019282601f106100da57805160ff1916838001178555610107565b82800160010185558215610107579182015b828111156101075782518255916020019190600101906100ec565b50610113929150610117565b5090565b61013191905b80821115610113576000815560010161011d565b90565b6103f4806101436000396000f30060806040526004361061005e5763ffffffff60e060020a60003504166306fdde03811461006357806318160ddd146100ed578063313ce5671461011457806370a082311461013f57806395d89b4114610160578063a9059cbb14610175575b600080fd5b34801561006f57600080fd5b506100786101ad565b6040805160208082528351818301528351919283929083019185019080838360005b838110156100b257818101518382015260200161009a565b50505050905090810190601f1680156100df5780820380516001836020036101000a031916815260200191505b509250505060405180910390f35b3480156100f957600080fd5b50610102610238565b60408051918252519081900360200190f35b34801561012057600080fd5b5061012961023e565b6040805160ff9092168252519081900360200190f35b34801561014b57600080fd5b50610102600160a060020a0360043516610247565b34801561016c57600080fd5b50610078610262565b34801561018157600080fd5b50610199600160a060020a03600435166024356102bd565b604080519115158252519081900360200190f35b6002805460408051602060018416156101000260001901909316849004601f810184900484028201840190925281815292918301828280156102305780601f1061020557610100808354040283529160200191610230565b820191906000526020600020905b81548152906001019060200180831161021357829003601f168201915b505050505081565b60005481565b60045460ff1681565b600160a060020a031660009081526001602052604090205490565b6003805460408051602060026001851615610100026000190190941693909304601f810184900484028201840190925281815292918301828280156102305780601f1061020557610100808354040283529160200191610230565b6000600160a060020a03831615156102d457600080fd5b336000908152600160205260409020548211156102f057600080fd5b33600090815260016020526040902054610310908363ffffffff6103a016565b3360009081526001602052604080822092909255600160a060020a03851681522054610342908363ffffffff6103b216565b600160a060020a0384166000818152600160209081526040918290209390935580518581529051919233927fddf252ad1be2c89b69c2b068fc378daa952ba7f163c4a11628f55a4df523b3ef9281900390910190a350600192915050565b6000828211156103ac57fe5b50900390565b6000828201838110156103c157fe5b93925050505600a165627a7a723058204fab4871578f9980ad9fe58217254c0dad896e049aecd5db9fae00a253609d2d0029",
  "source": "pragma solidity ^0.4.18;\n\n\nimport 'zeppelin-solidity/contracts/token/BasicToken.sol';\n\n\ncontract TestToken is BasicToken {\n\n  string public name;\n  string public symbol;\n  uint8 public decimals;\n\n  function TestToken(string _name, string _symbol, uint8 _decimals, uint256 _totalSupply) public {\n    name = _name;\n    symbol = _symbol;\n    decimals = _decimals;\n    totalSupply = _totalSupply;\n    balances[msg.sender] = totalSupply;\n  }\n}\n",
  "sourcePath": "/Users/solidity/Desktop/github/wings-light-bridge/contracts/test/TestToken.sol",
  "compiler": {
    "name": "solc",
    "version": "0.4.24+commit.e67f0147.Emscripten.clang"
  },
  "schemaVersion": "2.0.0",
  "updatedAt": "2018-07-20T09:49:34.659Z"
}